:020000040800F2
:1000000068530020C101000849190008E1170008E1
:1000100045190008F1020008011D00080000000059
:10002000000000000000000000000000C1190008EE
:10003000F50200080000000051190008E519000849
:10004000DB010008DB010008DB010008DB01000820
:10005000DB010008DB010008DB010008DB01000810
:10006000DB010008F902000801030008DB010008B9
:10007000DB010008DB010008DB010008DB010008F0
:10008000DB010008DB010008DB010008DB010008E0
:10009000DB010008DB010008DB010008DB010008D0
:1000A000DB010008C91A0008DB010008DB010008B9
:1000B000DB010008DB010008DB010008DB010008B0
:1000C000DB010008DB010008DB010008DB010008A0
:1000D000DB010008DB010008DB010008DB01000890
:1000E000DB010008DB010008DB010008DB01000880
:1000F000DB010008DB010008DB010008DB01000870
:10010000DB010008DB010008DB010008DB0100085F
:10011000DB010008DB010008DB010008DB0100084F
:10012000DB010008DB010008DB010008DB0100083F
:10013000DB010008DB010008DB010008DB0100082F
:10014000DB010008DB010008DB010008DB0100081F
:10015000DB010008DB010008DB010008DB0100080F
:10016000DB010008DB010008DB010008DB010008FF
:10017000DB010008DB010008DB01000800000000D3
:10018000DB010008DB010008DB010008DB010008DF
:10019000DB010008DB010008DB010008DB010008CF
:1001A000DB010008DB010008DB010008DFF80CD0F0
:1001B00000F08CF8004800472D1D0008685300200F
:1001C0000648804706480047FEE7FEE7FEE7FEE7F1
:1001D000FEE7FEE7FEE7FEE7FEE7FEE7B51A0008EA
:1001E000AD0100082DE9F05F0546002092469B46D0
:1001F00088460646814640241BE02846414647463D
:10020000224600F053F853465A46C01A914110D383
:1002100011461846224600F03AF82D1A67EB0108FD
:100220004F4622460120002100F031F817EB00096B
:100230004E41201EA4F10104DFDC484631462A4627
:100240004346BDE8F09F40EA01039B0703D009E065
:1002500008C9121F08C0042AFAD203E011F8013BB2
:1002600000F8013B521EF9D27047D2B201E000F80B
:10027000012B491EFBD270470022F6E710B513464A
:100280000A4604461946FFF7F0FF204610BD202A13
:1002900004DB203A00FA02F1002070479140C2F1DD
:1002A000200320FA03F3194390407047202A04DB0F
:1002B000203A21FA02F00021704721FA02F3D040DF
:1002C000C2F120029140084319467047064C074D81
:1002D00006E0E06840F0010394E807009847103416
:1002E000AC42F6D3FFF766FFE87F000808800008FD
:1002F000FEE7000070470000082000F081B8000011
:10030000102000F07DB80000EFF3108072B600BF3F
:10031000FEE7000080B582B010280FD0082829D150
:1003200041F20000C4F20200082100F049F901285E
:1003300031D100208DF8070021A00CE041F200002F
:10034000C4F20200102100F03BF9012823D1012062
:100350008DF8070011A005F095FB40F21800C2F2DD
:10036000000000680DF107010022002304F0C4FE24
:1003700002B080BD40F21800C2F200000021006807
:100380008DF807100DF107010022002304F0B4FEE0
:1003900015A005F077FB02B080BD00BF64697370E3
:1003A0006C6179206D6F64653A73686F7720515284
:1003B000636F64652C2074696D6572200D00000008
:1003C000646973706C6179206D6F64653A737475DC
:1003D00064656E742069642C206C696E652C2063E2
:1003E0006972636C650D0000756E6B6E6F776E20C1
:1003F0006972712068617070656E64200D00000084
:1004000043F61441C4F201010A68024214BF0860B5
:100410007047FFF77FBF00002DE9F04F82B000F179
:100420003E4242F2004502F1FF77C4F202050A2281
:1004300043F6004E4FEAB726A84208BF0922C4F28D
:10044000010E092E38BF4FEAB722012500260027EA
:100450004FF00008009208E008F101080437B8F1F5
:10046000100F06F1020600F0A7800C6805FA08F9E3
:1004700014EA090FF0D0D1F804B003220BF0030CFA
:10048000ACF10104B240012C6FEA020A10D8826874
:10049000CC6802EA0A02B440224382604268CBF38D
:1004A000001422EA090204FA08F42243426005E03B
:1004B000BCF1030F02D14FF0030C20E0C2688C683E
:1004C00002EA0A02B4402243BCF1020FC26016D114
:1004D0006FF0030202EA58020244D2F820C007F08B
:1004E0001C050F230C69AB402CEA030304FA05F545
:1004F0002B431362D1F804B001250BF0030C026802
:100500000CFA06F302EA0A021A431BF4403F0260A7
:10051000A2D0002243F644030192C4F202031A68F7
:100520004FF6084C42F480421A601A68CFF6FF7CFE
:1005300002F480420192019A28F00302724452F8B8
:100540000C3007F00C050F24AC40A343009C04FAC8
:1005500005F52B4342F80C30DEF808204B6842EAE0
:10056000090543F60C4CDC0258BF22EA0905CEF817
:100570000850C4F2010CDCF800209C0242EA090594
:1005800058BF22EA0905CCF80050DEF804209C038D
:1005900042EA090558BF22EA0905CEF80450DEF800
:1005A0000020DB0342EA090558BF22EA0905CEF81C
:1005B0000050012550E700BF02B0BDE8F08F0000F9
:1005C0000069084018BF01207047000044F66C0025
:1005D000C2F200000068704790F83D20202A1CBF3E
:1005E00002207047242280F83D200268136823F01F
:1005F00001031360536A23F010035362536A1943D3
:100600005162116841F001011160202180F83D1014
:100610000020704790F83D20202A1CBF0220704720
:10062000242280F83D20026889B2136823F0010378
:100630001360D2F824C04FF6F07303EA0C03194399
:100640005162116841F001011160202180F83D10D4
:100650000020704770B5B8B3044690F83D0028B943
:10066000002084F83C00204600F0ECFA242084F8B6
:100670003D002068016821F001010160016841F43A
:1006800000410160016821F40041016000F0D6FCE6
:1006900048F28041C0F21E0140F60013D4F804E095
:1006A00088424FF00001C0F23D0348F2A16C4FF0C8
:1006B000000238BF01219842C0F2010C38BF01226C
:1006C000E64538BF0A460AB1012070BD4DF6836188
:1006D000C4F21B31A0FB01122168950C4B684FF44A
:1006E000967623F03F0343EA9243754344F6D3568C
:1006F0004B60C1F262060B6AA5FB0656B50923F0F2
:100700003F03E64538BF950C6A1C1A430A62CA6962
:1007100048F2A0664CF6FF73C0F20106B64522EA25
:1007200003020BD801384FEA4E03B0FBF3F001305F
:100730006FF31F30042898BF04201EE0A36801381F
:1007400063B119230EFB03F3B0FBF3F001306FF339
:100750001F3078B100F5804008E000BF0EEB4E037B
:10076000B0FBF3F001306FF31F3028B100F500400B
:1007700003E000BF012000E001201043C8610868C9
:10078000D4E9072320F0C0001043184308608868AC
:1007900048F2FF3204F10C0690434CCE184310434C
:1007A000A5698860C86820F0FF0030432843C8600E
:1007B000086840F00100086000202021206484F8CF
:1007C0003D10206384F83E0070BD00002DE9F04329
:1007D00081B01F46164688460446FFF7F7FE94F898
:1007E0003D10202920D1054620688169890717D549
:1007F000FFF7ECFE401B1928F6D9002020212063CA
:1008000084F83D1084F83E00216C022641F020015E
:10081000216484F83C00304601B0BDE8F08300BF9D
:1008200094F83C10012905D10226304601B0BDE8FC
:10083000F08300BF012184F83C100168C90703D18F
:10084000016841F001010160016821F4006101606B
:10085000212184F83D10102184F83E1000212164EC
:1008600066626785618D21850021CFF6FF71E162A7
:10087000E16A11F5803F18BF012919D1016841F4DF
:10088000807101604169DDF82090C90723D119F119
:10089000010116D0B9F1000F46D000BFFFF796FE58
:1008A000401B484542D820684169C907F6D012E08C
:1008B0000829E3D0216B1229E0D0E3E74169C90799
:1008C00009D14169C90706D14169C90704BF416916
:1008D0005FEAC171F2D02169B1F5804F02D1FE21EA
:1008E00061E000BF062101EAD811F03101614169E0
:1008F000090757D4416919F1010201F480612FD031
:10090000002946D1B9F1000F00F04281FFF75EFEE9
:10091000401B484500F23E8120684169090741D4E7
:1009200041694905F2D534E0FFF750FE002020214F
:10093000206384F83D1084F83E00216C012641F0CC
:1009400020012164216884F83C000868C00544BF88
:100950004FF400702064304601B0BDE8F08300BF62
:10096000B9B9416909071DD44169490511D44169E3
:10097000090717D4416949050BD44169090711D406
:100980004169490505D4416909070BD44169490505
:10099000E7D5016841F4007101606FF48061416145
:1009A0000420F8E0FF2101EA08010161416989079B
:1009B0003AD4416919F1010201F4806112D051BBAE
:1009C000B9F1000F00F0E080FFF700FE401B484542
:1009D00000F2DC8020684169890725D44169490516
:1009E000F2D518E0B9B9416989071DD441694905B3
:1009F00011D44169890717D4416949050BD441696C
:100A0000890711D44169490505D4416989070BD487
:100A100041694905E7D5016841F4007101606FF44F
:100A2000806141610420B6E0002600964169009192
:100A3000816900910099218D002900F0958009F1CC
:100A40000108014651F8142F120635D4B8F1000FF1
:100A500016D0B9F1000F00F0AF8000BF0868400564
:100A600000F1B280FFF7B2FD401B484500F2A980BB
:100A70002068014651F8142F1206EFD51CE000BF84
:100A80000A68520500F1A0800A68120614D40A68A8
:100A9000520500F199800A6812060DD40A685205C1
:100AA00000F192800A68120606D40A68520500F125
:100AB0008B800A681206E3D5636A194611F8012B88
:100AC00002616162618D01396185278D0146A7F15F
:100AD000010CA4F828C051F8142F52070DD55FEA75
:100AE0000C420AD05A78A7F1020C02619A1C626289
:100AF000628D013A6285A4F828C00A6852072FD493
:100B0000B8F1000F14D0B9F1000F7BD00868400590
:100B100000F18080FFF75AFD401B484577D82068D8
:100B2000014651F8142F5207F0D5B4F828C017E049
:100B30000A6852056ED40A68520711D40A68520531
:100B400068D40A6852070BD40A68520562D40A684E
:100B5000520705D40A6852055CD40A685207E7D5E3
:100B60005FEA0C417FF46DAF016841F400710160F0
:100B7000202084F83D0084F83E6084F83C603046D4
:100B800001B0BDE8F08300BFFFF720FD202002E0A8
:100B9000FFF71CFD202000212022216384F83D2046
:100BA00084F83E10226C01261043206484F83C1027
:100BB000304601B0BDE8F0830868400504D4FFF773
:100BC00005FD202004E000BF6FF480600860042071
:100BD00000212022216384F83D2084F83E10226CFD
:100BE0001043206484F83C10206C042825D1206830
:100BF0000126016841F400710160304601B0BDE892
:100C0000F08300BF0868400504D4FFF7DFFC202014
:100C100004E000BF6FF480600860042000212022FF
:100C2000216384F83D2084F83E10226C1043206438
:100C300084F83C10206C0428D9D00126304601B03D
:100C4000BDE8F083B0B586B0016845F20040C4F25B
:100C50000000814202D006B0B0BD00BF002443F6C0
:100C600030050194C4F20205296800F5D83041F03E
:100C700002012960296801F00201019101994FF4F4
:100C8000407101911221CDE9021403210491042144
:100C9000059101A9FFF7C0FB0094286940F40010FA
:100CA0002861286900F400100090009806B0B0BDDB
:100CB00040F2040044F66C01C2F20000C2F20001EE
:100CC00000780A68104408607047000080B543F659
:100CD0000040C4F20200016841F400710160016843
:100CE00041F480610160016841F48071016003207A
:100CF00000F0C4F80F2000F005F800F05DF80020C7
:100D000080BD0000B0B586B0002543F644010195D2
:100D1000C4F202010A68044642F001020A6009684E
:100D200001A801F0010101910199694600F066F9FD
:100D300000F098F94DF683614000C4F21B31A0FB2E
:100D400001014FF0FF3000EB914140F2781000229A
:100D5000C2F20000C4F2010240F2E733C0E9002110
:100D6000C0E902530561856100F084FB054618B1B6
:100D7000284606B0B0BD00BF40F27810C2F20000B5
:100D800000F0A8FB05460028F2D1192000F036F843
:100D90000F2C0DD8192021460022002500F042F822
:100DA00040F20800C2F200000460284606B0B0BD60
:100DB0000125284606B0B0BD82B0002043F64001B0
:100DC0000190C4F202014A6842F480424A604A68D3
:100DD00002F480420192019A00900868002240F0DB
:100DE0008050086008680F2100F080500090009843
:100DF0006FF0010002B000F015B80000002848BFF5
:100E00007047C1B200F01F00012202FA00F04EF25A
:100E10000012CEF2000242EAD10121F00301086083
:100E20007047000010B54EF60C5CCEF2000CDCF8FA
:100E30000030C3F3022E8EF00704042C28BF0424D4
:100E4000BEF103034FF0FF3E0EFA04F438BF002357
:100E5000A14399400EFA03F39A43114300F00F02A5
:100E600000F160430901043A03F564436244002839
:100E700048BF02F10C03197010BD00004EF60C5172
:100E8000CEF200010A684FF6FF031A4060F30A220F
:100E900042F0806040F0FD70086070472DE9F0413D
:100EA000002800F08B8043F60808C4F202080446CC
:100EB000D8F8F8030D4600F00F00884207D288F8F2
:100EC000F853D8F8F80300F00F00A84276D1206854
:100ED000810717D5410705D5D8F8001041F4E05136
:100EE000C8F80010010705D5D8F8001041F460419A
:100EF000C8F80010D8F80010A26821F0F0011143E2
:100F0000C8F80010C0073FD1D8F8F80300F00F0070
:100F1000A84207D988F8F853D8F8F80300F00F0072
:100F2000A8424BD12068410707D5D8F80010E268E5
:100F300021F4E0511143C8F80010000708D5D8F893
:100F40000000216920F4604040EAC100C8F80000B8
:100F500000F09CF8D8F8001045F6A822C1F3031160
:100F6000C0F60002515C40F20C0220FA01F140F29E
:100F70000800C2F200000068C2F200021160FFF730
:100F8000C1FE0020BDE8F0816068811E022907D201
:100F900058F8081C89015CBF0120BDE8F08111E010
:100FA000012807D158F8081C89035CBF0120BDE85F
:100FB000F08107E058F8081C890703D40120BDE838
:100FC000F08100BFD8F8001021F003010843C8F8F1
:100FD0000000FFF7FBFA064641F28837D8F8000018
:100FE000616800F00C00B0EB810F8DD0FFF7EEFAD6
:100FF000801BB842F2D90320BDE8F0810F220260C5
:1010000043F60802C4F20202136803F003034360CC
:10101000136803F0F0038360136803F4E053C360C4
:10102000D2F800C04FF4E05303EADC030361D2F8C6
:10103000F80300F00F0008607047000040F20C0059
:1010400043F60801C2F20000C4F202010068096818
:1010500045F6B822C1F38221C0F60002515CC840B7
:101060007047000040F20C0043F60801C2F2000095
:10107000C4F202010068096845F6B822C1F34231A2
:10108000C0F60002515CC8407047000010B543F63E
:101090000404C4F20204606800F00C0142F2004053
:1010A0000829C0F2F40007D0042918BF10BD41F28E
:1010B0000020C0F27A0010BD216801F03F022168D3
:1010C00023684902C3F3881106D4A1FB0001002361
:1010D000FFF788F807E000BF41F20020C0F27A0075
:1010E0004843B0FBF2F021680222C1F3014102EB58
:1010F0004101B0FBF1F010BD2DE9F04182B00028B4
:1011000068D00446007843F60006C007C4F2020621
:101110000BD0B06800F00C00042840F09F803068CD
:10112000800302D56068002854D0207880071AD543
:10113000B06810F00C0F09D0B06800F00C0008285F
:1011400040F0A6807068400200F1A28030688007FD
:1011500002D5E06801283DD13068216920F0F8000F
:1011600040EAC10030602078000737D4207840077B
:101170004CD4A56955B3B06800F00C00082840F0C5
:10118000BB80012D26D07068E16900F480028A429C
:1011900020D1216A00F03F028A421BD147F6C0717C
:1011A000626A0140B1EB821F14D1A16A4FF6FF734E
:1011B000C903994300F44032A1F580318A4209D134
:1011C000E16A00F07060B0EB016F03D1002002B063
:1011D000BDE8F081012002B0BDE8F081606900281F
:1011E00040F20000C4F2472076D00121C0F8801EF2
:1011F000FFF7ECF9054600BF706F8007B6D4FFF724
:10120000E5F9401B0228F7D9DDE000BF306C10F093
:1012100080580AD100200190306C40F0805030643A
:10122000306C00F080500190019847F20007C4F242
:1012300000073868C00541D4386840F480703860D1
:10124000FFF7C4F9054600BF3868C00536D4FFF77C
:10125000BDF9401B0228F7D9B5E000BFB06800F027
:101260000C00082803D1706840023FF558AF606851
:10127000B0F5803F07D0B0F5A02F40F08D803068EA
:1012800040F480203060306840F4803030608DE081
:10129000E068002852D00020C4F2472001210160FC
:1012A000FFF794F9054600BF306880073FF554AF5B
:1012B000FFF78CF9401B0228F6D984E0A0680128CA
:1012C00005D005284ED1306F40F004003067306FF4
:1012D00040F0010030674FE00021C0F8801EFFF7AA
:1012E00075F90546706F80077FF540AFFFF76EF91F
:1012F000401B0228F6D966E00027C4F247270020E9
:101300003866FFF763F9022D05460BD1306880017E
:101310005ED5FFF75BF9401B02284FF00300F5D9BB
:1013200055E700BF306880017FF550AFFFF74EF9F9
:10133000401B02284FF00300F4D948E70020C4F214
:10134000472000210160FFF741F90546306880071A
:101350007FF509AFFFF73AF9401B02284FF0030071
:10136000F4D934E7316F002821F001013167316F82
:1013700021F0040131674DD0FFF728F9054641F20D
:10138000883700BF306F800756D4FFF71FF9401B26
:10139000B842F7D917E000BF3168002821F4803146
:1013A0003160316821F4802131604FD0FFF70EF9B0
:1013B000054600BF306880033FF5B7AEFFF706F97A
:1013C000401B6428F6D9032002B0BDE8F08100BFBD
:1013D00004F11C052FCD084340EA8210D9034FF6D3
:1013E000FF729143A1F5803140EA056008437060C7
:1013F00001203866FFF7EAF8044600BF3068800134
:101400003FF5E4AEFFF7E2F8001B02284FF00300BF
:10141000F4D9DCE6FFF7DAF8054641F2883700BF79
:10142000306F800708D5FFF7D1F8401BB8424FF066
:101430000300F5D9CBE600BFB8F1000F7FF499AEF9
:10144000306C20F08050306493E600BFFFF7BEF8A8
:10145000054600BF306880037FF567AEFFF7B6F83A
:10146000401B64284FF00300F4D9B0E67047000039
:1014700070470000002804BF0120704710B50446E3
:1014800090F83D0028B9002084F83C00204600F088
:101490001FF8022084F83D002068211D00F01AFB8F
:1014A000012084F8460084F83E0084F83F0084F868
:1014B000400084F8410084F8420084F8430084F836
:1014C000440084F8450084F83D00002010BD000071
:1014D0007047000090F83D1001291CBF01207047A3
:1014E000022180F83D10006841F2FF72C168C4F229
:1014F0000002904241F00101C1600DDC40F2FF7139
:10150000C4F20001884215DCB0F1804F2AD040F2CD
:101510000041C4F2000123E040F2FF31C4F20101B6
:10152000884213DC41F60001C4F20001884219D060
:10153000002113E040F60001C4F20001884211D0FE
:1015400040F60041C4F200010AE000BF44F200018D
:10155000C4F20101884205D040F20041C4F2010109
:10156000884206D1816801F00701062904BF0020E6
:101570007047016841F001010160002070470000E0
:101580007047000010B5016804460869800744BF31
:10159000C8685FEA807039D40869400744BFC868EA
:1015A0005FEA40703ED40869000744BFC8685FEA3C
:1015B000007045D40869C00644BFC8685FEAC060CF
:1015C0004AD40869C0071CBFC8685FEAC07051D11F
:1015D0000869000644BFC8685FEA006052D4086921
:1015E000400644BFC8685FEA406053D4086980067B
:1015F00046BFC8685FEA806010BD6FF020022046D9
:101600000A61BDE81040FFF733BF00BF6FF0020072
:101610000861012020778869800743D02046FFF7C2
:10162000AFFF45E06FF00400086102202077886971
:1016300010F4407F40D02046FFF7A2FF42E000BFF9
:101640006FF00800086104202077C86980073DD04A
:101650002046FFF795FF3FE06FF01000086108207B
:101660002077C86910F4407F3AD02046FFF788FF02
:101670003CE000BF6FF001000861204600F03EF83A
:101680002168A5E76FF0800008612046FFF7EEFEB5
:101690002168A4E76FF040000861204600F038F8A8
:1016A0002168A3E7204600F025F8204600F024F842
:1016B0002168002020776FE7204600F01BF82046C5
:1016C00000F01AF82168002020776CE7204600F02F
:1016D00011F8204600F010F821680020207769E713
:1016E000204600F007F8204600F006F821680020A8
:1016F000207766E77047000070470000006800210F
:10170000C4F20101884218BF7047FFF7D1BA000048
:1017100070470000002804BF0120704710B5044640
:1017200090F83D0028B9002084F83C00204600F0E5
:1017300021F8242084F83D002068C16821F400517C
:10174000C160204600F064FA2068016921F49041EC
:101750000161416921F02A014161C16841F40051F0
:10176000C16000202021206484F83D1084F83E10E0
:1017700010BD000080B586B0016844F60000C4F2D8
:101780000000814202D006B080BD00BF002143F6B8
:1017900030020191C4F20202136900F5E23043F411
:1017A00080231361136903F480230193019B01914A
:1017B000136843F008031360126802F008020192F4
:1017C000019A4FF4407201920222CDE902210321D5
:1017D00004910721059101A9FEF71EFE06B080BD08
:1017E000FEE7000080B586B0002043F63001CDE969
:1017F00004000090C4F202010A6842F010020A607C
:101800000A6802F010020092009A00900A6842F002
:1018100080020A600A6802F080020092009A00903A
:101820000A6842F008020A600A6802F008020092A0
:10183000009A00900A6842F001020A600A6802F009
:1018400001020092009A00900A6842F002020A60C7
:10185000096801F0020100910099182101914FF4EB
:101860008811CDE9021041F20000C4F2020001A982
:10187000FEF7D2FD092005210022FFF7D3FA092047
:10188000FFF7BCFA0A2005210022FFF7CBFA0A2055
:10189000FFF7B4FA06B080BD80B540F2241045F2DF
:1018A0000041C2F20000C4F2000141F68022002390
:1018B0004FF4804CC0F2060280E80E00C0E9033C01
:1018C000C0E90533C0E90733FEF7C4FE002818BF9E
:1018D000FEF71AFD40F22410C2F200000021FEF7CC
:1018E0007BFE002818BFFEF70FFD40F22410C2F265
:1018F00000000021FEF78EFE002808BF80BDBDE875
:101900008040FEF701BD000080B540F2C01044F6F3
:101910000001C2F20000C4F2000100234FF00C0CE1
:101920004FF4E13280E80E00C0E90333C0E905C39B
:10193000C361FFF7EFFE002808BF80BDBDE880400F
:10194000FEF7E2BCFEE70000FEE70000000000003A
:10195000EFF30980BFF36F8F154B1A681EF0100F5D
:1019600008BF20ED108A20E9F04F10602DE9090032
:101970004FF0500080F31188BFF34F8FBFF36F8F8C
:1019800003F0B8F84FF0000080F31188BDE80900BB
:1019900019680868B0E8F04F1EF0100F08BFB0ECEF
:1019A000108A80F30988BFF36F8F704700BF00BFB4
:1019B00020000020000000000000000000000000E7
:1019C000074B19680868B0E8F04F80F30988BFF347
:1019D0006F8F4FF0000080F31188704700BF00BF89
:1019E0002000002080B54EF21000CEF2000000680A
:1019F00003F0BEFD012808BF80BDBDE8804003F0B4
:101A000099B90000B0B592B0002443F64000CDE98A
:101A10000A44CDE908440594CDE90344CDE90144E5
:101A20000094C4F202000168022541F08051016077
:101A3000006800F080500090009847F20000009489
:101A4000C4F20000016841F440410160006800F404
:101A5000404000900098012006904FF4803007909D
:101A60004FF480000D9004200E90A820CDE90F05C2
:101A70000720119006A80C95FFF73EFB20B1EFF36D
:101A8000108072B6FEE700BF0F20CDE901054FF4CC
:101A9000A05004904FF48050059001A805210394B4
:101AA000FFF7FCF920B1EFF3108072B6FEE700BF3C
:101AB00012B0B0BD4EF68850CEF20000016841F47D
:101AC000700101607047000040F27810C2F200001F
:101AD000FFF758BD10B540F6FF3E0368C4F2000E94
:101AE00040F2004C7045C4F2010C27DCB0F1804F8D
:101AF00031D040F20042C4F2000290422BD040F6B6
:101B00000002C4F20002904225D041F6FF72C4F2F6
:101B10000002904229DC70453CDCB0F1804F5FD080
:101B200040F20042C4F20002904259D040F6000256
:101B3000C4F20002904253D056E000BF40F600428B
:101B4000C4F20002904206D0604504D00022C4F2E4
:101B500001029042D9D14A6823F07003134341F641
:101B6000FF72C4F200029042D5DD43F6FF72C4F268
:101B70000102904222DC42F20002C4F200029042D2
:101B80002ED00022C4F20102904229D0604527D015
:101B90002AE000BF40F60042C4F2000290421FD08B
:101BA00041F60002C4F20002904219D041F6004210
:101BB000C4F20002904213D016E000BF44F20002CB
:101BC000C4F2010290420BD044F60002C4F20102BA
:101BD000904205D044F20042C4F20102904203D187
:101BE000CA6823F44073134323F080024B69D1F891
:101BF00000E08C681A430260C46240F48062C0F85E
:101C000028E0624504BF096901630121416110BDFB
:101C100010B504460068D4E902C22369016921F4C1
:101C2000405111430161626943EA0C01E3691143C8
:101C3000C268194349F20C639A431143C160416978
:101C4000A26921F4407141F20043114340F48062E3
:101C5000C4F201039A42416102D1FFF703FA01E0A5
:101C6000FFF7ECF9E16963681922B1F5004FA0FBB9
:101C7000020123D15A00DB0FFEF7B4FA48F21F51DC
:101C8000C5F2EB11A0FB01235A094FF69C73C0F675
:101C9000FF7303F1805302FB0300322303EBC00008
:101CA000A0FB01014FF4F87000EA111000EB0210E4
:101CB000C1F3421108442168886010BD9A009B0F4F
:101CC000FEF790FA48F21F51C5F2EB11A0FB012379
:101CD0005A094FF69C73C0F6FF7302FB03003223D0
:101CE00003EB0010A0FB0101F02000EA511000EB13
:101CF0000210C1F3431108442168886010BD000040
:101D0000FEE7000044F60001C4F200010A68520632
:101D100009D40A6852065CBF0A685FEA426202D4CC
:101D20000A685206F2D5C2B24A60704782B0FEF726
:101D3000CDFFFFF767FEFFF755FDFFF7ADFDFFF79E
:101D4000E3FD032001210022012503F00BF840F2FE
:101D50001804C2F2000444F8040B42F65D00C0F619
:101D6000000006A14FF4007200230095019403F0D7
:101D700093FB02F03FFE00BFFEE700BF4F4C45441F
:101D8000000000002DE9F041044602F0F7FB40F2AC
:101D90002006C2F20006F06840F2F4250130F0603F
:101DA0003068C2F2000558B13069002840F0078160
:101DB0003068E16AC06A884298BF3460FFE000BFC3
:101DC0003460F068012840F0FA80284602F07CFB7D
:101DD00005F1140002F078FB05F1280002F074FB15
:101DE00005F13C0002F070FB05F1500002F06CFBC5
:101DF00005F1640002F068FB05F1780002F064FB75
:101E000005F18C0002F060FB05F1A00002F05CFB24
:101E100005F1B40002F058FB05F1C80002F054FBD4
:101E200005F1DC0002F050FB05F1F00002F04CFB84
:101E300005F5827002F048FB05F58C7002F044FB5A
:101E400005F5967002F040FB05F5A07002F03CFB32
:101E500005F5AA7002F038FB05F5B47002F034FB0A
:101E600005F5BE7002F030FB05F5C87002F02CFBE2
:101E700005F5D27002F028FB05F5DC7002F024FBBA
:101E800005F5E67002F020FB05F5F07002F01CFB92
:101E900005F5FA7002F018FB05F5027002F014FB6C
:101EA00005F5077002F010FB05F50C7002F00CFB55
:101EB00005F5117002F008FB05F5167002F004FB41
:101EC00005F51B7002F000FB05F5207002F0FCFA2E
:101ED00005F5257002F0F8FA05F52A7002F0F4FA1B
:101EE00005F52F7002F0F0FA05F5347002F0ECFA07
:101EF00005F5397002F0E8FA05F53E7002F0E4FAF3
:101F000005F5437002F0E0FA05F5487002F0DCFADE
:101F100005F54D7002F0D8FA05F5527002F0D4FACA
:101F200005F5577002F0D0FA05F55C7002F0CCFAB6
:101F300005F5617002F0C8FA05F5667002F0C4FAA2
:101F400005F56B7002F0C0FA05F5707002F0BCFA8E
:101F500005F5757002F0B8FA05F57A7002F0B4FA7A
:101F600005F57F7002F0B0FA05F5826002F0ACFA78
:101F700005F2244002F0A8FA05F5876002F0A4FA01
:101F800005F24C4002F0A0FA40F2FC08C2F2000850
:101F9000404602F099FA08F11407384602F094FA24
:101FA00006F1640002F090FA06F13C0002F08CFAAF
:101FB00006F1500002F088FAC6F81C80376270689B
:101FC000716A421CE06A72608842626488BF706213
:101FD00000EB800005EB8000211D02F0B7FA02F053
:101FE000F1FA306988B13068E16AC06A884228BF76
:101FF000BDE8F0814EF60450CEF200004FF0805163
:102000000160BFF34F8FBFF36F8FBDE8F081000019
:1020100040F2200540F2F4264EF60458C2F20005C4
:10202000C2F20006CEF200084FF0805703E000BF76
:10203000204602F0DFFAA868D0B102F09FFAA86C3F
:10204000C468201D02F012FAE8680138E860A86848
:102050000138A86002F0B6FA94F859000228EAD0D4
:102060000128E5D070B9206B02F0C4FAE0E700BFA8
:1020700030680228DFD3C8F80070BFF34F8FBFF37A
:102080006F8FD8E74FF0500080F31188BFF36F8F48
:10209000BFF34F8FFEE700002DE9F0470A9C824610
:1020A000206B16460F46DDE908599100A522984697
:1020B000FEF7DBF8206B002F00EB8600A0F1040098
:1020C00020F0070656D0387884F834003878002895
:1020D0004BD0787884F835007878002845D0B878E7
:1020E00084F83600B87800283FD0F87884F83700B4
:1020F000F878D0B3387984F838003879A8B378798B
:1021000084F83900787980B3B87984F83A00B879DE
:1021100058B3F87984F83B00F87930B3387A84F80A
:102120003C00387A08B3787A84F83D00787AE0B1D8
:10213000B87A84F83E00B87AB8B1F87A84F83F00EB
:10214000F87A90B1387B84F84000387B68B1787BAE
:1021500084F84100787B40B1B87B84F84200B87BBA
:1021600000281CBFF87B84F84300002084F843005B
:1021700003E000BF002084F834000027201D372D25
:1021800028BF3725E562C4E9135702F0A9F904F125
:10219000180002F0A5F9C5F13800A061304651469B
:1021A000424624616462676584F8587000F042FB1F
:1021B000B9F1000F206018BFC9F80040BDE8F087F2
:1021C00008480068006880F308884FF0000080F33A
:1021D000148862B661B6BFF34F8FBFF36F8F00DF15
:1021E00000BF000008ED00E081B00020009040F248
:1021F0001000C2F2000000684FF0500181F3118816
:10220000BFF36F8FBFF34F8F013007D0FEE700BFE2
:10221000009830B9009820B9009810B900980028AB
:10222000F6D001B07047000088B040F2980AC2F2C0
:10223000000A0DF11009EB46DAF8080005681DB137
:10224000C068046801E000BF002402F04BFC03F00A
:102250009FF9DAF810100646884220D3002DCAF8FC
:10226000106051D0A6424FD303F09AFADAF8080072
:10227000C068C7683D1D284602F0F8F897F82800A6
:10228000410745D400F0FE0087F8280084E000BF35
:102290006860DAF8080039462D6102F025F9DAF8AD
:1022A0000800016831B3C068C56804682F1D38464E
:1022B00002F0DCF8296A2846884795F8280040078C
:1022C000EDD5A8692044A042E2D8DAF80000002841
:1022D00000F04881002004A931C103F049F9DAF87F
:1022E000000049460022002302F0F0FD0028D6D16C
:1022F00038E100BFDAF80C10CAF81060CAE9021021
:1023000003F04EFA1AE100BF65B1002210E000BFF1
:10231000B8693F610119B14279601FD90AF108001B
:1023200021E000BFDAF80C000068B0FA80F0420942
:10233000DAF80000A11B02F069FA03F031FA002874
:1023400040F0FC804EF60450CEF200004FF0805179
:102350000160BFF34F8FBFF36F8FEFE0311B8142FE
:1023600006D20AF10C000068294602F0BDF813E01D
:10237000DAF80000002800F01381002004A991C1C0
:1023800003F0F6F8DAF8000049460022002302F0D4
:102390009DFD002800F00481396A38468847CDE069
:1023A0000098B0F1FF3F07DCDDE901200399904779
:1023B0000098002800F1C280029E706910B1301DA3
:1023C00002F054F803F0E4F8DAF8101007468842F7
:1023D0000DD30098CAF8107009283FD9AEE000BFAD
:1023E0006860DAF8080021462D6102F07DF8DAF81D
:1023F0000800016841B3C068C568D0F800802C1D92
:10240000204602F033F8296A2846884795F82800C4
:102410004007ECD5A86940444045E1D8DAF800000F
:10242000002800F095800020CDE90408069503F00F
:102430009FF8DAF8000049460022002302F046FD2A
:102440000028D4D184E000BFDAF80C10CAE90210E9
:102450000098CAF81070092800F27080DFE800F0D8
:102460000606064448620606444800BF96F828005F
:10247000019A40F00101B06986F8281083183146AE
:1024800041F8043FBB42366106D997420AF1080081
:1024900007D293420AD204E0BA1A824206D20AF163
:1024A0000C00006802F020F848E000BF316A3046B6
:1024B000884796F82800400740D5DAF80000002841
:1024C0005AD00198B169069608440021CDE904105C
:1024D00003F04EF8DAF8000049460022002302F02B
:1024E000F5FC58BB48E000BF96F8280022E000BF8A
:1024F00096F8280040F00101019886F8281000287D
:10250000B06143D0384431460AF10C0241F8040F5F
:102510003661B84288BF0AF10802106801F0E4FF92
:102520000CE000BF96F82800810703D4304602F083
:1025300061F803E000F0FE0086F82800DAF80000F9
:102540005946002202F084FE00287FF429AF73E68A
:102550004FF0500080F31188BFF36F8FBFF34F8FA0
:10256000FEE700BF4FF0500080F31188BFF36F8F7C
:10257000BFF34F8FFEE700BF4FF0500080F311888C
:10258000BFF36F8FBFF34F8FFEE700BF4FF05000D8
:1025900080F31188BFF36F8FBFF34F8FFEE700BF4B
:1025A0004FF0500080F31188BFF36F8FBFF34F8F50
:1025B000FEE70000F0B581B0044601F0DFFF94F9BA
:1025C0004560012E0FDB04F1240500BF286850B1DF
:1025D000284603F0ABF8002818BF02F08BF9F0B2E0
:1025E000013E0128F2D8FF2684F8456001F0EAFF99
:1025F00001F0C4FF94F94470012F0EDB04F11005C3
:10260000286850B1284603F091F8002818BF02F05E
:1026100071F9F8B2013F0128F2D884F8446001B0A2
:10262000BDE8F04001F0CEBF70B5044602F05AFAA2
:1026300040F2D40CC2F2000CDCF8040050B19CF85B
:102640000000002818BF4FF000404FF0000574BB99
:102650008DE000BF40F66A40C2F20000C21D22F0C9
:10266000070210F00701A0EB020318BF104600227A
:102670004FF47055CCE90602002918BF03F57055D8
:10268000411921F00701A1F10803CCF8043041E918
:102690000222191AC0E9003101208CF800004FF025
:1026A0000040CCE90211002C4FF000055FD0204023
:1026B0005DD124F0070000F11002600708BF04F1AB
:1026C0000802002A4FF0000551D0DCF808008242D1
:1026D0004DD8604650F818EFDEF8045095422CD2E1
:1026E000DEF80010C1B174464D68954218D20B68EF
:1026F000B3B15D68954217D21868A8B14568954294
:1027000016D20468A4B16568954215D22168A64620
:102710000029E9D111E000BF0CF118000DE000BF65
:102720008E46204609E000BF9E46084605E000BFF1
:102730008646184601E000BFA646DCF804108E4528
:1027400014D00168DEF80040AB1A112B04604DD3A1
:102750000EEB0205680719D04FF0500080F3118886
:10276000BFF36F8FBFF34F8FFEE700BF002503F06D
:1027700017F868075BD04FF0500080F31188BFF363
:102780006F8FBFF34F8F00BFFEE700BF0CF1180043
:102790006B60CEF8042000BF0368AB420AD2186811
:1027A000A8420BD20368AB4204D218681A46A8426A
:1027B000F2D304E00246184601E000BF1A4653680F
:1027C0006C68D618AE4202D11C44154654602B19D1
:1027D000834207D1DCF80430984203D0D0E90003EB
:1027E00023446B60AA42286018BF156001F10805F8
:1027F000DEF80400DCE90212091A9142CCF8081054
:1028000038BFCCF80C109CF80010002918BF40F01D
:102810000040CEF80400DCF8100000210130CEF8B2
:102820000010CCF8100002F0BBFF6807A3D12846C7
:1028300070BD0000034642F2E910C0F600004FF000
:10284000807C21F0010103E903106FF0020043F8DE
:10285000240CA3F1440043F8202C70478AB040F2C6
:102860005474C2F20004204600F014F9204600F02F
:102870002DF9204600F036F945F6DC61C0F600017E
:10288000204600F0E5FB09208DF827003420089051
:1028900043F23130C3F23150079043F2421040F21C
:1028A000180945F6C76AC3F63010C2F200090DF1E7
:1028B00027054026C0F6000A0DF10E080DF1180B91
:1028C000069014E0204600F001F945F6C0272046A6
:1028D000002100224023C0F600070096019700F077
:1028E000A1FA204600F09CFBC82001F0B9FFD9F8FE
:1028F00000002946002202F0ABFC9DF827000228C8
:1029000062D00128DED0002878D1204600F0DEF821
:1029100020460821182206230F26009600F01CF9F5
:102920004046002152465B4603F00CF84046012128
:1029300052465B4603F006F84046022152465B468B
:1029400003F000F84046032152465B4602F0FAFFCE
:102950004046042152465B4602F0F4FF4046052102
:1029600052465B4602F0EEFF4046062152465B4669
:1029700002F0E8FF4046072152465B4602F0E2FFC4
:102980004046082152465B4602F0DCFF40460921E2
:1029900052465B4602F0D6FF204612211E224346D5
:1029A00000F038FA204612212322672323270097BC
:1029B00000F0A6F920466E21182206230096402634
:1029C00000F0CAF88DE700BF204600F07FF82046EF
:1029D00046210A2228A300F01DFA204646211E2285
:1029E00027A300F017FA45F6C047009620460021BD
:1029F00000224023C0F6000770E700BF204600F029
:102A000065F845F6C065C0F60005204628211C2261
:102A10002B4600F0FFF9204600211E2280230F27BD
:102A2000009700F06FF802987F280BDC00F1040992
:102A300020461E21142214A300F0ECF9CDF80890D2
:102A400008E000BF204628211C222B4600F0E2F9B6
:102A50004FF080091FFA89F3204600211E220F271C
:102A6000009700F04FF840F21809C2F200090DF18A
:102A70002705402635E700BF7363616E0000000044
:102A80007172636F646500006C6F616469672E2EFC
:102A90002E00000010B545F6D06143F6E55244F231
:102AA0003D33C0F60001C0F60002C0F60003044644
:102AB00000F072FB204601F03DF92046002101F0B4
:102AC00045F92046BDE81040AFF3008080B50168AD
:102AD00090F83820097C406B5143C900FDF7CCFBCE
:102AE00080BD000010B5044600F02EFA204600F02C
:102AF00073FA0028FAD120460021BDE8104000F00A
:102B000099BA00002DE9F04381B0089C0E460746B3
:102B10005818A11898461FFA81FC83B238463146EE
:102B20001546CDF800C000F023FA002C18BF00288D
:102B30000FD04FF0000900BFAAB2384631464346D5
:102B4000CDF8009000F056F8013C200405F1010595
:102B5000F2D101B0BDE8F0832DE9F04F85B0144605
:102B60005F1C9B46CE1AD21A04917B1839198FB27A
:102B7000B1B292B29BB20390009700F0F9F9A8B3FA
:102B80000E98049BCDE90040039800215A46002688
:102B900000F04AFBBBF1000F28D0A6EB4B0ACBF1AB
:102BA00001084FF0010902940FFA88F0B0F1FF3FDD
:102BB0006FEAE030834406F101060FFA89F00AF16A
:102BC0000201C4BF88448A4600F1020900941FFA3A
:102BD0008BF7B5B20398049B0E9C29463A46C8442D
:102BE000019400F021FB029CBD42DDD305B0BDE89D
:102BF000F08F000070B582B0002B00F07F8090F85D
:102C00008CC0BCF1000F79D0DDF818C0022B09D3BD
:102C1000BCF1030F3AD0BCF1020F03D1C91A013144
:102C200003E000BF5FEACC7C32D1B0F84CC09445E1
:102C300064D8B0F84EC0944560D9B0F848C0B0F838
:102C40004AE013FA81F48BB2A5B27345664638BFE9
:102C50000E46A54208BF0E4673452346B1B238BFA3
:102C6000AEF10103A54208BF2B46714546D29BB287
:102C7000634543D9614588BF8C46734538BF9E463E
:102C8000AEEB0C034FF0000E614631E0D21A013278
:102C9000B0F848608E4231D8B0F84A608E422DD9E3
:102CA000B0F84CC0B0F84EE013FA82F493B2A5B27B
:102CB0007345664638BF1646A54208BF164673459B
:102CC0002346B2B238BFAEF10103A54208BF2B467E
:102CD000724513D29BB2634510D9624588BF9446B2
:102CE000734538BF9E46AEEB0C034FF0010E6246B3
:102CF000066B9BB2B668CDF800E0B04702B070BD7D
:102D00002DE9F04F81B00A9FB3EB010A38BFA1EB68
:102D1000030ABD1A1FFA8AFC38BFD51BAEB266453E
:102D2000804609D910463A46A94690420CD8074633
:102D30000C461046194609E0084611461A463B461D
:102D4000D146AA469042F2D917461C46A1424FF0FE
:102D5000FF3B4FF6FF714FF0FF3288BF4FF0010B82
:102D6000884208BF501E85B2AF4227D81FFA89F0AB
:102D700066454FEA500611D9A1B2BAB2404600F0FA
:102D800021F8A6EB0A0630B201370028B8B244BFDA
:102D90005C444E44A842EFD910E000BFB9B2A2B2E1
:102DA000404600F00FF8A6EB0A0630B201370028C3
:102DB000B8B244BF5C444E44A842EFD901B0BDE86C
:102DC000F08F000080B582B0B0F84C3093421FD82D
:102DD000B0F84E3093421BD9B0F848308B4217D828
:102DE000B0F84AC08C4513D990F88C3083B14B1C95
:102DF000D0F830E09BB2634538BF9C46DEF808E06F
:102E0000ACEB01034FF0000C9BB2CDF800C0F047D3
:102E100002B080BD43F6955CC0F6000CC0F804C05B
:102E200000F07EBA2DE9F04F89B0129C0546581883
:102E3000174622441FFA80FB984696B228463A4627
:102E40005B460791009600F093F8002818BF002C0D
:102E500002D109B0BDE8F08FB8F1000F5CD008F1E5
:102E60000700139E80B2C0080390CDE9018B0BE0F0
:102E7000DDE9018BDDE9046485F892A00398013C4B
:102E8000069F06442004E4D0781C1FFA87F90799AE
:102E900095F892A006901FFA80FC28464A465B46A9
:102EA000CDF800C000F064F80028E7D00594BAFA25
:102EB0008AF03146079C40094FF0010B4646884690
:102EC000089004911BE000BF85F89200A1B228464B
:102ED0004A46012300270097FFF78CFE1BF07F0076
:102EE0004FF4FF7000EA4B0BA6F1010604F1010458
:102EF00004BF08F101084FF0010B3004B8D098F876
:102F000000001BEA000F5046DED195F89100002822
:102F10000898E3D1D8E700BF07F10109079995F8B0
:102F200092801FFA89F6BAB228465B46009600F0F6
:102F30001FF80028A4F1010418BF85F8928020042E
:102F40004F46E9D185E7000010B5044690F893009C
:102F500040B1206894F83820017C606B5143C9006F
:102F6000FDF78AF920460021BDE8104000F062B864
:102F700010B5B0F84E40DDF808C0B0F84CE094420F
:102F800006D962450AD8E64524BF002010BD05E0F9
:102F900062454FF000021DD9E6451BD2B0F84A2029
:102FA000B0F848008A420BD9002299424FF0000144
:102FB00088BF0121984238BF012241EA020010BDBA
:102FC000002299424FF0000188BF0121984238BF8A
:102FD00001220A40104610BDB0B5044600F008FEBC
:102FE00094F8392094F83800216802444B7CD5B21B
:102FF0009D420FD294F893202AB1097C4143606B23
:10300000C900FDF739F92046294600F013F80120E0
:10301000B0BD00BF204600F093FE0020B0BD000010
:1030200010B5044600F0E4FD2046BDE8104000F075
:1030300087BE000010B50446006B84F839100268A2
:1030400020469047206B41682046BDE81040084765
:103050002DE9F04F81B00446806D88425DD0A165B6
:1030600008780D4684F87400487884F875008878EC
:1030700084F87600C87884F87700087984F87800B6
:10308000487984F87900887984F87A00C87984F8D6
:103090007B00087A84F87C00487A84F87D0091F9F6
:1030A0000A9084F87E90C87A84F87F0091F90C80A9
:1030B000084684F8808091F90D7084F8817091F948
:1030C0000E6084F8826091F90FB084F883B091F9B2
:1030D00010A0112184F884A000F042FCA4F886001E
:1030E0002846132100F03CFCA4F88800284615214E
:1030F00000F036FCA4F88A0094F88D0084F88E70F5
:1031000084F88F6048B101280AD15F45B8BF84F8C0
:103110008EB0564501DD84F88FA001B0BDE8F08F78
:1031200008EB0900B842C8BF84F88E004645C24685
:10313000C8BF84F88FA001B0BDE8F08F43F2114101
:10314000C0F60001C1657047B0B50446049884F824
:10315000382040F20112A4F8922002680025C4E948
:103160000B302046A56584F8395084F86D5084F8FA
:10317000915084F88D50616390470020CFF6FF7026
:10318000216B206560654968204688472046FFF727
:10319000D5FF84F87050B0BDB0B582B09C461346E0
:1031A0000C4644F2F11143F6B972C0F60001C0F6C4
:1031B00000020546CDF800C000F0CEFD0DF107007D
:1031C00000F00EFD9DF8072043F669130146C0F696
:1031D000000328460094FFF7B7FF02B0B0BD00001F
:1031E000022B07D0012B09D0002B14BF1044084438
:1031F00080B27047401A80B2704700BF801A80B218
:1032000070470000022B07D0012B09D0002B14BF00
:10321000401A104480B27047801A80B2704700BFD5
:10322000084480B2704700002DE9F04381B0DDE929
:103230000845984616468946E90707462ED1A8074D
:103240003FD4280710D508EB0900A21981B292B229
:103250003846FFF7B7FD08EB060004EB090281B220
:1032600092B23846FFF7AEFD68075CBF01B0BDE81B
:10327000F083A8EB0900A21981B292B23846FFF799
:10328000A1FDA8EB060004EB090281B292B2384618
:1032900001B0BDE8F043FFF795BD00BF08EB0900A2
:1032A000A21B81B292B23846FFF78CFD08EB0600F4
:1032B000A4EB090281B292B23846FFF783FDA8075A
:1032C000BFD5A8EB0900A21B81B292B23846FFF726
:1032D00079FDA8EB0600A4EB090281B292B2384650
:1032E000FFF770FD2807BFD5ADE7000010B582B02D
:1032F000B0F83EE0DDF810C0C46AA2EB0E0292B254
:10330000CDF800C0A04702B010BD000080B582B06B
:10331000DDF810C0CDF800C0FFF7E8FF02B080BDB7
:103320002DE9F04F81B01F4692460D4606464FF6F6
:10333000FF7801F097F87268397830469047404539
:103340005ED0A8F101017C1C4FF000091FFA81FB3F
:1033500008E000BF8144726814F8011B30469047B2
:1033600040454FD087B25F45F5D096F87020504663
:10337000032A29461DD8DFE802F003090F1700BF12
:10338000F16D304688475044294612E0F16D3046D1
:103390008847291A0CE000BFF16D30468847AAEB38
:1033A0000000294605E000BFF16D3046884741190D
:1033B0005046A6F86410A6F866003046394600F07C
:1033C00069FA48B10146304600F024F896F87010CA
:1033D000032906D9BEE700BF002096F87010032924
:1033E000B8D8DFE801F007090B0300BFAAEB000A19
:1033F000B0E700BF0544ADE78244ABE72D1AA9E76B
:103400004FF000091FFA89F001B0BDE8F08F00000D
:10341000002070472DE9F04F8BB0834601660020F5
:103420008BF86C009BF878000B784FF0FF3208287F
:1034300031BF05460131CBF86010A0F1080502FA52
:1034400000F023EA00009BF879308BF86C508BF881
:103450006A005F190E78FCB2082CECB226FA04F66A
:103460000AD34C1CCBF86040C5F108054978EDB291
:10347000A9400E43083F21469A409BF8923026EA25
:10348000020203928BF86B209BF87A208BF86E3047
:10349000B3FA83F35B098BF86C708BF86F30BC1850
:1034A0000B78E6B2082EFEB223FA06FC0BD34E1CB4
:1034B000CBF86060C7F108074978FFB2B9404CEA21
:1034C000010C083C31469BF87B708BF86C403D1931
:1034D0000E78EBB2082BE3B226FA03F60AD3C4F156
:1034E00008034C1CCBF860404978DBB299400E438E
:1034F000083D21469BF87CA04FFA80F98BF86C5070
:103500000AEB05000B78C4B2082CECB223FA04F3E2
:1035100012D31C46C5F108034D1CCBF86050497806
:10352000DBB299400C4308380294B9F1010F8BF8D3
:103530006C0008DA9EE100BF0293B9F1010F8BF82D
:103540006C00C0F29781511E4FF0FF30C9B27B1E54
:1035500000FA02F200FA01F1B840DBB201272CEACE
:10356000020207FA03F3039F114426EA00023A44D9
:103570009A1A9BF87060BBF8640057B24DB22946A6
:103580003A463346FFF72CFE8046BBF866002946D4
:103590003A463346ABF86480FFF734FE032EABF8AF
:1035A000660009D8DFE806F0020C1620039958FAE5
:1035B00089F340FA81F11EE0434601461BE000BF5B
:1035C000039908F1010349B2A3EB010850FA89F10C
:1035D00011E000BF5FFA89F108F10103A3EB0108D4
:1035E00003994AB205E000BF03995FFA89F248FAED
:1035F00081F3411C881A8FB21FFA88F182B29BB204
:1036000058460097FFF7B4FC002800F033819BF880
:103610006C30DBF86060CDF804A04FF0000E4FF086
:10362000000AABF868E004E0039840B2854280F2FB
:103630001B819BF876C0327803EB0C07D8B2FDB241
:10364000082D22FA00F20AD3751CCBF86050C3F1A2
:1036500008037078DBB298400243083F2E469BF87F
:1036600077308BF86C70D9193578CCB2082CFCB255
:1036700025FA04F509D3741CCBF86040C7F108079C
:103680007078FFB2B840054308394FF0FF3404FAB0
:103690000CF022EA0000059004FA03F025EA00008D
:1036A00004908BF86C1003E0C8078BF86C30BBD02B
:1036B0009BF86D0010B39BF86A00059CA0EB0A0113
:1036C000E2B2CBB2934269D8641AE1B281420EF100
:1036D000010E61D3241AE1B2814253D3241AE1B21C
:1036E000814253D3241AE1B2814253D3241AE1B266
:1036F00081420EF1040EEDD24EE000BF059C002089
:103700009BF86A10A1EB0A0550BB00BF9BF87090B4
:10371000BBF866004FFA8AF64FFA8EF731463A4602
:103720004B46CDF828E0FFF76DFDBBF864108046EE
:10373000084631463A464B46FFF752FD9BF86F204C
:103740000146E0B2EBB2984238BF03468BF89220B4
:1037500058464246CDF80090FFF74CFADDF828E0D5
:10376000E8B2E1B2814219D39BF86D00641B0EF1FF
:10377000010E4FF0000A9BF86A100028A1EB0A0521
:10378000EED1C3E70EF1010E06E000BF0EF1020E0E
:1037900002E000BF0EF1030E4FF0000A049A04EBA2
:1037A0000A018BF868108BF869E000BF9BF86A008B
:1037B0009BF87060A0EB010A0A925FFA82F8BBF8EE
:1037C00066205FFA8AF7BBF864004CB24FFA8EF5B8
:1037D0000997B845079238BF4746069121462A46C1
:1037E0003346F146FFF7FCFC0890079821462A462D
:1037F0003346FFF707FD9BF86E1002468BF89210D8
:10380000089958463B465C460096FFF7F3F909983D
:10381000804507D30A9A09F1010EA2EB0A020021A2
:10382000A346C3E706980A99266E01EB000A94F8AE
:103830006C2084F868A084F869903178531CDFB25A
:10384000A346082F21FA02F1CE46FFF42DAF701CDB
:10385000CBF86000C2F108037778DBB207FA03F314
:103860001943D31F06461FE79BF86E00DDF804A03E
:103870008BF892004FF0FF30029A00FA0AF122EA28
:103880000101AAF10102D2B29040084440B20BB04B
:10389000BDE8F08F70B50C46816DFF2C01F117016A
:1038A00004D8612C36D3B0F8880037E0B0F88A002D
:1038B0000E1835462846002100F052F806442846E6
:1038C000022100F04DF8A04205F10405F2D3308842
:1038D00040BA00283ED0A0423ED0B078315A49BA12
:1038E000C1B3A142064437D0B078315A49BA89B33E
:1038F000A142064430D0B078315A49BA51B3A142FE
:10390000064429D0B178705A0E4440BA0028E2D15A
:1039100020E000BF412C02D3B0F886000144487873
:10392000C0B10A78A24219D00144487890B10A780F
:10393000A24213D00144487860B10A78A2420DD067
:103940000144487830B10A78A24207D0014448784F
:103950000028E6D1002070BDF01C70BD881C70BD31
:10396000405A00BA000C70472DE9F04102F00704FC
:10397000012690F89250A640022DB44628BF4FF081
:10398000000CB5F1010E18BFB646056822F0070617
:103990002D7C476BDDF81880754317FA85F5B8F173
:1039A000000F294418D013F00306A3F1010500F01D
:1039B000A9800C7844EA0C0484EA0E07541C14F025
:1039C00007040F701CD04FEA4C0C4FEA4E0E012E2C
:1039D00023D12B4696E000BF13F00302A3F10100B0
:1039E00038D00C78012A44EA0C0484EA0E0401F869
:1039F000014B25D1034680B20328C0F0EF802DE0B3
:103A0000478F4FF00108394490F89270012F98BF0A
:103A1000C44618BFC646012EDBD00C7844EA0C041D
:103A200084EA0E07941C14F007040F7036D04FEA96
:103A30004C0C4FEA4E0E022E3DD1023B62E000BF1D
:103A40000C78022A44EA0C0484EA0E0401F8014BC3
:103A500042D1023B80B20328C0F0C080081F00BFE3
:103A600010F8041F043B41EA0C0181EA0E010170C9
:103A70004178827841EA0C0181EA0E01C4784170F4
:103A800042EA0C0181EA0E01817044EA0C0181EAEC
:103A90000E011A04C170E3D1A0E000BF478F4FF0C0
:103AA0000108394490F89270012F98BFC44618BF9E
:103AB000C646022EC1D00C78033244EA0C0484EAD4
:103AC0000E040C7012F00704A3F1030310D04FEAA8
:103AD0004C0C4FEA4E0E15E00A78033B42EA0C020A
:103AE00082EA0E0201F8012B80B2032876D3B5E7F3
:103AF000428F0126114490F89220012A98BFB446C3
:103B000018BFB646AAB2032A38BFBDE8F081012229
:103B10000CE000BF458F90F892602944012E98BFB9
:103B2000944618BF9646043B1D0457D00D78661C7A
:103B300045EA0C0585EA0E0576070D7004D04FEABC
:103B40004C0C4FEA4E0E08E0458F90F892602944E5
:103B5000012E98BF944618BF96460D78A61C45EADC
:103B60000C0585EA0E0576070D7005D04FEA4C0C62
:103B70004FEA4E0E09E000BF458F90F8926029444D
:103B8000012E98BF944618BF96460D78E61C45EA6C
:103B90000C0585EA0E0576070D7005D04FEA4C0C32
:103BA0004FEA4E0E09E000BF458F90F8926029441D
:103BB000012E98BF944618BF96460D78043445EA06
:103BC0000C0585EA0E0514F007040D70A2D04FEA2B
:103BD0004C0C4FEA4E0E043B1D04A7D1BDE8F0810A
:103BE000014640F2E8700822C2F200000A707047F5
:103BF0002DE9F04F81B0834690F8388000689BF83B
:103C0000396090F81190002501274FF6F87A00BF2F
:103C1000DBF80000F2B2037CDBF8340005FB03F1B3
:103C200001EA0A01441858460021009400F06EF899
:103C3000474506D20136F0B20835484507F101077D
:103C4000E6D301B0BDE8F08FB0B590F83810056844
:103C5000CB00838795F810C090F8393095F811E0C3
:103C60004FEACC0CDA005C18A0F83AC0C287744561
:103C700088BFAEEB03011944C900A0F84020A0F8AA
:103C8000421069694164B0BD70B582B00446216CD0
:103C9000B0F84400E164B4F85010B4F85420B4F81B
:103CA0005230B4F856500026A4F84A002046A4F832
:103CB00048600095FFF75CF920B3B4F84810B4F8F9
:103CC00050000122814284F88C2038BFA4F84800BB
:103CD000B4F84A10B4F85200814288BFA4F84A00F0
:103CE000B4F84C10B4F85400814238BFA4F84C002A
:103CF000B4F84E10B4F85600814288BFA4F84E00C4
:103D000002B070BD84F88C6002B070BD80B582B026
:103D1000DDF810C0D0F808E08DF805108DF8062009
:103D20008DF804306B460F210122CDF800C0F0471A
:103D300002B080BDD0F808C00A21002200236047ED
:103D4000D0F808C01021002200236047D0F808C036
:103D50000A460B210023604710B54FF47F44DDF87D
:103D600008C0A0F82340FF244FF0000E80F8284040
:103D700000F10804C0F800E080F826E084E80E5066
:103D8000BDE81040AFF30080D0F808C00921002240
:103D90000023604700294FF6FF7008BF70470A29CB
:103DA00018BF084670470000D0F810C01921002243
:103DB0000023604780B582B08DF807100DF107022F
:103DC000012100F003F802B080BD0000D0F810C05F
:103DD00013460A4617216047D0F810C01821002268
:103DE00000236047F0B581B014390C294FF0000072
:103DF0004AD8DFE801F00749490D293349494949C3
:103E000049490900FDF748FD012001B0F0BD00BFA0
:103E1000002AF9D040F6E83CC2F2000C9CF80040C1
:103E200012F00305A2F1010E30D0184610F8017B04
:103E300040F6E936611CC2F20006012D375527D144
:103E40000346724636E000BF40F6E830C2F200009A
:103E500000210170012001B0F0BD00BF40F6E83044
:103E6000C2F20000037840F2241040F6E9324FF429
:103E70007A77C2F20000C2F2000278210097FCF7C4
:103E8000A5FC0028C0D0002001B0F0BD13E000BFA9
:103E90005F78A01CC9B2022D775405D10233023AD3
:103EA0000146044607E000BF9D78E11CC0B2033321
:103EB000033A35540C465FFA8EF003281AD340F6C5
:103EC000E930043BC2F20000214600BF13F8047F32
:103ED000CDB247554E1C5F78F6B287558D1C9F7842
:103EE000EDB24755CE1CDF78043A0431F6B2150620
:103EF0008755EBD18CF80010012001B0F0BD000017
:103F0000D0F80CC01921002200236047D0F80CC063
:103F10000A46162100236047D0F80CC00A46152136
:103F200000236047D0F80CC013460A4617216047AB
:103F3000F0B581B00E4604460DF103050AE000BF5E
:103F4000A1F11800022817D2E668204600220023BB
:103F5000B0473E46374617F8011B1729F0DCA1F1A0
:103F60001500022814D27278E768204600238DF8E5
:103F70000320B8470236EDE7FE2915D172782046B6
:103F800029218DF8032000F051FA0236E2E700BF44
:103F9000172909D1707801218DF8030020462A469F
:103FA000FFF7C0FF0236D5E701B0F0BDD0F80CC076
:103FB0001821002200236047F0B581B0143905298B
:103FC0002CD804461E461546DFE801F0042C1646A0
:103FD0001EBE00BF94F824001421FF2804BF7820DF
:103FE00084F82400D4F810C020462A46334601B095
:103FF000BDE8F040604700BF20462946FFF7DAFEE3
:10400000012001B0F0BD00BF40F66940C2F20000DF
:1040100000210170012001B0F0BD00BF002001B0FF
:10402000F0BD00BF40F66946C2F2000630780128B4
:1040300002D12046FFF7B8FE2046FFF7CDFE20460E
:104040000021FFF7B7FE20462946FFF7B3FE012007
:10405000307001B0F0BD00BF40F66947C2F2000702
:104060003878012802D12046FFF79EFE192D7DD316
:1040700020461821324600F0DDF9A5F11800C1B242
:10408000192906F118026FD32046182100F0D2F941
:10409000A5F13000C1B2192906F1300264D32046DF
:1040A000182100F0C7F9A5F14800C1B2192906F19D
:1040B000480259D32046182100F0BCF9A5F1600050
:1040C000C1B2192906F160024ED32046182100F032
:1040D000B1F9A5F17800C1B2192906F1780243D3EC
:1040E0002046182100F0A6F905F17000C1B2192987
:1040F00006F1900238D32046182100F09BF905F113
:104100005800C1B2192906F1A8022DD32046182162
:1041100000F090F905F14000C1B2192906F1C00282
:1041200022D32046182100F085F905F12800C1B2FC
:10413000192906F1D80217D32046182100F07AF980
:104140001035F03612E000BF40F66945C2F20005B6
:104150002878012802D12046FFF726FE002028708B
:10416000012001B0F0BD00BF05461646E9B2204669
:10417000324600F05FF900203870012001B0F0BD38
:1041800010B5D0F814C02821002200230446E047CF
:10419000D4F80CC02046142100220023E04720461A
:1041A0004B21012200F042F92068292102792046A2
:1041B00000F03CF920464B21002200F037F920683E
:1041C00029210279204600F031F920464B210122B5
:1041D00000F02CF92068292142792046BDE81040E2
:1041E00000F024B98A7C016080F82220704700002A
:1041F000B0B50D46044600F01FF808B10120B0BD6F
:10420000092D0DD00A2D15D12046FFF7B9FF47F62D
:104210008E71C0F600012046FFF78AFE0120B0BD76
:1042200047F6D071C0F600012046FFF7DBFF012002
:10423000B0BD00BF0020B0BD2DE9F0410B390446F0
:1042400004294FF0000088BFBDE8F0811546DFE883
:1042500001F00365132335002046002D07BF47F604
:10426000C371C0F6000147F6C871C0F60001FFF740
:104270005FFE0120BDE8F081002D51D047F6877127
:10428000C0F600012046FFF753FE2068C07C84F88A
:1042900022000120BDE8F0812046FFF787FE20467E
:1042A0008121FFF739FE20462946FFF72FFE2046E1
:1042B000FFF726FE0120BDE8F08100BF20461E4624
:1042C000FFF774FE707994F8221001EBC0072046C6
:1042D00040215FFA87F8FFF71FFE4FEA181000F140
:1042E00010012046FFF718FE07F00F012046FFF7E8
:1042F0000DFEB07940F0B0012046FFF707FE00BF89
:1043000030793268C000C1B22046FFF70BFE013D94
:104310002806F5D12046FFF7F3FD0120BDE8F08126
:1043200047F68071C0F600012046FFF701FE2068C5
:10433000807C84F822000120BDE8F08129392A29F7
:1043400000F26E80DFE801F0651C686C656C6C6CD7
:104350006C6C6C6C6C6C6C6C6C6C6C6C6C6C6C6C9D
:104360006C6C6C6C6C6C6C6C6C6C6C65656C6C16F1
:1043700016161600002180F827100120704700BF94
:10438000002000BF00BF00BF00BF00BF00BF00BFD4
:1043900000BF00BF00BF00BF00BF00BF00BF00BF25
:1043A00000BF00BF00BF00BF00BF00BF00BF00BF15
:1043B00000BF00BF00BF00BF00BF00BF00BF00BF05
:1043C00000BF00BF00BF00BF00BF00BF00BF00BFF5
:1043D00000BF00BF00BF00BF00BF00BF00BF00BFE5
:1043E00000BF00BF00BF00BF00BF00BF00BF00BFD5
:1043F00000BF00BF00BF00BF00BF00BF00BF00BFC5
:1044000040F03F0100BFB1F59F7F00F1400000BFC9
:10441000B8D90120704700BF012000BF704700BF1E
:10442000012180F82710012070470000D0F814C047
:1044300000236047F0B581B017460D460646FFF7EA
:10444000CBFC30464021FFF7B5FC346930461721DC
:104450002A463B46A047304601B0BDE8F040FFF792
:10446000A3BC0000002180F826107047D0E901327B
:1044700001699A60D1F804C082688445536008BF1E
:104480004A600022026108680138086008687047C5
:1044900044F67023C2F20003036044F67000C2F2D7
:1044A00000000860802010607047000044F6CC6374
:1044B000C2F20003036044F6CC20C2F200000860A0
:1044C0004FF48070106070474FF0FF31024642F8A1
:1044D000081F00214260C0E903220160704700000C
:1044E000002101617047000010B5D1F800E01EF115
:1044F000010213D000F1080462681368734511D8F3
:1045000053681C68744511D85A68146874450FD8EC
:1045100054682368A4467345EED90BE00269D2F8CB
:1045200004C007E09446224604E000BF9C4601E038
:1045300094461A46C1F804C0CCF808108A6051604D
:10454000086101680131016010BD0000D0F800C0B1
:10455000436808619A684B608A609A689960516004
:104560000CF1010101607047DFF80C00016841F4B3
:10457000700101607047000088ED00E04FF05000CE
:1045800080F31188BFF36F8FBFF34F8F40F210009D
:10459000C2F2000001684A1C026009B1704700BF06
:1045A0004EF60450CEF200000068000608BF7047C7
:1045B0004FF0500080F31188BFF36F8FBFF34F8F20
:1045C000FEE7000040F21000C2F20000016839B1BD
:1045D0000139016018BF7047002080F311887047CF
:1045E0004FF0500080F31188BFF36F8FBFF34F8FF0
:1045F000FEE7000070B5002808BF70BD40F2D4058A
:10460000C2F200050446287854F8041C002818BF9C
:104610004FF0004008420DD0A4F1080632689AB16C
:104620004FF0500080F31188BFF36F8FBFF34F8FAF
:10463000FEE700BF4FF0500080F31188BFF36F8F8B
:10464000BFF34F8FFEE700BF21EA000044F8040CDF
:1046500000F048FA54F8041CA8680844A86005F162
:10466000180000BF0368B3420AD21868B04225D2CE
:104670000368B34204D218681A46B042F2D301E08C
:10468000024618465368D418B44202D1194416465B
:1046900051607318834206D16B68984203D0D0E909
:1046A000000319447160B242306018BF1660686937
:1046B00001306861BDE8704001F072B81A46536875
:1046C000D418B442E5D1E1E74EF21000CEF200007A
:1046D00000210160816040F20C01C2F20001096812
:1046E00044F6D352C1F26202A1FB02124FF0FF3135
:1046F00001EB9211416007210160704740F2F40024
:10470000EFF305811029C2F2000011D34EF2F0320E
:10471000CEF20002895C0278914209D24FF050003B
:1047200080F31188BFF36F8FBFF34F8FFEE700BF99
:104730004EF60C51CEF200010968406801F4E061C8
:10474000814298BF70474FF0500080F31188BFF34B
:104750006F8FBFF34F8F00BFFEE7000044F6287C49
:10476000C2F2000CDCF8002022B3634653F8082F95
:1047700042B3634653F8102F52B3634653F8182FD1
:1047800062B3634653F8202F72B3634653F8282F61
:1047900082B3634653F8302F92B3634653F8382FF1
:1047A000002A18BF7047072219600CEBC20148604D
:1047B000704700BF0022634619600CEBC2014860DD
:1047C000704700BF012219600CEBC20148607047BE
:1047D000022219600CEBC201486070470322196085
:1047E0000CEBC20148607047042219600CEBC20157
:1047F00048607047052219600CEBC20148607047A1
:10480000062219600CEBC2014860704770B515466E
:104810000E460446FFF7B2FE94F84400FF2804BF9A
:10482000002084F8440094F84500FF2804BF0020CD
:1048300084F84500FFF7C6FEA06B28B12046BDE80E
:104840007040FDF7B7BE00BF04F1240031462A4690
:1048500000F092F82046BDE87040FDF7ABBE0000C6
:1048600070B588B340F22005C2F2000504466869BD
:1048700050B14FF0500080F31188BFF36F8FBFF33A
:104880004F8F00BFFEE700BF686901306861AE6905
:1048900028680430FFF7EAFD2868A419446005D3AE
:1048A000286A29680431FFF71FFE08E0E8692968D3
:1048B0000431FFF719FEE86A844238BFEC6200F069
:1048C0006FFF002818BF70BD4EF60450CEF20000F6
:1048D0004FF080510160BFF34F8FBFF36F8F70BDFA
:1048E00040F22001C2F200018A6B026089694160D6
:1048F0007047000040F22000C2F200000121016375
:104900007047000070B5D8B140F22004C2F2000434
:104910000D4621681831FFF7E7FDA66920680430CD
:10492000FFF7A4FD681C15D02068AD19456019D3A8
:10493000206A21680431BDE87040FFF7D5BD00BF93
:104940004FF0500080F31188BFF36F8FBFF34F8F8C
:10495000FEE700BF54F8500B011D2046BDE8704033
:10496000FFF7F4BDE06921680431FFF7BDFDE06A9F
:10497000854238BFE56270BDF0B581B0C0B140F28C
:104980002004C2F200040D46216816461831FFF7D4
:10499000DDFDA76920680430FFF768FD96B154F883
:1049A000500B011D204601B0BDE8F040FFF7CEBD21
:1049B0004FF0500080F31188BFF36F8FBFF34F8F1C
:1049C000FEE700BF2068ED19456007D3206A216823
:1049D000043101B0BDE8F040FFF786BDE069216811
:1049E0000431FFF781FDE06A854238BFE56201B01E
:1049F000F0BD000010B588B00020CDE9050006A884
:104A000005A904AAFFF744FD059800283ED0069C9E
:104A1000002C45D05C21049A079107995C2949D163
:104A200007992063022084F8590007A80021CDE9E6
:104A3000001042F21100C0F6000028A100230294E9
:104A4000FDF72AFB2046FDF79DF9079840F2200468
:104A5000C2F20004A062B0B100F01AFF411C33D0D2
:104A6000012810D14FF0500080F31188BFF36F8FF1
:104A7000BFF34F8F4FF0FF30E06201202061002034
:104A8000A06100F095F808B010BD00BF4FF05000D5
:104A900080F31188BFF36F8FBFF34F8FFEE700BF26
:104AA0004FF0500080F31188BFF36F8FBFF34F8F2B
:104AB000FEE700BF4FF0500080F31188BFF36F8F07
:104AC000BFF34F8FFEE700BF4FF0500080F3118817
:104AD000BFF36F8FBFF34F8FFEE700BF49444C45D4
:104AE0000000000040F22000C2F2000041690131E4
:104AF0004161704780B540F2200EC2F2000EDEF830
:104B0000141019B10121CEF8301080BD0021CEF86B
:104B10003010DEF8241040F2F42C01EB8103C2F2D5
:104B2000000C5CF823208AB101EB81020CEB8203BC
:104B300053F8042F5268181D82421A6020D0D068A2
:104B4000CEF80000CEF8241080BD00BF0CEB83022D
:104B5000A2F12803E1B15A6922BB012918D01A68D1
:104B600012BB022914D053F8142CFAB903290FD020
:104B700053F8282C0439002AA3F15003EAD0D3E7D4
:104B800052681A60D068CEF80000CEF8241080BDBC
:104B90004FF0500080F31188BFF36F8FBFF34F8F3A
:104BA000FEE700BF0139BFE70239BDE70339BBE7C4
:104BB000B0B584B04EF2004CCEF2000C4CF2702135
:104BC000C4F20F11DCF800294B1C9A420AD14FF0B5
:104BD000500080F31188BFF36F8FBFF34F8F00BF7A
:104BE000FEE700BFDCF800298A4209D14FF05000EF
:104BF00080F31188BFF36F8FBFF34F8FFEE700BFC5
:104C00009CF800100291FF218CF800109CF8001015
:104C10008DF807109DF8071001F0500240F2F401E2
:104C2000C2F200010A7007224A609DF90720B2F122
:104C3000FF3F69DC032200BFD31C4B609DF80700D7
:104C400040008DF807009DF90700B0F1FF3F23DC1D
:104C5000931C4B609DF8070040008DF807009DF9FC
:104C60000700B0F1FF3F17DC531C4B609DF80700B5
:104C700040008DF807009DF90700B0F1FF3F0BDC05
:104C80004A609DF80700043A40008DF807009DF93E
:104C900007000028D0D4131D032B35D14FF44070EA
:104CA000486002988CF80000DCF8200940F470009D
:104CB000CCF82009DCF8200940F07040CCF820093D
:104CC000FFF702FD40F21004C2F200040025256047
:104CD000FFF74AFC4EF63470CEF20000016841F056
:104CE00040410160FDF76CFAFFF704FF039520686F
:104CF0004FF0500181F31188BFF36F8FBFF34F8FD7
:104D0000013011D0FEE700BF4FF0500080F3118852
:104D1000BFF36F8FBFF34F8FFEE700BF039830B92B
:104D2000039820B9039810B903980028F6D0002002
:104D300004B0B0BD80B54FF0500080F31188BFF3D0
:104D40006F8FBFF34F8F00F029FC30B14EF6045047
:104D5000CEF200004FF080510160002080F31188F6
:104D600080BD00002DE9F041B0B306464843503005
:104D700014460F46FDF758FC054650B34FF00008A7
:104D8000284685F84680002F18BF50302860C5E9B6
:104D90000F67FFF7F3FB2868D5E90F12C5F83880D5
:104DA00002FB0103013901FB0201C5E90103FF20F8
:104DB000E96085F8440085F8450005F11000FFF72B
:104DC00083FB05F12400FFF77FFBFFF7FBFB85F872
:104DD0004C402846BDE8F0814FF0500080F3118828
:104DE000BFF36F8FBFF34F8FFEE7000070B582B047
:104DF00070B11C46B3B1F9B9F2B14FF0500080F375
:104E00001188BFF36F8FBFF34F8F00BFFEE700BF66
:104E10004FF0500080F31188BFF36F8FBFF34F8FB7
:104E2000FEE700BF4FF0500080F31188BFF36F8F93
:104E3000BFF34F8FFEE700BF51B14AB94FF05000AA
:104E400080F31188BFF36F8FBFF34F8FFEE700BF72
:104E500050230193019B502B2ED1019B069E0123D1
:104E600084F84630002908BF22462260C4E90F01B9
:104E7000FFF784FB2068D4E90F12002502FB010331
:104E8000013901FB0201A563C4E90103FF20E160D0
:104E900084F8440084F8450004F11000FFF714FB87
:104EA00004F12400FFF710FBFFF78CFB204684F889
:104EB0004C6002B070BD00BF4FF0500080F311880D
:104EC000BFF36F8FBFF34F8FFEE700002DE9F04F68
:104ED00083B00292C0B11D4617460E460446E9B1A2
:104EE000022D03D1E06B012840F0888000F040FBE8
:104EF00010BB0FB34FF0500080F31188BFF36F8FDA
:104F0000BFF34F8FFEE700BF4FF0500080F31188D2
:104F1000BFF36F8FBFF34F8FFEE700BF206C0028F9
:104F2000DED04FF0500080F31188BFF36F8FBFF3D6
:104F30004F8F00BFFEE700BFFFF720FBA06B022DE5
:104F400066D0E16B884263D304F1100801206F46FC
:104F50000DF108090DE000BF2046FDF72BFB00F026
:104F60001FFCFFF70BFBA06BE16B88424FF00000CA
:104F70004ED30299002973D0C00702D03846FFF7FC
:104F8000AFFCFFF71FFBFFF7ADFDFFF7F7FA94F853
:104F90004400FF2804BF002084F8440094F8450032
:104FA000FF2804BF002084F84500FFF70BFB3846BC
:104FB000494600F01FFA002858D1FFF7DFFAD4F86D
:104FC00038A0D4F83CB0FFF7FDFADA45C4D1029915
:104FD0004046FFF797FC2046FDF7ECFA00F0E0FBB7
:104FE0000028BED14EF60450CEF200004FF08051A2
:104FF0000160BFF34F8FBFF36F8FB2E74FF05000E8
:1050000080F31188BFF36F8FBFF34F8FFEE700BFB0
:10501000A76B226CD2B19DB3E0683146FBF713F960
:10502000E168206C2268091A9142E16003D2A1680C
:1050300040420844E060A81EB0FA80F040093946BA
:10504000002F18BF012108403F1A26E020680025E4
:1050500020BBA06800F024FBA56005461EE000BF51
:10506000FFF7B0FA002003B0BDE8F08F2046FDF74F
:10507000A1FA00F095FB002003B0BDE8F08F00BF5F
:1050800060683146FBF7DFF8216CD4E9010208447F
:105090009042606001D3206860600025781CA063A6
:1050A00054F8240FA0B1204600F040FB50B14EF65A
:1050B0000450CEF200004FF080510160BFF34F8FDB
:1050C000BFF36F8FFFF77EFA012003B0BDE8F08FCA
:1050D000002DF7D04EF60450CEF200004FF0805174
:1050E0000160BFF34F8FBFF36F8FFFF76BFA0120A3
:1050F00003B0BDE8F08F00002DE9F04700B31E4675
:10510000144605460F4629B3022E02D1E86B01284A
:1051100052D1FFF7F3FAEFF311884FF0500080F30C
:105120001188BFF36F8FBFF34F8FA86B022E1FD074
:10513000E96B88421CD3002088F31188BDE8F08712
:105140004FF0500080F31188BFF36F8FBFF34F8F84
:10515000FEE700BF286C0028D6D04FF0500080F347
:105160001188BFF36F8FBFF34F8F00BFFEE700BF03
:1051700095F84590A86BD5F838A02A6C32B36EB379
:10518000E8683946FBF75FF8E968286C2A68091A6D
:105190009142E96003D2A96840420844E860B01E29
:1051A000B0FA80F040095146BAF1000F18BF012152
:1051B0000840AAEB000A1EE04FF0500080F311886F
:1051C000BFF36F8FBFF34F8FFEE700BF286890B922
:1051D000A86800F065FA0020A8600CE0686839460D
:1051E000FBF731F8296CD5E9010208449042686068
:1051F00001D3286868600AF10100B9F1FF0FA863C4
:1052000010D155F8240FB8B1284600F08FFA0146A6
:10521000002C4FF0010018BF002913D188F311882A
:10522000BDE8F08709F1010085F84500012088F309
:105230001188BDE8F08700BF012088F31188BDE820
:10524000F08700BF0120206088F31188BDE8F08757
:105250002DE9F04F83B0029290B116460D460446F8
:10526000002947D000F084F9A0B99EB14FF050005A
:1052700080F31188BFF36F8FBFF34F8FFEE700BF3E
:105280004FF0500080F31188BFF36F8FBFF34F8F43
:10529000FEE700BFFFF772F9D4F838A0BAF1000FAB
:1052A00036D0226C52B1D4E902308118E1609942C3
:1052B00024BF2168E1602846FAF7C5FFAAF1010082
:1052C000A06354F8100F70B1204600F02FFA50B1CF
:1052D0004EF60450CEF200004FF080510160BFF353
:1052E0004F8FBFF36F8F0124FFF76CF9204603B097
:1052F000BDE8F08F206C0028B4D04FF0500080F350
:105300001188BFF36F8FBFF34F8F00BFFEE700BF61
:1053100004F1240801206F464FF000090DF1080B3D
:105320002EE000BFFFF74EF9FFF7DCFBFFF726F991
:1053300094F84400FF2808BF84F8449094F845008E
:10534000FF2808BF84F84590FFF73CF938465946D6
:1053500000F050F8E0B12046FDF72CF900F020FAFB
:10536000FFF70CF9A66BFFF72DF9002E3CD0FFF7E5
:1053700005F9D4F838A00020BAF1000F7FF491AFFE
:10538000029949B3C007CDD03846FFF7A9FAC9E75B
:10539000FFF7F4F8A66BFFF715F92EB12046FDF7DD
:1053A00009F900F0FDF9E2E702994046FFF7AAFA91
:1053B0002046FDF7FFF800F0F3F90028D7D14EF6AC
:1053C0000450CEF200004FF080510160BFF34F8FC8
:1053D000BFF36F8FCBE700BF0024FFF7F3F8204641
:1053E00003B0BDE8F08F00BF0024204603B0BDE845
:1053F000F08F0000B0B5D8B10D4619B30446FFF7E1
:10540000BDF840F2200CC2F2000CDCF8182029682C
:105410004B1C21D0D4E9000EDCF83830834221D077
:1054200072451FD30124FFF7CDF82046B0BD00BF61
:105430004FF0500080F31188BFF36F8FBFF34F8F91
:10544000FEE700BF4FF0500080F31188BFF36F8F6D
:10545000BFF34F8FFEE700BF0024FFF7B3F82046ED
:10546000B0BD00BFA2EB0E0291420DD9881A286090
:10547000DCF838002060DCF8180060600024FFF7DA
:10548000A1F82046B0BD00BF002001242860FFF72E
:1054900099F82046B0BD00002DE9F04383B00746DF
:1054A0009000984615468946FDF7BEF8F8B10646C5
:1054B0005C20FDF7B9F8B8B10446DDE90A10002216
:1054C000266384F85920CDE90010384649462A461B
:1054D00043460294FCF7E0FD2046FCF753FC012014
:1054E00003B0BDE8F08300BF3046FFF783F84FF00C
:1054F000FF3003B0BDE8F08370B586B00B9CCCB133
:105500000C9E0EB35C250495049D5C2D26D1049D54
:10551000DDF828C0022586F8595005AD3463CDE981
:1055200000C50296FCF7B8FD3046FCF72BFC059849
:1055300006B070BD4FF0500080F31188BFF36F8F3D
:10554000BFF34F8FFEE700BF4FF0500080F311888C
:10555000BFF36F8FBFF34F8FFEE700BF4FF05000D8
:1055600080F31188BFF36F8FBFF34F8FFEE700000A
:1055700040F22000C2F20000016900290FBF0120A3
:105580004069B0FA80F0400918BF40007047000041
:1055900040F22000C2F20000806970472DE9F0431C
:1055A00081B040F22006C2F20006706940B1706B13
:1055B000002401307063204601B0BDE8F08300BFD5
:1055C000B06910F10109C6F8189020D3F06900689D
:1055D00050B14FF0500080F31188BFF36F8FBFF3CD
:1055E0004F8F00BFFEE700BFF069316AF1613062A2
:1055F000B06B0130B063F069006828B1F069C06831
:10560000C068406802E000BF4FF0FF30F062F06A0F
:1056100040F2F4288145C2F2000801D200242EE0B5
:10562000F0690024006813E0F86A716A884288BF54
:10563000706200EB800008EB80002946FEF786FFD1
:10564000F86A3168C96AF269884228BF0124106883
:1056500090B1F069C068C7683D4655F8040F8145B0
:105660000CD32846FEF702FFB86A0028DCD007F109
:105670001800FEF7FBFED7E74FF0FF30F06230680E
:10568000C06A00EB800058F82000012888BF012480
:10569000306B002818BF0124204601B0BDE8F0831C
:1056A00070B588B140F22006C2F2000604463068A8
:1056B000A0420BD04FF0500080F31188BFF36F8FE2
:1056C000BFF34F8FFEE700BF002070BD206D18B301
:1056D000411EE06AE26C216590424FF0000008BF75
:1056E00070BDC1B9251D2846FEF7C0FEE06CC0F1B3
:1056F0003801E062A161716A884240F2F42188BFFA
:10570000706200EB8000C2F2000101EB80002946CC
:10571000FEF71CFF012070BD4FF0500080F3118890
:10572000BFF36F8FBFF34F8FFEE7000070B5C06807
:10573000C5686DB105F118042046FEF797FE40F2EA
:105740002006C2F20006706960B106F164001AE03A
:105750004FF0500080F31188BFF36F8FBFF34F8F6E
:10576000FEE700BF2C1D2046FEF780FEE86A716A46
:10577000884240F2F42188BF706200EB8000C2F2E0
:10578000000101EB80002146FEF7E0FEE86A316887
:10579000C96A884292BF00200120306370BD0000BA
:1057A0002DE9F04140F22005C2F20005686968B1B8
:1057B000FEF7E4FE686901386861686980B1002419
:1057C000FEF700FF2046BDE8F08100BF4FF050001B
:1057D00080F31188BFF36F8FBFF34F8FFEE700BFD9
:1057E000E8680028EBD0686E88B340F2F426C2F275
:1057F00000064FF0010800BF286FC76807F11800C6
:10580000FEF734FE3C1D2046FEF730FEF86A696A5A
:10581000884288BF686200EB800006EB800021466A
:10582000FEF794FEF86A2968C96A884228BFC5F85D
:105830003080686E0028DFD1E869006820B1E8692F
:10584000C068C068406801E04FF0FF30E8626C6BF0
:105850004CB10126FFF7A2FE002818BF2E63013CC1
:10586000F8D100206863286B0028A8D04EF60450B9
:10587000CEF200004FF080510160BFF34F8F012442
:10588000BFF36F8FFEF79EFE2046BDE8F08100005B
:1058900070B586B0FEF772FE40F29806C2F20006BE
:1058A000306808BB06F114042046FEF70DFE06F131
:1058B00028052846FEF708FE40F2042240F2A42301
:1058C000C6E902450025C2F20002C2F200030A2026
:1058D00010210095FFF78AFA306028B145F6CA61B9
:1058E000C0F60001FEF73AFFFEF76CFE3068D8B153
:1058F0000020CDE9040005A804A903AAFEF7D6FDFF
:10590000DDE903200221059DCDE9001042F22920A6
:10591000C0F6000009A100230295FFF7EDFD7060BD
:1059200010B1012006B070BD4FF0500080F3118817
:10593000BFF36F8FBFF34F8FFEE700BF546D722030
:10594000537663000FB47CB50C0009AD01D0611E25
:1059500000E00021CDE90001064B6A46294608987F
:1059600000F019F8002C02D0009A002111707CBCC4
:105970005DF814FB6D5A000802E008C8121F08C148
:10598000002AFAD170477047002001E001C1121FC0
:10599000002AFBD170472DE9F84F99469246884678
:1059A0000546002706E025280AD051464A4690477A
:1059B0006D1C7F1C28780028F5D13846BDE8F88F8B
:1059C000002315F8011F18462E2915D115F8011FBF
:1059D00004232A290DD06FF02F022978A1F1300479
:1059E000092C09D800EB800002EB400008446D1C34
:1059F000F3E758F8040B6D1C2A78002ADDD0632ADF
:105A000007D0732A0FD0104651464A4690477F1C54
:105A10002AE018F8042B8DF8002000218DF80110E1
:105A20006E46012103E058F8046B4FF0FF315A072E
:105A30004FF0000401D409E0641C84420BDA8C426C
:105A4000FADB325D002AF7D105E0641C8C42FCDBF6
:105A5000305D0028F9D1274404E016F8010B5146C7
:105A60004A469047641EF8D26D1CA3E74A68002A94
:105A700006D00A68531C0B6010704868401E4860CE
:105A80007047000010B5044601E0FCF73BF914F83C
:105A9000010B04490028F8D1BDE810400A20FCF7AA
:105AA00031B90000000000200000000000000000EC
:105AB00001020304060708090000000001020304B4
:105AC000FFFFFFFFFFFFFFFFFFFFFFFFFFFFFFFFE6
:105AD000FFFFFFFFFFFFFFFFFFFFFFFFFFFFFFFFD6
