:020000040800F2
:10000000D85000204D020008ED1B0008C117000861
:10001000E91B000845050008911F000800000000CA
:10002000000000000000000000000000411D00086A
:100030004905000800000000F11B00086D1D0008C4
:1000400067020008670200086702000867020008EC
:1000500067020008670200086702000867020008DC
:10006000670200084D0500085505000867020008F2
:1000700067020008670200086702000867020008BC
:1000800067020008670200086702000867020008AC
:100090006702000867020008670200085D050008A3
:1000A000670200086702000867020008670200088C
:1000B000491E00086702000867020008670200087E
:1000C000670200086702000867020008670200086C
:1000D000670200086702000867020008670200085C
:1000E000670200086702000867020008670200084C
:1000F000670200086702000867020008670200083C
:10010000670200086702000867020008670200082B
:10011000670200086702000867020008670200081B
:10012000670200086702000867020008670200080B
:1001300067020008670200086702000867020008FB
:1001400067020008670200086702000867020008EB
:1001500067020008670200086702000867020008DB
:1001600067020008670200086702000867020008CB
:10017000670200086702000867020008000000002C
:1001800067020008670200086702000867020008AB
:10019000670200086702000867020008670200089B
:1001A00067020008670200086702000800F002F812
:1001B00000F03CF80AA090E8000C82448344AAF1C5
:1001C0000107DA4501D100F031F8AFF2090EBAE8C3
:1001D0000F0013F0010F18BFFB1A43F0010318477B
:1001E000EC4500000C460000103A24BF78C878C1E6
:1001F000FAD8520724BF30C830C144BF04680C602D
:10020000704700000023002400250026103A28BF74
:1002100078C1FBD8520728BF30C148BF0B60704778
:100220001FB504F0A1FA1FBD10B510BD00F04FF9C5
:100230001146FFF7F5FF01F0FBFE00F06DF903B486
:10024000FFF7F2FF03BC00F075F900000948804792
:1002500009480047FEE7FEE7FEE7FEE7FEE7FEE7A8
:10026000FEE7FEE7FEE7FEE704480549054A064BC0
:1002700070470000351E0008AD010008D84A002074
:10028000D8500020D84C0020D84C002053EA020C53
:1002900000F069802DE9F04B4FF00006002B1FBFE6
:1002A000B3FA83F503FA05F424FA05F65E4012BFAB
:1002B0001643B2FA82F502FA05F4C5F120051EBF15
:1002C00022FA05FC44EA0C04203556EA044C4FEAB5
:1002D000144418BF641C4FF000084FF0000990420E
:1002E00071EB030C39D3002919BFB1FA81F701FA78
:1002F00007F6B0FA80F700FA07F6C7F120071EBF2D
:1003000020FA07FC46EA0C062037B6FBF4FCA7EB04
:100310000507103F07F01F0BCBF120062CFA06F65D
:100320000CFA0BFB44BFB3460026202FA4BF5E4649
:100330004FF0000B5BEA060C08BF4FF0010B19EB06
:100340000B0948EB0608ABFB027C06FB02CC0BFB5F
:1003500003CCC01B71EB0C01C1E70B4602464146C2
:100360004846BDE8F08B13B5084318BF4FF0FF3087
:100370000146AFF30080BDE81C407047032A40F2FD
:10038000308010F0030C00F0158011F8013BBCF137
:10039000020F624498BF11F801CB00F8013B38BF4F
:1003A00011F8013BA2F1040298BF00F801CB38BF5D
:1003B00000F8013B11F0030300F05780083AC0F049
:1003C000088051F8043B083A51F804CBA0E8081023
:1003D000F5E7121D5CBF51F8043B40F8043BAFF356
:1003E0000080D20724BF11F8013B11F801CB48BFB0
:1003F00011F8012B24BF00F8013B00F801CB48BFE6
:1004000000F8012B704702F0FF0343EA032242EA9F
:10041000024200F002B84FF0000200B513469446C5
:100420009646203922BFA0E80C50A0E80C50B1F14C
:100430002001BFF4F7AF090728BFA0E80C5048BF60
:100440000CC05DF804EB890028BF40F8042B08BFFE
:10045000704748BF20F8022B11F0804F18BF00F8FA
:10046000012B704770477047704710B5203AC0F0B5
:100470000B80B1E81850A0E81850B1E81850A0E877
:100480001850203ABFF4F5AF5FEA027C24BFB1E810
:100490001850A0E8185044BF18C918C0BDE8104053
:1004A0005FEA827C24BF51F8043B40F8043B08BF5C
:1004B0007047D20728BF31F8023B48BF11F8012B23
:1004C00028BF20F8023B48BF00F8012B7047754653
:1004D00000F02CF8AE4605006946534620F00700B0
:1004E000854618B020B5FFF7BFFEBDE820404FF0AD
:1004F00000064FF000074FF000084FF0000BAC462D
:10050000ACE8C009ACE8C009ACE8C009ACE8C00977
:1005100021F007018D46704710B50446AFF3008007
:100520002046BDE81040FFF78ABE00000048704733
:100530006000002001491820ABBEFEE72600020043
:1005400070470000FEE7000070470000082000F040
:100550004BB80000102000F047B80000202000F049
:1005600043B80000EFF3108072B600BFFEE7000052
:1005700080B582B020280FD0102817D0082821D1AC
:1005800041F20000C4F20200082100F00DF9012838
:100590000AD1012019E000BF41F20000C4F20200BC
:1005A000202100F001F978B102B080BD41F20000D5
:1005B000C4F20200102100F0F7F80128F4D1022063
:1005C00003E000BF002000E003208DF8070040F2A8
:1005D000C000C2F2000040680DF1070100220023B4
:1005E00003F02AFC02B080BD43F61441C4F20101BD
:1005F0000A68024214BF08607047FFF7B9BF0000E5
:100600002DE9F04F82B000F13E4242F2004502F186
:10061000FF77C4F202050A2243F6004E4FEAB726DE
:10062000A84208BF0922C4F2010E092E38BF4FEAC2
:10063000B7220125002600274FF00008009208E0AD
:1006400008F101080437B8F1100F06F1020600F0B6
:10065000A7800C6805FA08F914EA090FF0D0D1F860
:1006600004B003220BF0030CACF10104B240012CE6
:100670006FEA020A10D88268CC6802EA0A02B44023
:10068000224382604268CBF3001422EA090204FA92
:1006900008F42243426005E0BCF1030F02D14FF0A1
:1006A000030C20E0C2688C6802EA0A02B4402243CC
:1006B000BCF1020FC26016D16FF0030202EA5802C9
:1006C0000244D2F820C007F01C050F230C69AB4090
:1006D0002CEA030304FA05F52B431362D1F804B0A6
:1006E00001250BF0030C02680CFA06F302EA0A0279
:1006F0001A431BF4403F0260A2D0002243F6440399
:100700000192C4F202031A684FF6084C42F4804288
:100710001A601A68CFF6FF7C02F480420192019AB7
:1007200028F00302724452F80C3007F00C050F2435
:10073000AC40A343009C04FA05F52B4342F80C306F
:10074000DEF808204B6842EA090543F60C4CDC024F
:1007500058BF22EA0905CEF80850C4F2010CDCF8B3
:1007600000209C0242EA090558BF22EA0905CCF89C
:100770000050DEF804209C0342EA090558BF22EA33
:100780000905CEF80450DEF80020DB0342EA090533
:1007900058BF22EA0905CEF80050012550E700BFF6
:1007A00002B0BDE8F08F00000069084018BF0120CA
:1007B00070470000002A08BF0904816170470000EB
:1007C00044F2DC30C2F200000068704740F20000E2
:1007D00044F2DC31C2F20000C2F2000100780A6883
:1007E000104408607047000080B543F60040C4F232
:1007F0000200016841F400710160016841F4806108
:100800000160016841F480710160032000F08EF8FE
:100810000F2000F005F800F027F8002080BD000050
:1008200070B540F20006C2F2000640F208013278CC
:10083000C2F200014FF47A730968B3FBF2F2044686
:10084000B1FBF2F1084600F0DBFC0F2C4FF0010584
:1008500008D838B94FF0FF3021460022002500F0BB
:1008600039F87460284670BD82B0002043F640011C
:100870000190C4F202014A6842F480424A604A6828
:1008800002F480420192019A00900868002240F030
:100890008050086008680F2100F080500090009898
:1008A0006FF0010002B000F015B80000002848BF4A
:1008B0007047C1B200F01F00012202FA00F04EF2B0
:1008C0000012CEF2000242EAD10121F003010860D9
:1008D0007047000010B54EF60C5CCEF2000CDCF850
:1008E0000030C3F3022E8EF00704042C28BF04242A
:1008F000BEF103034FF0FF3E0EFA04F438BF0023AD
:10090000A14399400EFA03F39A43114300F00F02FA
:1009100000F160430901043A03F56443624400288E
:1009200048BF02F10C03197010BD00004EF60C51C7
:10093000CEF200010A684FF6FF031A4060F30A2264
:1009400042F0806040F0FD70086070472DE9F04192
:10095000002800F08B8043F60808C4F20208044621
:10096000D8F8F8030D4600F00F00884207D288F847
:10097000F853D8F8F80300F00F00A84276D12068A9
:10098000810717D5410705D5D8F8001041F4E0518B
:10099000C8F80010010705D5D8F8001041F46041EF
:1009A000C8F80010D8F80010A26821F0F001114337
:1009B000C8F80010C0073FD1D8F8F80300F00F00C6
:1009C000A84207D988F8F853D8F8F80300F00F00C8
:1009D000A8424BD12068410707D5D8F80010E2683B
:1009E00021F4E0511143C8F80010000708D5D8F8E9
:1009F0000000216920F4604040EAC100C8F800000E
:100A000000F054F8D8F8001044F28272C1F30311D8
:100A1000C0F60002515C40F2080220FA01F140F2F7
:100A20000400C2F200000068C2F200021160FFF789
:100A3000F7FE0020BDE8F0816068811E022907D220
:100A400058F8081C89015CBF0120BDE8F08111E065
:100A5000012807D158F8081C89035CBF0120BDE8B4
:100A6000F08107E058F8081C890703D40120BDE88D
:100A7000F08100BFD8F8001021F003010843C8F846
:100A80000000FFF79DFE064641F28837D8F80000C7
:100A9000616800F00C00B0EB810F8DD0FFF790FE85
:100AA000801BB842F2D90320BDE8F08110B543F6AF
:100AB0000404C4F20204606800F00C0142F2004039
:100AC0000829C0F2F40007D0042918BF10BD41F274
:100AD0000020C0F27A0010BD216801F03F022168B9
:100AE00023684902C3F3881106D4A1FB0001002347
:100AF000FFF7CCFB07E000BF41F20020C0F27A0014
:100B00004843B0FBF2F021680222C1F3014102EB3D
:100B10004101B0FBF1F010BD2DE9F04182B0002899
:100B200068D00446007843F60006C007C4F2020607
:100B30000BD0B06800F00C00042840F09F803068B3
:100B4000800302D56068002854D0207880071AD529
:100B5000B06810F00C0F09D0B06800F00C00082845
:100B600040F0A6807068400200F1A28030688007E3
:100B700002D5E06801283DD13068216920F0F800F5
:100B800040EAC10030602078000737D42078400761
:100B90004CD4A56955B3B06800F00C00082840F0AB
:100BA000BB80012D26D07068E16900F480028A4282
:100BB00020D1216A00F03F028A421BD147F6C07162
:100BC000626A0140B1EB821F14D1A16A4FF6FF7334
:100BD000C903994300F44032A1F580318A4209D11A
:100BE000E16A00F07060B0EB016F03D1002002B049
:100BF000BDE8F081012002B0BDE8F0816069002805
:100C000040F20000C4F2472076D00121C0F8801ED7
:100C1000FFF7D6FD054600BF706F8007B6D4FFF71B
:100C2000CFFD401B0228F7D9DDE000BF306C10F08B
:100C300080580AD100200190306C40F08050306420
:100C4000306C00F080500190019847F20007C4F228
:100C500000073868C00541D4386840F480703860B7
:100C6000FFF7AEFD054600BF3868C00536D4FFF774
:100C7000A7FD401B0228F7D9B5E000BFB06800F01F
:100C80000C00082803D1706840023FF558AF606837
:100C9000B0F5803F07D0B0F5A02F40F08D803068D0
:100CA00040F480203060306840F4803030608DE067
:100CB000E068002852D00020C4F2472001210160E2
:100CC000FFF77EFD054600BF306880073FF554AF53
:100CD000FFF776FD401B0228F6D984E0A0680128C2
:100CE00005D005284ED1306F40F004003067306FDA
:100CF00040F0010030674FE00021C0F8801EFFF790
:100D00005FFD0546706F80077FF540AFFFF758FD28
:100D1000401B0228F6D966E00027C4F247270020CE
:100D20003866FFF74DFD022D05460BD13068800176
:100D30005ED5FFF745FD401B02284FF00300F5D9B3
:100D400055E700BF306880017FF550AFFFF738FDF1
:100D5000401B02284FF00300F4D948E70020C4F2FA
:100D6000472000210160FFF72BFD05463068800712
:100D70007FF509AFFFF724FD401B02284FF0030069
:100D8000F4D934E7316F002821F001013167316F68
:100D900021F0040131674DD0FFF712FD054641F205
:100DA000883700BF306F800756D4FFF709FD401B1E
:100DB000B842F7D917E000BF3168002821F480312C
:100DC0003160316821F4802131604FD0FFF7F8FCA9
:100DD000054600BF306880033FF5B7AEFFF7F0FC73
:100DE000401B6428F6D9032002B0BDE8F08100BFA3
:100DF00004F11C052FCD084340EA8210D9034FF6B9
:100E0000FF729143A1F5803140EA056008437060AC
:100E100001203866FFF7D4FC044600BF306880012B
:100E20003FF5E4AEFFF7CCFC001B02284FF00300B7
:100E3000F4D9DCE6FFF7C4FC054641F2883700BF71
:100E4000306F800708D5FFF7BBFC401BB8424FF05E
:100E50000300F5D9CBE600BFB8F1000F7FF499AEDF
:100E6000306C20F08050306493E600BFFFF7A8FCA0
:100E7000054600BF306880037FF567AEFFF7A0FC32
:100E8000401B64284FF00300F4D9B0E670B538B1C8
:100E90000446406A30B10020206104F1140007E0EC
:100EA000012070BD6068B0F5827F03D004F11C00A2
:100EB000002101600026A66294F8510020B9204666
:100EC00084F8506000F03CF8022084F8510094E867
:100ED0000F0001F48271056802F4044225F0400518
:100EE0000560114403F400622369114403F0020217
:100EF0006369114403F00102A369E569114403F435
:100F00000072114405F03802256A114405F0800290
:100F1000A56A114305F4005211430160626A04217D
:100F200001EA134102F0100211444160C16921F449
:100F30000061C1610120666584F85100304670BDD2
:100F400080B586B0016843F20000C4F2010081421E
:100F500002D006B080BD00BF002143F630020191EF
:100F6000C4F20202536900F5504043F480535361C8
:100F7000536903F480530193019B0191136843F07B
:100F800001031360126802F001020192019AE0224B
:100F900001920222CDE9022103210491052105914C
:100FA00001A9FFF72DFB06B080BD00002DE9F0433D
:100FB00083B0044690F85000012803D1022003B00A
:100FC000BDE8F0834FF001091D4616460F4684F830
:100FD0005090FFF7F5FB94F85110012944D1804659
:100FE000002F4FF0010018BF002E00F0D680032024
:100FF000002184F8510061652763A686E686A16317
:10100000A187E187A0682164B0F5004F2068616482
:1010100007D1016821F040010160016841F480417D
:1010200001600168490603D4016841F04001016094
:101030006168731EE268B1FA81F1B3FA83F349097A
:101040005B09B2F5006F41EA03013DD131B137F8D8
:10105000021BC1602763E08E0138E086E08E002825
:101060006CD0681C0DD11EE0022096E0216B31F897
:10107000022BC2602163E08E0138E086E08E0028FA
:101080005CD0206881688907F0D4FFF799FBA0EB5A
:101090000800A842F2D303207FE000BFFFF790FBD7
:1010A000E08E00284AD0206881688907F6D5216B38
:1010B00031F8022BC2602163E08E0138E086E08EB9
:1010C0000028F0D13AE000BF39B139780173206BC4
:1010D00001302063E08E0138E086E08E70B3681C3A
:1010E0000BD11BE0216B09780173206B0130206369
:1010F000E08E0138E086E08E00B3206881688907C1
:10110000F0D4FFF75DFBA0EB0800A842F3D3032067
:1011100043E000BFFFF754FBE08E78B120688168A0
:101120008907F7D5216B09780173206B01302063A3
:10113000E08E0138E086E08E0028EFD140F2080012
:10114000C2F20000006849F68171C1F25E61A0FB45
:101150000101480D4FF47A71484302906068B0F580
:10116000827F23D1204680212A46434600F072FD2B
:1011700028B1606D40F02000606520206065A068A7
:1011800038B9002001902068C16801918068019001
:101190000198606D002818BF0120002184F851904B
:1011A00084F8501003B0BDE8F08300BF0298002817
:1011B000E5D0029801380290206880680006DED5EC
:1011C00002980028DBD002980138029020688068DD
:1011D0000006D4D502980028D1D002980138029098
:1011E000206880680006CAD502980028C7D00298F7
:1011F00001380290206880680006D7D4BFE700005D
:10120000411E0020B0EB116F1CBF012070474EF251
:101210001002CEF2000251604EF62351CEF20001D0
:10122000F0230B7007219060116070477047000039
:101230007047000010B590F83C20012A4FF00202E0
:1012400051D080F83D200268D2F804E0D2F808C0FE
:101250000C682EF07003234341F2FF74C4F20004C3
:10126000A24253600EDC40F2FF73C4F200039A42C4
:1012700016DCB2F1804F2BD040F20043C4F20003E1
:1012800024E000BF40F2FF33C4F201039A4213DCB2
:1012900041F60003C4F200039A4219D0002313E080
:1012A00040F60003C4F200039A4211D040F6004316
:1012B000C4F200030AE000BF44F20003C4F20103D9
:1012C0009A4205D040F20043C4F201039A4204D18D
:1012D00049682CF08003194391600121002280F8B5
:1012E0003D1080F83C20104610BD0000002804BFCF
:1012F0000120704710B5044690F83D0028B9002041
:1013000084F83C00204600F01FF8022084F83D00DD
:101310002068211D00F09EFD012084F8460084F81D
:101320003E0084F83F0084F8400084F8410084F8CF
:10133000420084F8430084F8440084F8450084F8AF
:101340003D00002010BD000080B582B00068B0F103
:10135000804F1CBF02B080BD0020019043F64000CA
:10136000C4F202000168002241F00101016000683E
:10137000052100F00100019001981C20FFF7AAFA56
:101380001C2002B0BDE88040FFF790BA90F83D10F5
:1013900001291CBF01207047022180F83D10006820
:1013A00041F2FF72C168C4F20002904241F00101B3
:1013B000C1600DDC40F2FF71C4F20001884215DC0F
:1013C000B0F1804F2AD040F20041C4F2000123E086
:1013D00040F2FF31C4F20101884213DC41F6000102
:1013E000C4F20001884219D0002113E040F6000148
:1013F000C4F20001884211D040F60041C4F200015D
:101400000AE000BF44F20001C4F20101884205D0A5
:1014100040F20041C4F20101884206D1816801F026
:101420000701062904BF00207047016841F001014F
:1014300001600020704700000146006841F211136E
:10144000C26822F00102C260026A1A4204D001227C
:10145000002081F83D207047026A40F244431A425E
:10146000F5D1026822F0010202600122002081F819
:101470003D20704780B590F83C20012A4FF00202D1
:1014800000F0C28080F83D20D0F800C04FF677729F
:10149000DCF8083023EA0202CCF808200B684F2B56
:1014A00028DC1F2B44DD202B45D0302B43D0402B94
:1014B00040F0AC80D1F804E0C968DCF82030DCF8FA
:1014C000202022F00102CCF82020DCF8182022F0A5
:1014D000F00242EA011123F00A0242EA0E02CCF8BD
:1014E0001810CCF82020DCF8081041F0470121F05A
:1014F000300180E06F2B27DDB3F5005F48D0B3F5F6
:10150000805F7AD0702B40F08180D1E901E3C96817
:10151000DCF8082043EA0E0322F47F4243EA01216B
:101520001143CCF80810DCF8081041F0770162E0B4
:101530000BB1102B6AD1DCF8081021F070011943AF
:1015400041F0070157E000BF502B35D0602B5DD133
:10155000D1F804E0C968DCF8203023F01003CCF89F
:101560002030DCF81830DCF8202023F4704322F01F
:10157000A00243EA013142EA0E12CCF81810CCF86E
:101580002020DCF8081041F0670121F0100132E062
:10159000D1E901E3C968DCF8082043EA0E0322F42C
:1015A0007F4243EA01211143CCF80810DCF808100F
:1015B00041F480411FE000BFD1F804E0C968DCF8C5
:1015C0002030DCF8202022F00102CCF82020DCF8CA
:1015D000182022F0F00242EA011123F00A0242EA46
:1015E0000E02CCF81810CCF82020DCF8081041F0DE
:1015F000570121F02001CCF808100022012180F8C9
:101600003D10002180F83C10104680BD0122F5E716
:101610007047000010B5016804460869800744BFA0
:10162000C8685FEA807039D40869400744BFC86859
:101630005FEA40703ED40869000744BFC8685FEAAB
:10164000007045D40869C00644BFC8685FEAC0603E
:101650004AD40869C0071CBFC8685FEAC07051D18E
:101660000869000644BFC8685FEA006052D4086990
:10167000400644BFC8685FEA406053D408698006EA
:1016800046BFC8685FEA806010BD6FF02002204648
:101690000A61BDE81040FFF7CBBD00BF6FF002004C
:1016A0000861012020778869800743D02046FFF732
:1016B000AFFF45E06FF004000861022020778869E1
:1016C00010F4407F40D02046FFF7A2FF42E000BF69
:1016D0006FF00800086104202077C86980073DD0BA
:1016E0002046FFF795FF3FE06FF0100008610820EB
:1016F0002077C86910F4407F3AD02046FFF788FF72
:101700003CE000BF6FF001000861204600F03EF8A9
:101710002168A5E76FF0800008612046FFF786FD8D
:101720002168A4E76FF040000861204600F046F809
:101730002168A3E7204600F025F8204600F024F8B1
:101740002168002020776FE7204600F01BF8204634
:1017500000F01AF82168002020776CE7204600F09E
:1017600011F8204600F010F821680020207769E782
:10177000204600F007F8204600F006F82168002017
:10178000207766E7704700007047000040F2442170
:10179000C2F20001884218BF704740F2C000C2F296
:1017A00000000188CA087C2A02D8013101807047F4
:1017B000418801314180002101807047704700005D
:1017C000FEE700002DE9F04F81B041F2004440F205
:1017D000EC15C4F2020404264FF0000AC2F2000520
:1017E0000DF103080DF102074FF00A0B4FF0090944
:1017F0000F208DF8030020464FF4005100228DF891
:1018000002A0FEF7D7FF2846414601226423FFF7D6
:10181000CDFB2846394601226423FFF7C7FB20464B
:101820004FF400510122FEF7C5FF0C208DF8030094
:1018300001208DF8020020464FF400510022FEF7EF
:10184000B9FF2846414601226423FFF7AFFB284633
:10185000394601226423FFF7A9FB20464FF40051CB
:101860000122FEF7A7FF0B208DF8030007208DF85B
:10187000020020464FF400510022FEF79BFF28464D
:10188000414601226423FFF791FB28463946012295
:101890006423FFF78BFB20464FF400510122FEF733
:1018A00089FF20464FF4005100228DF803B08DF8D7
:1018B00002A0FEF77FFF2846414601226423FFF77E
:1018C00075FB2846394601226423FFF76FFB20464B
:1018D0004FF400510122FEF76DFF20464FF40051F6
:1018E00000228DF803908DF802A0FEF763FF2846D2
:1018F000414601226423FFF759FB2846394601225D
:101900006423FFF753FB20464FF400510122FEF7FA
:1019100051FF013E7FF46CAF40F2EC1501264FF011
:101920000009C2F200050DF103080DF1020700BF26
:1019300020464FF4005100228DF803608DF802908C
:10194000FEF738FF2846414601226423FFF72EFBAD
:101950002846394601226423FFF728FB20464FF42E
:1019600000510122FEF726FF20464FF400510022CD
:101970008DF803608DF80290FEF71CFF2846414663
:1019800001226423FFF712FB284639460122642313
:10199000FFF70CFB20464FF400510122FEF70AFF2F
:1019A00020464FF4005100228DF803608DF802901C
:1019B000FEF700FF2846414601226423FFF7F6FAAE
:1019C0002846394601226423FFF7F0FA20464FF4F7
:1019D00000510122FEF7EEFE20464FF40051002296
:1019E0008DF803608DF80290FEF7E4FE284641462C
:1019F00001226423FFF7DAFA2846394601226423DC
:101A0000FFF7D4FA20464FF400510122FEF7D2FE30
:101A10000136092E8CD101B0BDE8F08F80B541F6BA
:101A2000655044F29472C0F60000C0F60002002136
:101A300000F074FB40F2E811C2F20001086080BDC2
:101A4000F0B587B0002643F63000CDE90566019673
:101A5000C4F20200016841F2004441F0100101604B
:101A60000168C4F2020401F010010191019901968C
:101A70000168002241F00401016001684FF4005741
:101A800001F00401019101990196016841F0800182
:101A90000160016801F080010191019901960168DE
:101AA00041F001010160016801F00101019101991A
:101AB0000196016841F02001016000684FF4005177
:101AC00000F02000019001982046FEF773FE3820B8
:101AD00002904FF4881002ADCDE90306A4F58060B2
:101AE0002946FEF78DFD0120CDE903062046294653
:101AF00002970596FEF784FD092005210022FEF7D6
:101B0000E9FE0920FEF7D2FE0A2005210022FEF799
:101B1000E1FE0A20FEF7CAFE172005210022FEF78B
:101B2000D9FE1720FEF7C2FE07B0F0BD80B540F227
:101B3000EC1043F20001C2F20000C4F201014FF4C4
:101B40008272002380E80E0000F114014FF4007C43
:101B50004FF0200E81E808500A21C0E90333C0E9A4
:101B60000833C0E90A31FFF791F9002808BF80BDAA
:101B7000BDE88040FEF7F6BC80B586B040F2442058
:101B80000021C2F200004FF08042532340F2E73CB4
:101B90000591CDE90311CDE90011C0E90023C0E9A9
:101BA000021C01618161FFF7A1FB002818BFFEF74D
:101BB000D9FC4FF48050029040F24420C2F2000061
:101BC00002A9FFF757FC002818BFFEF7CBFC40F234
:101BD0004420C2F200006946FFF72CFB002818BF22
:101BE000FEF7C0FC06B080BDFEE70000FEE7000087
:101BF000EFF30980BFF36F8F154B1A681EF0100FBB
:101C000008BF20ED108A20E9F04F10602DE909008F
:101C10004FF0500080F31188BFF34F8FBFF36F8FE9
:101C200001F008FE4FF0000080F31188BDE80900C4
:101C300019680868B0E8F04F1EF0100F08BFB0EC4C
:101C4000108A80F30988BFF36F8F704700BF00BF11
:101C5000E00000202DE9F04182B01E4690460D467E
:101C60000446FEF7ADFD301A00EB0807FEF7A8FDAD
:101C700040F20801C2F200010968C1F3CB31794397
:101C8000019121688A682A40AA4227D1064618F1A4
:101C900001001FD0FEF794FD801BB84222D20198AC
:101CA00001990028A1F1010101912168896808BF0B
:101CB000074601EA0500A842ECD00FE088682840FA
:101CC000A8420BD188682840A84207D188682840DC
:101CD000A84203D188682840A842EFD0002002B073
:101CE000BDE8F081D4E900014268B1F5827F22F0BD
:101CF000E00242600AD1A168B1F5004F02D0B1F50F
:101D0000806F03D1016821F040010160A16AB1F543
:101D1000005F07D1016821F400510160016841F4BE
:101D200000510160012084F85100002084F8500027
:101D3000032002B0BDE8F0810000000000000000B8
:101D4000074B19680868B0E8F04F80F30988BFF3C3
:101D50006F8F4FF0000080F31188704700BF00BF05
:101D6000E0000020012000F097F9FBE780B5FEF7C6
:101D70002DFD02F00FFB012808BF80BDBDE88040AB
:101D800001F078BEB0B592B0002443F64000CDE932
:101D90000A44CDE908440594CDE90344CDE9014462
:101DA0000094C4F202000168022541F080510160F4
:101DB000006800F080500090009847F20000009406
:101DC000C4F20000016841F440410160006800F481
:101DD000404000900098012006904FF4803007901A
:101DE0004FF480000D9004200E90A820CDE90F053F
:101DF0000720119006A80C95FEF78EFE20B1EFF398
:101E0000108072B6FEE700BF0F20CDE901054FF448
:101E1000A05004904FF48050059001A80521039430
:101E2000FEF794FD20B1EFF3108072B6FEE700BF1D
:101E300012B0B0BD4EF68850CEF20000016841F4F9
:101E4000700101607047000040F24420C2F20000BF
:101E5000FFF7E0BB10B540F6FF3E0368C4F2000E8A
:101E600040F2004C7045C4F2010C27DCB0F1804F09
:101E700031D040F20042C4F2000290422BD040F632
:101E80000002C4F20002904225D041F6FF72C4F273
:101E90000002904229DC70453CDCB0F1804F5FD0FD
:101EA00040F20042C4F20002904259D040F60002D3
:101EB000C4F20002904253D056E000BF40F6004208
:101EC000C4F20002904206D0604504D00022C4F261
:101ED00001029042D9D14A6823F07003134341F6BE
:101EE000FF72C4F200029042D5DD43F6FF72C4F2E5
:101EF0000102904222DC42F20002C4F2000290424F
:101F00002ED00022C4F20102904229D0604527D091
:101F10002AE000BF40F60042C4F2000290421FD007
:101F200041F60002C4F20002904219D041F600428C
:101F3000C4F20002904213D016E000BF44F2000247
:101F4000C4F2010290420BD044F60002C4F2010236
:101F5000904205D044F20042C4F20102904203D103
:101F6000CA6823F44073134323F080024B69D1F80D
:101F700000E08C681A430260C46240F48062C0F8DA
:101F800028E0624504BF096901630121416110BD78
:101F9000FEE70000F0B581B041F20044C4F2020453
:101FA0000D468DF8030020464FF400510022FEF745
:101FB00001FC40F2EC16C2F200060DF103073046B8
:101FC000394601226423FEF7F1FF304629460122FB
:101FD0006423FEF7EBFF3046394601226423FEF707
:101FE000E5FF691C304601226423FEF7DFFF30461F
:101FF000394601226423FEF7D9FFA91C304601228D
:102000006423FEF7D3FF3046394601226423FEF7EE
:10201000CDFFE91C304601226423FEF7C7FF2046AE
:102020004FF400510122FEF7C5FB01B0F0BD0000E6
:1020300082B0FEF7D9FBFFF7A5FEFFF701FDFFF722
:1020400075FDFFF799FDFFF7BDFB40F2C0050120CC
:10205000C2F20005009042F6A54005F11C04C0F64E
:1020600000000BA14FF400720023019402F026F946
:1020700003200121002201F015FD686001F05AFBE8
:1020800000F01AF8FFF7CAFC00F02AF8FEE700BFDC
:102090004D61747269780000EFF3058100291CBF5F
:1020A0006FF005007047002804BF0020704780B51E
:1020B00001F076FA002080BDEFF3058000281CBFF8
:1020C0006FF00500704740F2E410C2F200000168B2
:1020D000002911BF4FF0FF3001210160002070473F
:1020E00010B5EFF3058000281CBF6FF0050010BD90
:1020F00040F2E410C2F20000016801291CBF4FF059
:10210000FF3010BD4EF61F51CEF2000100240C70BE
:102110000221016001F00EFB204610BD2DE9F041C7
:1021200084B08E4600240394EFF3058150B149B981
:102130004FF0000452B19369002B08BF1823382BCD
:1021400016D90024204604B0BDE8F081802518236C
:10215000002103AF0093AAB27346019702F0AEF8D4
:102160000399012808BF0C46204604B0BDE8F08161
:102170001179C90724D15769D2E902864FEA970C31
:102180001168002F654608BF8025B8F1000F13D0F5
:102190005C2E15D312690024002A18BF002FD1D05D
:1021A000CDE9003262467346CDF8088002F0B6F8F9
:1021B00004B0BDE8F08100BF16B91269002AC8D08A
:1021C0000024204604B0BDE8F08100002DE9F04174
:1021D000044601F073F840F2E006C2F20006F0682F
:1021E00040F27C350130F0603068C2F2000558B131
:1021F0003069002840F007813068E16AC06A88428F
:1022000098BF3460FFE000BF3460F068012840F000
:10221000FA80284600F0F8FF05F1140000F0F4FF02
:1022200005F1280000F0F0FF05F13C0000F0ECFFA4
:1022300005F1500000F0E8FF05F1640000F0E4FF54
:1022400005F1780000F0E0FF05F18C0000F0DCFF04
:1022500005F1A00000F0D8FF05F1B40000F0D4FFB4
:1022600005F1C80000F0D0FF05F1DC0000F0CCFF64
:1022700005F1F00000F0C8FF05F5827000F0C4FF22
:1022800005F58C7000F0C0FF05F5967000F0BCFFFE
:1022900005F5A07000F0B8FF05F5AA7000F0B4FFD6
:1022A00005F5B47000F0B0FF05F5BE7000F0ACFFAE
:1022B00005F5C87000F0A8FF05F5D27000F0A4FF86
:1022C00005F5DC7000F0A0FF05F5E67000F09CFF5E
:1022D00005F5F07000F098FF05F5FA7000F094FF36
:1022E00005F5027000F090FF05F5077000F08CFF17
:1022F00005F50C7000F088FF05F5117000F084FF03
:1023000005F5167000F080FF05F51B7000F07CFFEE
:1023100005F5207000F078FF05F5257000F074FFDA
:1023200005F52A7000F070FF05F52F7000F06CFFC6
:1023300005F5347000F068FF05F5397000F064FFB2
:1023400005F53E7000F060FF05F5437000F05CFF9E
:1023500005F5487000F058FF05F54D7000F054FF8A
:1023600005F5527000F050FF05F5577000F04CFF76
:1023700005F55C7000F048FF05F5617000F044FF62
:1023800005F5667000F040FF05F56B7000F03CFF4E
:1023900005F5707000F038FF05F5757000F034FF3A
:1023A00005F57A7000F030FF05F57F7000F02CFF26
:1023B00005F5826000F028FF05F2244000F024FFBC
:1023C00005F5876000F020FF05F24C4000F01CFF8F
:1023D00040F2BC18C2F20008404600F015FF08F1B8
:1023E0001407384600F010FF06F1640000F00CFFFF
:1023F00006F13C0000F008FF06F1500000F004FF79
:10240000C6F81C8037627068716A421CE06A7260AC
:102410008842626488BF706200EB800005EB800038
:10242000211D00F033FF00F06DFF306988B1306886
:10243000E16AC06A884228BFBDE8F0814EF60450C8
:10244000CEF200004FF080510160BFF34F8FBFF319
:102450006F8FBDE8F081000040F2E00540F27C366D
:102460004EF60458C2F20005C2F20006CEF2000891
:102470004FF0805703E000BF204600F05BFFA868E4
:10248000D0B100F01BFFA86CC468201D00F08EFEC8
:10249000E8680138E860A8680138A86000F032FFF9
:1024A00094F859000228EAD00128E5D070B9206BD1
:1024B00000F040FFE0E700BF30680228DFD3C8F833
:1024C0000070BFF34F8FBFF36F8FD8E74FF050000E
:1024D00080F31188BFF36F8FBFF34F8FFEE70000CB
:1024E0002DE9F0470A9C8246206B16460F46DDE92F
:1024F00008599100A5229846FDF785FF206B002F13
:1025000000EB8600A0F1040020F0070656D03878D2
:1025100084F83400387800284BD0787884F8350077
:102520007878002845D0B87884F83600B878002844
:102530003FD0F87884F83700F878D0B3387984F849
:1025400038003879A8B3787984F83900787980B37D
:10255000B87984F83A00B87958B3F87984F83B0030
:10256000F87930B3387A84F83C00387A08B3787A4E
:1025700084F83D00787AE0B1B87A84F83E00B87A01
:10258000B8B1F87A84F83F00F87A90B1387B84F8D3
:102590004000387B68B1787B84F84100787B40B19B
:1025A000B87B84F84200B87B00281CBFF87B84F815
:1025B0004300002084F8430003E000BF002084F8BB
:1025C00034000027201D372D28BF3725E562C4E9D8
:1025D000135700F025FE04F1180000F021FEC5F1AC
:1025E0003800A06130465146424624616462676506
:1025F00084F8587000F042FBB9F1000F206018BF5A
:10260000C9F80040BDE8F08708480068006880F31A
:1026100008884FF0000080F3148862B661B6BFF3FB
:102620004F8FBFF36F8F00DF00BF000008ED00E0A9
:1026300081B00020009040F25C00C2F2000000680F
:102640004FF0500181F31188BFF36F8FBFF34F8FAD
:10265000013007D0FEE700BF009830B9009820B9DC
:10266000009810B900980028F6D001B0704700001B
:1026700088B040F2581AC2F2000A0DF11009EB4678
:10268000DAF8080005681DB1C068046801E000BF01
:10269000002401F0C7F801F08DFEDAF810100646AC
:1026A000884220D3002DCAF8106051D0A6424FD3E3
:1026B00001F088FFDAF80800C068C7683D1D2846A9
:1026C00000F074FD97F82800410745D400F0FE00A3
:1026D00087F8280084E000BF6860DAF8080039460F
:1026E0002D6100F0A1FDDAF80800016831B3C0687F
:1026F000C56804682F1D384600F058FD296A284631
:10270000884795F828004007EDD5A8692044A042E5
:10271000E2D8DAF80000002800F04881002004A97F
:1027200031C101F037FEDAF80000494600220023EB
:1027300001F06CFA0028D6D138E100BFDAF80C10AD
:10274000CAF81060CAE9021001F03CFF1AE100BFAC
:1027500065B1002210E000BFB8693F610119B142C4
:1027600079601FD90AF1080021E000BFDAF80C00F7
:102770000068B0FA80F04209DAF80000A11B00F00E
:10278000E5FE01F01FFF002840F0FC804EF60450EB
:10279000CEF200004FF080510160BFF34F8FBFF3C6
:1027A0006F8FEFE0311B814206D20AF10C00006806
:1027B000294600F039FD13E0DAF80000002800F0A7
:1027C0001381002004A991C101F0E4FDDAF80000B2
:1027D00049460022002301F019FA002800F0048184
:1027E000396A38468847CDE00098B0F1FF3F07DCF2
:1027F000DDE90120039990470098002800F1C2808C
:10280000029E706910B1301D00F0D0FC01F0D2FDC5
:10281000DAF81010074688420DD30098CAF81070F5
:1028200009283FD9AEE000BF6860DAF80800214609
:102830002D6100F0F9FCDAF80800016841B3C068C6
:10284000C568D0F800802C1D204600F0AFFC296A36
:102850002846884795F828004007ECD5A8694044E9
:102860004045E1D8DAF80000002800F0958000200B
:10287000CDE90408069501F08DFDDAF8000049461F
:102880000022002301F0C2F90028D4D184E000BF67
:10289000DAF80C10CAE902100098CAF8107009287A
:1028A00000F27080DFE800F0060606444862060683
:1028B000444800BF96F82800019A40F00101B06931
:1028C00086F828108318314641F8043FBB42366130
:1028D00006D997420AF1080007D293420AD204E0CF
:1028E000BA1A824206D20AF10C00006800F09CFC81
:1028F00048E000BF316A3046884796F82800400714
:1029000040D5DAF8000000285AD00198B16906963F
:1029100008440021CDE9041001F03CFDDAF8000084
:1029200049460022002301F071F958BB48E000BF7E
:1029300096F8280022E000BF96F8280040F0010138
:10294000019886F828100028B06143D038443146F9
:102950000AF10C0241F8040F3661B84288BF0AF14F
:102960000802106800F060FC0CE000BF96F8280038
:10297000810703D4304600F0DDFC03E000F0FE00E8
:1029800086F82800DAF800005946002201F000FB22
:1029900000287FF429AF73E64FF0500080F31188D0
:1029A000BFF36F8FBFF34F8FFEE700BF4FF05000B4
:1029B00080F31188BFF36F8FBFF34F8FFEE700BF27
:1029C0004FF0500080F31188BFF36F8FBFF34F8F2C
:1029D000FEE700BF4FF0500080F31188BFF36F8F08
:1029E000BFF34F8FFEE700BF4FF0500080F3118818
:1029F000BFF36F8FBFF34F8FFEE70000F0B581B0DC
:102A0000044600F05BFC94F94560012E0FDB04F1F5
:102A1000240500BF286850B1284601F099FD002820
:102A200018BF00F007FEF0B2013E0128F2D8FF26E1
:102A300084F8456000F066FC00F040FC94F94470B6
:102A4000012F0EDB04F11005286850B1284601F073
:102A50007FFD002818BF00F0EDFDF8B2013F01280E
:102A6000F2D884F8446001B0BDE8F04000F04ABC00
:102A700070B5044600F0D6FE40F2941CC2F2000C81
:102A8000DCF8040050B19CF80000002818BF4FF09B
:102A900000404FF0000574BB8DE000BF40F2DC70D9
:102AA000C2F20000C21D22F0070210F00701A0EBE5
:102AB000020318BF104600224FF47055CCE90602FD
:102AC000002918BF03F57055411921F00701A1F144
:102AD0000803CCF8043041E90222191AC0E9003198
:102AE00001208CF800004FF00040CCE90211002CCE
:102AF0004FF000055FD020405DD124F0070000F1C9
:102B00001002600708BF04F10802002A4FF0000518
:102B100051D0DCF8080082424DD8604650F818EFDA
:102B2000DEF8045095422CD2DEF80010C1B1744694
:102B30004D68954218D20B68B3B15D68954217D2C3
:102B40001868A8B14568954216D20468A4B16568B2
:102B5000954215D22168A6460029E9D111E000BFAF
:102B60000CF118000DE000BF8E46204609E000BFC2
:102B70009E46084605E000BF8646184601E000BFB5
:102B8000A646DCF804108E4514D00168DEF800403B
:102B9000AB1A112B04604DD30EEB0205680719D058
:102BA0004FF0500080F31188BFF36F8FBFF34F8F4A
:102BB000FEE700BF002501F005FD68075BD04FF080
:102BC000500080F31188BFF36F8FBFF34F8F00BFAA
:102BD000FEE700BF0CF118006B60CEF8042000BFC8
:102BE0000368AB420AD21868A8420BD20368AB4212
:102BF00004D218681A46A842F2D304E002461846E6
:102C000001E000BF1A4653686C68D618AE4202D184
:102C10001C44154654602B19834207D1DCF804305C
:102C2000984203D0D0E9000323446B60AA42286095
:102C300018BF156001F10805DEF80400DCE9021296
:102C4000091A9142CCF8081038BFCCF80C109CF847
:102C50000010002918BF40F00040CEF80400DCF856
:102C6000100000210130CEF80010CCF8100001F067
:102C7000A9FC6807A3D1284670BD0000034642F2B4
:102C80003160C0F600004FF0807C21F0010103E9C3
:102C900003106FF0020043F8240CA3F1440043F842
:102CA000202C704788B040F2C00740F2442540F223
:102CB0000C0B0020C2F200070DF11F04C2F2000548
:102CC000C2F2000B8DF81F0003E000BF2846FEF79C
:102CD000B3FB78682146002201F02CFA9DF81F0012
:102CE00001286FD00228F1D0032840F0F381286832
:102CF000002141629BF80000396040EA00113E4625
:102D000006F8141F39767975F975B87501203146C2
:102D1000FFF740F99BF8010040EA00117976317025
:102D20007975F975B87502203146FFF733F99BF8CC
:102D3000020040EA0011B97631707975F975B875FD
:102D400003203146FFF726F99BF8030040EA001103
:102D5000F97631707975F975B87504203146FFF749
:102D600019F99BF8040040EA001139773170797540
:102D7000F975B87505203146FFF70CF99BF8050089
:102D800040EA0011797731707975F975B8750620C8
:102D90003146FFF7FFF89BF8060040EA0011B977CB
:102DA00031707975F975B87507203146FFF7F2F87B
:102DB0009BF8070040EA0011F97731707975F975D1
:102DC00085E100BF2846FEF7E1FA3A884CF6CD4887
:102DD00090B200FB08F0C10C01EB8100A2EB4000B7
:102DE00080B2059001FB08F3920841F27B40DB0CB6
:102DF000424303EB8303520CA1EB430102FB08F3B4
:102E0000DB0C7E8803EB8303A2EB430AB2B202FB26
:102E100008F2D50C05FB08F4E40C04EB840405EB84
:102E20008502A5EB44051FFA85FEB50845436D0CE8
:102E300005FB08F3DB0C03EB8303A5EB43039DB217
:102E4000F30842F2C50043431B0DCD20A6EB42021E
:102E500003FB00F6F60A06EB8606A3EB46031FFA11
:102E600082F9DCB21FFA81FC1BF835601BF83400D4
:102E70001BF839101BF83E20059B46EA001041EA7A
:102E800002111BF833201BF83C60387242EA06122C
:102E90003E4606F8140F1FFA8AF0397379751BF84D
:102EA00030100BEBC508B97540F20C01C2F20001FD
:102EB00001EBC40440F20C01C2F2000101EBC905B0
:102EC00040F20C01C2F2000101EBCE01039140F28D
:102ED0000C01C2F2000101EBC30A40F20C01C2F284
:102EE000000101EBCC0B40F20C01C2F2000101EB3E
:102EF000C009012031463A74FA7502940695CDF85E
:102F000010A0CDF814B0FFF745F898F801006178EB
:102F10009BF8013040EA01106978039D78726A7865
:102F2000307041EA02119AF8012099F80100797392
:102F300042EA03127975B875022031467A74CA469E
:102F4000CDF80490FA75FFF725F8029C98F8020076
:102F5000A178AA7840EA01100699049D8978DDF8E5
:102F60001490B87241EA0211AA7899F802303070D0
:102F70009AF80200B97342EA03127975B875032012
:102F80003146BA74FA75FFF705F898F80300E1784E
:102F9000039C40EA01100699C246CDF80080C9782A
:102FA000E278DDF80480F87241EA0211EA7899F8D3
:102FB0000330307098F80300F97342EA0312797510
:102FC000B87504203146CB46FA74FA75FEF7E2FF75
:102FD0009AF80400DDF808A0DDF818909AF80410BB
:102FE000227940EA011099F80410049D387341EAEF
:102FF00002112A799BF80430307098F80400397473
:1030000042EA03127975B87505203146FA75FEF764
:10301000C1FFDDF800B09AF805109BF80500627951
:1030200040EA011099F80510787341EA02116A79B3
:10303000059D30706B7998F80500797442EA0312A7
:103040007975B87506203146FA75FEF7A3FF9BF82F
:1030500006009AF80610A27940EA011099F80610C5
:10306000DDF81090B87341EA021199F80620AB79A7
:10307000307098F80600B97442EA03127975B87591
:1030800007203146FA75FEF785FF9BF807009AF88E
:103090000710E27940EA01100699059BC979DB79AE
:1030A00041EA021199F8072040F20C0B40F2442546
:1030B000F87342EA0312307098F80700C2F2000B6E
:1030C000C2F200050DF11F04F9747975FA75B8752F
:1030D00066E000BF9BF800003E4640EA001106F89B
:1030E000141F31717170F170B07001203146FEF71C
:1030F00051FF9BF8010040EA00117171317071704D
:10310000F170B07002203146FEF744FF9BF80200D8
:1031100040EA0011B17131707170F170B07003202C
:103120003146FEF737FF9BF8030040EA0011F171CA
:1031300031707170F170B07004203146FEF72AFFD3
:103140009BF8040040EA0011317231707170F17027
:10315000B07005203146FEF71DFF9BF8050040EAE0
:103160000011717231707170F170B07006203146CB
:10317000FEF710FF9BF8060040EA0011B1723170B3
:103180007170F170B07007203146FEF703FF9BF8B5
:10319000070040EA0011F17231707170F170B07087
:1031A00008203146FEF7F6FE93E50000D0E9013233
:1031B00001699A60D1F804C082688445536008BFF1
:1031C0004A60002202610868013808600868704798
:1031D00044F2E053C2F20003036044F2E030C2F272
:1031E00000000860802010607047000044F63C2317
:1031F000C2F20003036044F23C60C2F200000860C7
:103200004FF48070106070474FF0FF31024642F873
:10321000081F00214260C0E90322016070470000DE
:10322000002101617047000010B5D1F800E01EF1E7
:10323000010213D000F1080462681368734511D8C5
:1032400053681C68744511D85A68146874450FD8BF
:1032500054682368A4467345EED90BE00269D2F89E
:1032600004C007E09446224604E000BF9C4601E00B
:1032700094461A46C1F804C0CCF808108A60516020
:10328000086101680131016010BD0000D0F800C084
:10329000436808619A684B608A609A6899605160D7
:1032A0000CF1010101607047DFF80C00016841F486
:1032B000700101607047000088ED00E04FF05000A1
:1032C00080F31188BFF36F8FBFF34F8F40F25C0024
:1032D000C2F2000001684A1C026009B1704700BFD9
:1032E0004EF60450CEF200000068000608BF70479A
:1032F0004FF0500080F31188BFF36F8FBFF34F8FF3
:10330000FEE7000040F25C00C2F20000016839B143
:103310000139016018BF7047002080F311887047A1
:103320004FF0500080F31188BFF36F8FBFF34F8FC2
:10333000FEE7000070B5002808BF70BD40F294158C
:10334000C2F200050446287854F8041C002818BF6F
:103350004FF0004008420DD0A4F1080632689AB13F
:103360004FF0500080F31188BFF36F8FBFF34F8F82
:10337000FEE700BF4FF0500080F31188BFF36F8F5E
:10338000BFF34F8FFEE700BF21EA000044F8040CB2
:1033900000F048FA54F8041CA8680844A86005F135
:1033A000180000BF0368B3420AD21868B04225D2A1
:1033B0000368B34204D218681A46B042F2D301E05F
:1033C000024618465368D418B44202D1194416462E
:1033D00051607318834206D16B68984203D0D0E9DC
:1033E000000319447160B242306018BF166068690A
:1033F00001306861BDE8704001F0E4B81A465368D6
:10340000D418B442E5D1E1E74EF21000CEF200004C
:1034100000210160816040F20801C2F200010968E8
:1034200044F6D352C1F26202A1FB02124FF0FF3107
:1034300001EB9211416007210160704740F2B41026
:10344000EFF305811029C2F2000011D34EF2F032E1
:10345000CEF20002895C0278914209D24FF050000E
:1034600080F31188BFF36F8FBFF34F8FFEE700BF6C
:103470004EF60C51CEF200010968406801F4E0619B
:10348000814298BF70474FF0500080F31188BFF31E
:103490006F8FBFF34F8F00BFFEE7000044F6982CFC
:1034A000C2F2000CDCF8002022B3634653F8082F68
:1034B00042B3634653F8102F52B3634653F8182FA4
:1034C00062B3634653F8202F72B3634653F8282F34
:1034D00082B3634653F8302F92B3634653F8382FC4
:1034E000002A18BF7047072219600CEBC201486020
:1034F000704700BF0022634619600CEBC2014860B0
:10350000704700BF012219600CEBC2014860704790
:10351000022219600CEBC201486070470322196057
:103520000CEBC20148607047042219600CEBC20129
:1035300048607047052219600CEBC2014860704773
:10354000062219600CEBC2014860704770B5154641
:103550000E460446FFF7B2FE94F84400FF2804BF6D
:10356000002084F8440094F84500FF2804BF0020A0
:1035700084F84500FFF7C6FEA06B28B12046BDE8E1
:103580007040FFF73BBA00BF04F1240031462A46E1
:1035900000F092F82046BDE87040FFF72FBA000017
:1035A00070B588B340F2E005C2F2000504466869D0
:1035B00050B14FF0500080F31188BFF36F8FBFF30D
:1035C0004F8F00BFFEE700BF686901306861AE69D8
:1035D00028680430FFF7EAFD2868A419446005D381
:1035E000286A29680431FFF71FFE08E0E8692968A6
:1035F0000431FFF719FEE86A844238BFEC6200F03C
:10360000E1FF002818BF70BD4EF60450CEF2000056
:103610004FF080510160BFF34F8FBFF36F8F70BDCC
:1036200040F2E001C2F200018A6B026089694160E8
:103630007047000040F2E000C2F200000121016387
:103640007047000070B5D8B140F2E004C2F2000447
:103650000D4621681831FFF7E7FDA66920680430A0
:10366000FFF7A4FD681C15D02068AD19456019D37B
:10367000206A21680431BDE87040FFF7D5BD00BF66
:103680004FF0500080F31188BFF36F8FBFF34F8F5F
:10369000FEE700BF54F8500B011D2046BDE8704006
:1036A000FFF7F4BDE06921680431FFF7BDFDE06A72
:1036B000854238BFE56270BDF0B581B0C0B140F25F
:1036C000E004C2F200040D46216816461831FFF7E7
:1036D000DDFDA76920680430FFF768FD96B154F856
:1036E000500B011D204601B0BDE8F040FFF7CEBDF4
:1036F0004FF0500080F31188BFF36F8FBFF34F8FEF
:10370000FEE700BF2068ED19456007D3206A2168F5
:10371000043101B0BDE8F040FFF786BDE0692168E3
:103720000431FFF781FDE06A854238BFE56201B0F0
:10373000F0BD000010B588B00020CDE9050006A856
:1037400005A904AAFFF744FD059800283ED0069C71
:10375000002C45D05C21049A079107995C2949D136
:1037600007992063022084F8590007A80021CDE9B9
:10377000001042F25940C0F6000028A10023029434
:10378000FEF7AEFE2046FEF721FD079840F2E0046A
:10379000C2F20004A062B0B100F08CFF411C33D033
:1037A000012810D14FF0500080F31188BFF36F8FC4
:1037B000BFF34F8F4FF0FF30E06201202061002007
:1037C000A06100F095F808B010BD00BF4FF05000A8
:1037D00080F31188BFF36F8FBFF34F8FFEE700BFF9
:1037E0004FF0500080F31188BFF36F8FBFF34F8FFE
:1037F000FEE700BF4FF0500080F31188BFF36F8FDA
:10380000BFF34F8FFEE700BF4FF0500080F31188E9
:10381000BFF36F8FBFF34F8FFEE700BF49444C45A6
:103820000000000040F2E000C2F2000041690131F6
:103830004161704780B540F2E00EC2F2000EDEF842
:10384000141019B10121CEF8301080BD0021CEF83E
:103850003010DEF8241040F27C3C01EB8103C2F210
:10386000000C5CF823208AB101EB81020CEB82038F
:1038700053F8042F5268181D82421A6020D0D06875
:10388000CEF80000CEF8241080BD00BF0CEB830200
:10389000A2F12803E1B15A6922BB012918D01A68A4
:1038A00012BB022914D053F8142CFAB903290FD0F3
:1038B00053F8282C0439002AA3F15003EAD0D3E7A7
:1038C00052681A60D068CEF80000CEF8241080BD8F
:1038D0004FF0500080F31188BFF36F8FBFF34F8F0D
:1038E000FEE700BF0139BFE70239BDE70339BBE797
:1038F000B0B584B04EF2004CCEF2000C4CF2702108
:10390000C4F20F11DCF800294B1C9A420AD14FF087
:10391000500080F31188BFF36F8FBFF34F8F00BF4C
:10392000FEE700BFDCF800298A4209D14FF05000C1
:1039300080F31188BFF36F8FBFF34F8FFEE700BF97
:103940009CF800100291FF218CF800109CF80010E8
:103950008DF807109DF8071001F0500240F2B411E5
:10396000C2F200010A7007224A609DF90720B2F1F5
:10397000FF3F69DC032200BFD31C4B609DF80700AA
:1039800040008DF807009DF90700B0F1FF3F23DCF0
:10399000931C4B609DF8070040008DF807009DF9CF
:1039A0000700B0F1FF3F17DC531C4B609DF8070088
:1039B00040008DF807009DF90700B0F1FF3F0BDCD8
:1039C0004A609DF80700043A40008DF807009DF911
:1039D00007000028D0D4131D032B35D14FF44070BD
:1039E000486002988CF80000DCF8200940F4700070
:1039F000CCF82009DCF8200940F07040CCF8200910
:103A0000FFF702FD40F25C04C2F2000400252560CD
:103A1000FFF74AFC4EF63470CEF20000016841F028
:103A200040410160FEF7F0FDFFF704FF03952068B9
:103A30004FF0500181F31188BFF36F8FBFF34F8FA9
:103A4000013011D0FEE700BF4FF0500080F3118825
:103A5000BFF36F8FBFF34F8FFEE700BF039830B9FE
:103A6000039820B9039810B903980028F6D00020D5
:103A700004B0B0BD80B54FF0500080F31188BFF3A3
:103A80006F8FBFF34F8F00F09BFC30B14EF60450A8
:103A9000CEF200004FF080510160002080F31188C9
:103AA00080BD00002DE9F041B0B3064648435030D8
:103AB00014460F46FEF7DCFF054650B34FF00008F2
:103AC000284685F84680002F18BF50302860C5E989
:103AD0000F67FFF7F3FB2868D5E90F12C5F83880A8
:103AE00002FB0103013901FB0201C5E90103FF20CB
:103AF000E96085F8440085F8450005F11000FFF7FE
:103B000083FB05F12400FFF77FFBFFF7FBFB85F844
:103B10004C402846BDE8F0814FF0500080F31188FA
:103B2000BFF36F8FBFF34F8FFEE7000070B582B019
:103B300070B11C46B3B1F9B9F2B14FF0500080F347
:103B40001188BFF36F8FBFF34F8F00BFFEE700BF39
:103B50004FF0500080F31188BFF36F8FBFF34F8F8A
:103B6000FEE700BF4FF0500080F31188BFF36F8F66
:103B7000BFF34F8FFEE700BF51B14AB94FF050007D
:103B800080F31188BFF36F8FBFF34F8FFEE700BF45
:103B900050230193019B502B2ED1019B069E0123A4
:103BA00084F84630002908BF22462260C4E90F018C
:103BB000FFF784FB2068D4E90F12002502FB010304
:103BC000013901FB0201A563C4E90103FF20E160A3
:103BD00084F8440084F8450004F11000FFF714FB5A
:103BE00004F12400FFF710FBFFF78CFB204684F85C
:103BF0004C6002B070BD00BF4FF0500080F31188E0
:103C0000BFF36F8FBFF34F8FFEE700002DE9F04F3A
:103C100083B00292C0B11D4617460E460446E9B174
:103C2000022D03D1E06B012840F0888000F0B2FB48
:103C300010BB0FB34FF0500080F31188BFF36F8FAC
:103C4000BFF34F8FFEE700BF4FF0500080F31188A5
:103C5000BFF36F8FBFF34F8FFEE700BF206C0028CC
:103C6000DED04FF0500080F31188BFF36F8FBFF3A9
:103C70004F8F00BFFEE700BFFFF720FBA06B022DB8
:103C800066D0E16B884263D304F1100801206F46CF
:103C90000DF108090DE000BF2046FEF7AFFE00F071
:103CA00091FCFFF70BFBA06BE16B88424FF000002B
:103CB0004ED30299002973D0C00702D03846FFF7CF
:103CC000AFFCFFF71FFBFFF7ADFDFFF7F7FA94F826
:103CD0004400FF2804BF002084F8440094F8450005
:103CE000FF2804BF002084F84500FFF70BFB38468F
:103CF000494600F091FA002858D1FFF7DFFAD4F8CE
:103D000038A0D4F83CB0FFF7FDFADA45C4D10299E7
:103D10004046FFF797FC2046FEF770FE00F052FC8D
:103D20000028BED14EF60450CEF200004FF0805174
:103D30000160BFF34F8FBFF36F8FB2E74FF05000BA
:103D400080F31188BFF36F8FBFF34F8FFEE700BF83
:103D5000A76B226CD2B19DB3E0683146FCF70EFB35
:103D6000E168206C2268091A9142E16003D2A168DF
:103D700040420844E060A81EB0FA80F0400939468D
:103D8000002F18BF012108403F1A26E020680025B7
:103D900020BBA06800F096FBA56005461EE000BFB2
:103DA000FFF7B0FA002003B0BDE8F08F2046FEF721
:103DB00025FE00F007FC002003B0BDE8F08F00BF37
:103DC00060683146FCF7DAFA216CD4E90102084454
:103DD0009042606001D3206860600025781CA06379
:103DE00054F8240FA0B1204600F0B2FB50B14EF6BB
:103DF0000450CEF200004FF080510160BFF34F8FAE
:103E0000BFF36F8FFFF77EFA012003B0BDE8F08F9C
:103E1000002DF7D04EF60450CEF200004FF0805146
:103E20000160BFF34F8FBFF36F8FFFF76BFA012075
:103E300003B0BDE8F08F00002DE9F04700B31E4647
:103E4000144605460F4629B3022E02D1E86B01281D
:103E500052D1FFF7F3FAEFF311884FF0500080F3DF
:103E60001188BFF36F8FBFF34F8FA86B022E1FD047
:103E7000E96B88421CD3002088F31188BDE8F087E5
:103E80004FF0500080F31188BFF36F8FBFF34F8F57
:103E9000FEE700BF286C0028D6D04FF0500080F31A
:103EA0001188BFF36F8FBFF34F8F00BFFEE700BFD6
:103EB00095F84590A86BD5F838A02A6C32B36EB34C
:103EC000E8683946FCF75AFAE968286C2A68091A42
:103ED0009142E96003D2A96840420844E860B01EFC
:103EE000B0FA80F040095146BAF1000F18BF012125
:103EF0000840AAEB000A1EE04FF0500080F3118842
:103F0000BFF36F8FBFF34F8FFEE700BF286890B9F4
:103F1000A86800F0D7FA0020A8600CE0686839466D
:103F2000FCF72CFA296CD5E901020844904268603C
:103F300001D3286868600AF10100B9F1FF0FA86396
:103F400010D155F8240FB8B1284600F001FB014606
:103F5000002C4FF0010018BF002913D188F31188FD
:103F6000BDE8F08709F1010085F84500012088F3DC
:103F70001188BDE8F08700BF012088F31188BDE8F3
:103F8000F08700BF0120206088F31188BDE8F0872A
:103F90002DE9F04F83B0029290B116460D460446CB
:103FA000002947D000F0F6F9A0B99EB14FF05000BB
:103FB00080F31188BFF36F8FBFF34F8FFEE700BF11
:103FC0004FF0500080F31188BFF36F8FBFF34F8F16
:103FD000FEE700BFFFF772F9D4F838A0BAF1000F7E
:103FE00036D0226C52B1D4E902308118E160994296
:103FF00024BF2168E1602846FCF7C0F9AAF101005E
:10400000A06354F8100F70B1204600F0A1FA50B12F
:104010004EF60450CEF200004FF080510160BFF325
:104020004F8FBFF36F8F0124FFF76CF9204603B069
:10403000BDE8F08F206C0028B4D04FF0500080F322
:104040001188BFF36F8FBFF34F8F00BFFEE700BF34
:1040500004F1240801206F464FF000090DF1080B10
:104060002EE000BFFFF74EF9FFF7DCFBFFF726F964
:1040700094F84400FF2808BF84F8449094F8450061
:10408000FF2808BF84F84590FFF73CF938465946A9
:1040900000F0C2F8E0B12046FEF7B0FC00F092FA62
:1040A000FFF70CF9A66BFFF72DF9002E3CD0FFF7B8
:1040B00005F9D4F838A00020BAF1000F7FF491AFD1
:1040C000029949B3C007CDD03846FFF7A9FAC9E72E
:1040D000FFF7F4F8A66BFFF715F92EB12046FEF7AF
:1040E0008DFC00F06FFAE2E702994046FFF7AAFA6A
:1040F0002046FEF783FC00F065FA0028D7D14EF683
:104100000450CEF200004FF080510160BFF34F8F9A
:10411000BFF36F8FCBE700BF0024FFF7F3F8204613
:1041200003B0BDE8F08F00BF0024204603B0BDE817
:10413000F08F00002DE9F04381B000283ED0914679
:1041400005460E46002943D0FFF778F9EFF31188B2
:104150004FF0500080F31188BFF36F8FBFF34F8F84
:10416000AC6B002C42D095F844702A6C52B1D5E962
:1041700002308118E960994224BF2968E96030461D
:10418000FCF7FCF8601EFF2FA86335D155F8100F1F
:1041900000283BD0284600F0DBF90146B9F1000FBA
:1041A0004FF0010004D000291CBF0120C9F8000015
:1041B00088F3118801B0BDE8F08300BF4FF05000D4
:1041C00080F31188BFF36F8FBFF34F8FFEE700BFFF
:1041D000286C0028B8D04FF0500080F31188BFF34E
:1041E0006F8FBFF34F8F00BFFEE700BF002088F343
:1041F000118801B0BDE8F083781C85F844000120E7
:1042000088F3118801B0BDE8F08300BF012088F376
:10421000118801B0BDE8F083B0B5D8B10D4619B32F
:104220000446FFF74BF840F2E00CC2F2000CDCF859
:10423000182029684B1C21D0D4E9000EDCF8383056
:10424000834221D072451FD30124FFF75BF820463B
:10425000B0BD00BF4FF0500080F31188BFF36F8FE7
:10426000BFF34F8FFEE700BF4FF0500080F311887F
:10427000BFF36F8FBFF34F8FFEE700BF0024FFF740
:1042800041F82046B0BD00BFA2EB0E0291420DD90D
:10429000881A2860DCF838002060DCF818006060BC
:1042A0000024FFF72FF82046B0BD00BF00200124F6
:1042B0002860FFF727F82046B0BD00002DE9F04345
:1042C00083B007469000984615468946FEF7D0FB16
:1042D000F8B106465C20FEF7CBFBB8B10446DDE939
:1042E0000A100022266384F85920CDE900103846D0
:1042F00049462A4643460294FEF7F2F82046FDF767
:1043000065FF012003B0BDE8F08300BF3046FFF732
:1043100011F84FF0FF3003B0BDE8F08370B586B000
:104320000B9CCCB10C9E0EB35C250495049D5C2DBA
:1043300026D1049DDDF828C0022586F8595005AD28
:104340003463CDE900C50296FEF7CAF83046FDF7A2
:104350003DFF059806B070BD4FF0500080F3118806
:10436000BFF36F8FBFF34F8FFEE700BF4FF05000DA
:1043700080F31188BFF36F8FBFF34F8FFEE700BF4D
:104380004FF0500080F31188BFF36F8FBFF34F8F52
:10439000FEE7000040F2E000C2F2000001690029DF
:1043A0000FBF01204069B0FA80F0400918BF4000FB
:1043B0007047000040F2E000C2F2000080697047E0
:1043C0002DE9F04381B040F2E006C2F200067069C8
:1043D00040B1706B002401307063204601B0BDE82D
:1043E000F08300BFB06910F10109C6F8189020D31E
:1043F000F069006850B14FF0500080F31188BFF3AE
:104400006F8FBFF34F8F00BFFEE700BFF069316AC7
:10441000F1613062B06B0130B063F069006828B1BF
:10442000F069C068C068406802E000BF4FF0FF302C
:10443000F062F06A40F27C388145C2F2000801D295
:1044400000242EE0F0690024006813E0F86A716A25
:10445000884288BF706200EB800008EB800029462C
:10446000FEF714FFF86A3168C96AF269884228BF0A
:104470000124106890B1F069C068C7683D4655F8DE
:10448000040F81450CD32846FEF790FEB86A002839
:10449000DCD007F11800FEF789FED7E74FF0FF30B8
:1044A000F0623068C06A00EB800058F820000128F4
:1044B00088BF0124306B002818BF0124204601B0BA
:1044C000BDE8F08370B588B140F2E006C2F20006A4
:1044D00004463068A0420BD04FF0500080F31188A2
:1044E000BFF36F8FBFF34F8FFEE700BF002070BD9B
:1044F000206D18B3411EE06AE26C216590424FF0D6
:10450000000008BF70BDC1B9251D2846FEF74EFE4C
:10451000E06CC0F13801E062A161716A884240F24A
:104520007C3188BF706200EB8000C2F2000101EBB9
:1045300080002946FEF7AAFE012070BD4FF0500012
:1045400080F31188BFF36F8FBFF34F8FFEE700003A
:1045500070B5C068C5686DB105F118042046FEF756
:1045600025FE40F2E006C2F20006706960B106F175
:1045700064001AE04FF0500080F31188BFF36F8F92
:10458000BFF34F8FFEE700BF2C1D2046FEF70EFE47
:10459000E86A716A884240F27C3188BF706200EB41
:1045A0008000C2F2000101EB80002146FEF76EFEA2
:1045B000E86A3168C96A884292BF002001203063EE
:1045C00070BD00002DE9F04140F2E005C2F20005A7
:1045D000686968B1FEF772FE6869013868616869E8
:1045E00080B10024FEF78EFE2046BDE8F08100BFBA
:1045F0004FF0500080F31188BFF36F8FBFF34F8FE0
:10460000FEE700BFE8680028EBD0686E88B340F290
:104610007C36C2F200064FF0010800BF286FC76861
:1046200007F11800FEF7C2FD3C1D2046FEF7BEFD57
:10463000F86A696A884288BF686200EB800006EB0E
:1046400080002146FEF722FEF86A2968C96A88427E
:1046500028BFC5F83080686E0028DFD1E86900689F
:1046600020B1E869C068C068406801E04FF0FF30E1
:10467000E8626C6B4CB10126FFF7A2FE002818BF60
:104680002E63013CF8D100206863286B0028A8D075
:104690004EF60450CEF200004FF080510160BFF39F
:1046A0004F8F0124BFF36F8FFEF72CFE2046BDE82D
:1046B000F081000070B586B0FEF700FE40F258169B
:1046C000C2F20006306808BB06F114042046FEF76B
:1046D0009BFD06F128052846FEF796FD40F28C2248
:1046E00040F22C33C6E902450025C2F20002C2F2B4
:1046F00000030A2010210095FFF718FA306028B156
:1047000044F2C471C0F60001FEF7C8FEFEF7FAFDE0
:104710003068D8B10020CDE9040005A804A903AA97
:10472000FEF764FDDDE903200221059DCDE90010BF
:1047300042F27160C0F6000009A100230295FFF764
:10474000EDFD706010B1012006B070BD4FF050005B
:1047500080F31188BFF36F8FBFF34F8FFEE700BF69
:10476000546D722053766300F1EE100A4FF6FF711C
:10477000C0F2C03120EA010040F04070E1EE100AC2
:10478000704700000000000000000102030406075B
:1047900008090000B8470008000000000000000001
:1047A00000000000000000000002000018000000EF
:1047B000000000000000000064656661756C7454C0
:1047C00061736B00546D725100000000F0470008E7
:1047D0000000002060000000E801000850480008C8
:1047E0006000002078500000040200080000000073
:1047F00001000000100000000024F400000E0A0A6E
:104800000A0E00000002020202020000000E020E68
:10481000080E0000000E020E020E0000000A0A0E32
:1048200002020000000E080E020E00000008080E32
:104830000A0E0000000E0A0202020000000E0A0E1C
:104840000A0E0000000E0A0E02020000AAAAAAAA7E
:04000005080001AD41
:00000001FF
