:020000040800F2
:10000000E0220120C1010008D9280008B925000814
:10001000D5280008E90F0008D944000800000000B6
:10002000000000000000000000000000512900084E
:100030000510000800000000E1280008353B00081A
:10004000DB010008DB010008DB010008DB01000820
:10005000DB010008DB010008DB010008DB01000810
:10006000DB010008BD1200082D130008DB010008A9
:10007000DB010008DB010008DB010008DB010008F0
:10008000DB010008DB010008DB010008DB010008E0
:10009000DB010008DB010008DB010008DB010008D0
:1000A000DB0100089D3B0008DB010008DB010008C4
:1000B000DB010008A93B0008DB010008DB010008A8
:1000C000DB010008DB010008DB010008DB010008A0
:1000D000DB010008DB010008DB010008DB01000890
:1000E000DB010008DB010008DB010008DB01000880
:1000F000DB010008DB010008DB010008DB01000870
:10010000DB010008DB010008DB010008DB0100085F
:10011000DB010008DB010008DB010008DB0100084F
:10012000DB010008ED0F0008DB010008DB0100081F
:10013000DB01000809100008DB010008DB010008F2
:10014000DB010008DB010008DB010008DB0100081F
:10015000DB010008F90F0008DB010008D53E0008AC
:10016000DB010008DB010008DB010008DB010008FF
:10017000DB010008DB010008DB01000800000000D3
:10018000DB010008DB010008DB010008DB010008DF
:10019000DB010008DB010008DB010008DB010008CF
:1001A000DB010008DB010008DB010008DFF80CD0F0
:1001B00000F074FC0048004785740008E02201202C
:1001C0000648804706480047FEE7FEE7FEE7FEE7F1
:1001D000FEE7FEE7FEE7FEE7FEE7FEE7893B0008F5
:1001E000AD010008004870472C53010810B50446C3
:1001F000FFF7F8FF0068005D00F0010010BD00008F
:100200000649074A0868504343F23902104408601F
:100210004008704701490860704700000000002056
:100220006D4EC641421C10F8011B0029FBD1801AFB
:10023000704730B504460020034600E05B1C934243
:1002400003D2E05CCD5C401BF8D030BD0FB400B5EC
:100250008DB010A909900B9000914FF0FF300A90DB
:1002600000200C9005480690054807906A4609A8AA
:100270000F9900F005FA0DB05DF814FB9D0600081B
:10028000BB0600082DE9FF4F087883B09946FF2888
:1002900005D0491C2D2804D00024002008E00020AF
:1002A0000BE00124F9E700EB800003EB4000491C60
:1002B0000B78FF2BF7D104B140420023029314784E
:1002C00019461D462D2C01D02B2C04D1521C2D2C4F
:1002D00013D000240294AA461478FF2C0FD00A25CC
:1002E000A3FB057801FB05814FF0000C03FB0C110B
:1002F000521CE3194AEB0101EEE70124EAE78144CD
:1003000053EA010002D019F5C87F06DA03980021EC
:10031000C0E9001107B0BDE8F08F0025AE4E2F46B2
:10032000DFF8B882184600F061FBCDE90001B9F1B1
:10033000000002DAC9F1000400E004460023A74AE5
:100340001AEB030B42EB045A12E0E00707D02A46EF
:1003500033463846414600F068FA074688462A4642
:1003600033461046194600F060FA05460E46641002
:10037000002CEAD1DDE90001B9F1000F5A465346DD
:1003800006DA00F0C4FA3A46434600F0C0FA05E047
:1003900000F04BFA3A46434600F047FA029A0AB197
:1003A00081F00041039AC2E90001B3E72DE9FF4F54
:1003B0001F468DB0D7E901464FF0FF382E20454645
:1003C0004FF000090B90B9696D1C0E988847396A87
:1003D000824688470028F6D1BAF1FF3F0AD024F4BC
:1003E000D064002E11DDBAF12B0F08D0BAF12D0F19
:1003F0000BD102E0404611B08DE744F48064B96946
:100400006D1C0E9888478246761E6946600501D5A8
:100410002D2000E02B208DF8000001F1010B0DF1E3
:10042000200809E0B9696D1C0E98884782460F982C
:1004300044F40074761E0560002E02DDBAF1300F20
:10044000F0D00B998A453ED144F0800406E00F9924
:10045000681CA9F1010944F400740860B9696D1CB5
:10046000761E0E98884782463028F0D02BE00B99F4
:100470008A4505D1200603D444F08004761E18E096
:10048000504614F055FB08B30DF11302761EAAF185
:10049000300044F40074934506D20BF8010B20069B
:1004A00007D5A9F1010003E0200602D409F10100FB
:1004B0008146A00502D50F99681C0860B9696D1CBA
:1004C0000E9888478246002ED1DC53E0002E51DD85
:1004D000BAF1650F02D0BAF1450F4BD1A00549D54D
:1004E000B9696D1C24F44074761E0E9888478246C4
:1004F000002E0CDD2B2804D0BAF12D0F07D144F4C7
:100500008074B9696D1C0E9888478246761EE00596
:1005100001D52D2100E02B2108F8011BCDF82C80FE
:1005200021E00DF12901761E44F4007488450CD2B7
:10053000AAF1300010F0FF0088F8000002D10B99FA
:10054000884509D908F1010806E0E00501D52448ED
:1005500001E042F20F708146B9696D1C0E98884720
:1005600082460F980560002E04DD504614F0E0FA34
:100570000028D6D1F9690E988847FF208BF8000033
:1005800088F800000020069007904B466A4608A9AC
:1005900006A8FFF777FEA00502D46FF001002AE756
:1005A00014F0240F0AD0E00714D1DDE906123868F0
:1005B000031D3B600068C0E900120BE0DDE90601A5
:1005C00000F050FA0146E00704D13868021D3A6095
:1005D0000068016028460EE7000014400000F03F6C
:1005E000F1D8FFFF30B50B46014600202022012440
:1005F00009E021FA02F59D4205D303FA02F5491BF1
:1006000004FA02F52844151EA2F10102F1DC30BD06
:100610002DE9F05F0546002092469B468846064637
:10062000814640241BE0284641464746224600F0CA
:1006300056FA53465A46C01A914110D311461846ED
:10064000224600F03DFA2D1A67EB01084F4622467C
:100650000120002100F034FA17EB00094E41201E62
:10066000A4F10104DFDC484631462A464346BDE892
:10067000F09F00000268114413780160184670472B
:10068000D160044951610449116200211161114690
:1006900000F048BA75060008ED010008426842B152
:1006A000016811F8013B23B1521EC0E9001218463F
:1006B00070470121C160881E704742685AB1C36803
:1006C000016843B983688B4205D0491E521CC0E9BA
:1006D0000012002070474FF0FF3070472DE9FE4FA9
:1006E000804681EA0300C00F0C46009021F00041D3
:1006F00023F00045B8EB0200A94105D2404621464F
:1007000090461C460B46024623F00040104347D05B
:10071000270DC7F30A00C3F30A510290401A019053
:1007200040286BDAC3F3130040F4801B0098924614
:1007300020B10023D2EB030A63EB0B0B019859465F
:10074000C0F14002504600F0BBF906460D46504647
:100750005946019A00F0D3F910EB080061410024DA
:1007600087EA115284EAE7731A4340D0009A62B3D1
:10077000019A012A4FEA075215DC001B61EB0201C6
:100780004FF0004202EA0752CDE90042001C41F559
:10079000801132462B4600F0A1FB03B0BDE8F08F7C
:1007A00040462146F9E7001B61EB0201001C41F5C0
:1007B000801300185B412018A2F5001747EB0301D6
:1007C00040EAD570B6196D4111E06D084FEA360662
:1007D00045EAC0754FEA0752001B61EB0201001C9D
:1007E00041F5801149084FEA300000195141324665
:1007F0002B4603B0BDE8F04F00F061BB009801222A
:1008000040000023D0EB020263EBE0730098214626
:100810004FEAE074B8EB000061EB0401E9E783F014
:1008200000435BE781F0004158E72DE9FE4F81EA84
:10083000030404F0004421F0004100944FF0000B49
:1008400023F0004350EA01045ED052EA03045BD077
:10085000C3F30A54C1F30A552C44A4F2F3340194AF
:10086000A0FB0254C1F3130141F48011C3F313033D
:1008700043F4801301FB024400FB034E840A970AF1
:1008800044EA815447EA8357A4FB076802958D0A1E
:1008900005FB07854FEA932C04FB0C542705029DAA
:1008A0004FEA065847EA1637B5EB08056EEB070C1A
:1008B000870E920E47EA811742EA8312A7FB0201D4
:1008C000B6EB0B0164EB00042B0D43EA0C335E180E
:1008D00044EB1C50DA465146E7FB0201C5F3130412
:1008E0004FEA0B3343EA14534FEA0432019C43EAC4
:1008F0000603A4F10C040294009CCDE900B400F0BE
:10090000EDFA03B0BDE8F08F00200146F9E72DE9CC
:10091000F04D81EA030404F0004B21F00045144639
:100920004FF0000A23F0004150EA050220D054EABB
:1009300001021DD0C5F30A570246C5F31303C1F3E4
:100940001300C1F30A5640F4801543F48013A7EB5B
:100950000608101BD64608F2FD3873EB050002D3DB
:1009600008F1010801E092185B41B8F1000F03DAC9
:1009700000200146BDE8F08D00204FF480110646AE
:1009800084460EE0171B73EB050705D3121B63EBC0
:10099000050306434CEA010C49084FEA300092185F
:1009A0005B4150EA0107EDD152EA030012D082EA1E
:1009B000040083EA0501084305D0101BAB4106D2B1
:1009C0000122002306E000224FF0004302E06FF016
:1009D000010253101AEB06004CEB085110EB0A0011
:1009E00041EB0B01BDE8F04D00F069BA0EB540F2E5
:1009F000334202920022CDE90022134600F06EFA43
:100A000003B000BDC1F30A52C1F3130140F2FF333A
:100A100041F480119A4202DA00200146704740F208
:100A200033439A42A2F2334202DC524200F057B8FA
:100A300000F046B830B5041E71F1000404DB4FF03D
:100A40000044404264EB0101141E73F1000405DB15
:100A50001C464FF00043524263EB0403994208BF27
:100A6000904230BD01F0004330B421F0004150EA23
:100A7000010206D00A0DA2F56072C1F31301002A2B
:100A800002DC30BC00207047440F44EAC104C100BE
:100A9000E01830BC00EBC25000F0DAB9064C074D4C
:100AA00006E0E06840F0010394E80700984710343E
:100AB000AC42F6D3FFF77EFBFC7F01081C800108E7
:100AC000202A04DB203A00FA02F10020704791400E
:100AD000C2F1200320FA03F3194390407047202A03
:100AE00004DB203A21FA02F00021704721FA02F3D8
:100AF000D040C2F120029140084319467047202A95
:100B000006DBCB17203A41FA02F043EAE07306E035
:100B100041FA02F3D040C2F1200291400843194645
:100B2000704700002DE9F34F8BB04FF0000801F142
:100B30000C000C464FF0010B46460DF1080A0190DF
:100B40006269012101989047051E2DD0252D2CD0DA
:100B5000216A8847C0B16269012101989047216AE2
:100B600088470028F7D1411E62690198904700E04C
:100B7000761CA1690B988847216A88470028F7D11D
:100B8000E1690B988847DBE7A1690B98884707461E
:100B9000A84201D1761CD3E7E1690B9888477F1CF6
:100BA00002D1B8F1000F6FD046E1002762693D46DF
:100BB0003946019890472A2804D162690121019899
:100BC00090470125DFF884926269012101989047DE
:100BD000A0F130010A290AD24F45E5DC07EB870175
:100BE00000EB4107303FDFD445F01005ECE7E906A4
:100BF00001D46FF000476C280AD04C2814D0682824
:100C000015D06A280DD074281CD07A281AD01DE07F
:100C100062690121019890476C2802D045F00405D3
:100C200014E045F002050DE045F020050AE0626998
:100C3000012101989047682802D045F0080505E099
:100C400045F400656269012101989047C4E90157A4
:100C500065283DD019DC58287AD00CDC452837D0DF
:100C600004DC252826D0412831D131E046282FD078
:100C700047282CD12CE05B2877D0612828D0632826
:100C80007CD0642823D15AE0D0E06F2848D008DC1B
:100C900066281DD067281BD0692821D06E2816D160
:100CA00027E0702845D0732868D0752847D0782869
:100CB0000DD14DE0A1690B988847054625283FF4E2
:100CC00069AFE1690B9888476D1C3FF46AAFB3E0E8
:100CD00023466A466FF001000B99FFF767FB9EE021
:100CE00045F040006060A80723464FF0000236D46C
:100CF0003EE0E8077FF447AF2068011D21600068EF
:100D0000290501D506701BE7290701D5068017E7DD
:100D1000A90703D5F117C0E9006111E706600FE7E5
:100D200045F040006060A80723464FF0080216D443
:100D30001EE040F60E0125EA0100606016E045F075
:100D400040006060A80723464FF00A0207D40FE076
:100D500045F040006060A80708D5234610226FF0D8
:100D600001000B99AFF3008059E007E02346102201
:100D70006FF001000B99AFF3008050E04FF00009D5
:100D80004F464B46632802D05B2806D040E0E80679
:100D900001D40120A06001273AE062690121019895
:100DA00090475E2805D14FF00109626949460198D4
:100DB0009047216939B900210A46534643F821205A
:100DC000491C0829FADBB0B3216969B9C11700EBE6
:100DD000D16253110AEB830122F01F02821A012013
:100DE0000B68904003430B606269012101989047B2
:100DF0005D28E8D1B9F1000F09D00020514651F823
:100E00002020D24341F82020401C0828F7DB02AB09
:100E1000224600976FF001000B99AFF30080002885
:100E20000CDA401C08D1BBF1000F05D04FF0FF30A9
:100E30000DB0BDE8F08FFFE74046F9E7E90701D1C3
:100E400008F1010806444FF0000B79E6CCCCCC0C3D
:100E50000029A8BF7047401C490008BF20F00100CE
:100E6000704710B4B0FA80FC00FA0CF050EA0104AC
:100E700004BF10BC704749B1CCF1200421FA04F43E
:100E800011FA0CF118BF012121430843A3EB0C0117
:100E9000CB1D4FEA00614FEA102042BF002010BC7A
:100EA000704700EBC35010440029A4BF10BC70472A
:100EB000401C490008BF20F0010010BC704710B56D
:100EC000141E73F1000408DA401C41F1000192186D
:100ED0005B411A4301D120F0010010BD2DE9F04D16
:100EE00092469B4611B1B1FA81F202E0B0FA80F26B
:100EF00020329046FFF7E4FD04460F4640EA0A0020
:100F000041EA0B0153465A46084313D0114653EAAF
:100F1000010019D0C8F140025046FFF7E0FD054638
:100F20000E46504659464246FFF7CAFD084305D0D3
:100F3000012004E020463946BDE8F08D002005433D
:100F400046EAE0762C4337430A986305E40AA0EBAF
:100F500008000022FD0A44EA47540A3002D5002066
:100F60000146E9E7010510196941DDE90845001965
:100F70006941BDE8F04DA2E740EA01039B0703D0B9
:100F800009E008C9121F08C0042AFAD203E011F8C8
:100F9000013B00F8013B521EF9D27047D2B201E08A
:100FA00000F8012B491EFBD270470022F6E710B56E
:100FB00013460A4604461946FFF7F0FF204610BDC7
:100FC00000F0004230F000400AD0C10D01F5607120
:100FD000C0F3160042EA0151C208400711437047AE
:100FE0000020014670470000FEE7000040F2343068
:100FF000C2F2000000F0D0B940F29430C2F200001A
:1010000000F0CAB970470000B0B540F2F434C2F243
:101010000004206841F21405415949060FD54119D1
:101020008A6852060BD54020C0F20100086040F2E9
:101030008C10C2F20000006807F0A8FA206841593D
:10104000C9070ED041198A68D2070AD04FF00110A3
:10105000086040F2C810C2F20000006807F096FA7B
:10106000206841F21401425812042ED501448A68C6
:1010700012042AD5D4F8882042F00802C4F8882047
:101080000B680A689B0406D448F280631A40C4F8CF
:101090008C200B600DE042F20003C0F27E031A4088
:1010A000C4F88C208A6822F4C0328A60E021C4F837
:1010B0008410D4F88C10090607D540F28C10C2F2C7
:1010C0000000006807F062FA2068816B090707D505
:1010D000C06A00F06000C4F894000020C4F89400D6
:1010E00043F61440C4F201000168090344BF4FF401
:1010F00000210160B0BD000041F2FC60C2F20100BD
:101100000068704740F2F430C2F20000D0F800C02E
:1011100040F20800C2F20000DCF8102000684DF236
:101120000033CFF6CE634EF2BF110344C0F2E401A8
:101130008B4222F01C0202D842F0080227E04FF254
:101140004011CFF6E95147F63F030144C0F27D1349
:10115000994202D842F00C0219E047F60011CFF68E
:101160006C4145F600230144C0F2622399420ED33C
:1011700041F60071CFF60A2108444FF27F01C0F218
:10118000FA2188428CBF42F0100242F00402002093
:10119000CCF810207047000080B540F2F433C2F262
:1011A0000003D3F800E04FF4F863DEF810C003EA60
:1011B00081110CF01C0C60F3CF2101EB0C0001300D
:1011C000CEF8100041F2FC60C2F2010001684FF05D
:1011D000000C03685B1ABCEB134F24D1DEF810300F
:1011E000DB071AD003685B1ABCEB134F1BD1DEF888
:1011F0001030DB0711D003685B1ABCEB134F12D120
:10120000DEF81030DB0708D003685B1ABCEB134F25
:1012100009D1DEF81030DB07DBD1DEF8140080B234
:101220001060002080BD4FF0FF3080BD80B540F2DF
:10123000F433C2F20003D3F800E04FF4F863DEF8B1
:1012400010C003EA81110CF01C0C60F3CF2101EBFC
:101250000C00033091B2CEF81410CEF8100041F219
:10126000FC60C2F201000168002203685B1AB2EB65
:10127000134F20D1DEF81030DB071AD003685B1A59
:10128000B2EB134F17D1DEF81030DB0711D0036833
:101290005B1AB2EB134F0ED1DEF81030DB0708D02B
:1012A00003685B1AB2EB134F05D1DEF81030DB0791
:1012B000DBD1002080BD4FF0FF3080BD80B582B013
:1012C00043F61440C4F201000168090718D508214B
:1012D000016041F21000C4F20200006800070FD55F
:1012E00001208DF8070007A013F0CCFF48F25C60E6
:1012F000C2F2000000680DF10701002212F024FB89
:1013000002B080BD646973706C6179206D6F646533
:101310003A73747564656E742069642C206C696E10
:10132000652C20636972636C650D000080B582B026
:1013300043F61440C4F201000168C90618D5102113
:10134000016041F21000C4F202000068C0060FD52F
:1013500002208DF8070007A013F094FF48F25C60AC
:10136000C2F2000000680DF10701002212F0ECFA51
:1013700002B080BD646973706C6179206D6F6465C3
:101380003A73686F77205152636F64652C207469DB
:101390006D6572200D000000F0B581B0044600209C
:1013A000009040F20800C2F200000268D4E9166022
:1013B00048F2B51337680821C1F64E3381403942EF
:1013C000A2FB03250CD0226813685B0708D51368BD
:1013D00023F004031360B160616D41F001016165A8
:1013E00001218140394208D022685269120604D591
:1013F000B160616D41F002016165042181403942B3
:1014000008D022681268920704D5B160616D41F07E
:1014100004016165102101FA00F23A4216D02168F8
:101420000B681B0712D5B2600B680A685B0306D411
:10143000D20506D40A6822F008020A6001E011030E
:1014400040D4216C11B120468847E06D202101FA7B
:1014500000F23A4242D021680B68DB063ED5B2600A
:1014600094F835300A68052B1CD122F016020A6068
:101470004A6922F080024A61226C0AB9A26C1AB150
:101480000A6822F008020A603F2101FA00F0B06009
:10149000012084F83500216D0020002984F83400F3
:1014A00052D156E00868520310D4C00512D408681F
:1014B00020F010000860012084F83500002084F836
:1014C000340007E0A16C0029BDD1BFE7000301D4BF
:1014D000616C00E0E16B09B120468847606DC0B3E4
:1014E000606DC0072ED0052084F835002068A90A59
:1014F000026822F001020260009A01328A420092E0
:101500001AD80268D20717D0009A01328A42009294
:1015100012D80268D2070FD0009A01328A42009294
:101520000AD80268D20707D0009A01328A42009294
:1015300002D80268D207DFD1012084F835000020EC
:1015400084F83400E16C21B1204601B0BDE8F040E0
:10155000084701B0F0BD00002DE9F04141F2FC6107
:10156000C2F201010B6850B3022280F83520002539
:10157000026880F83450156825F00105156015687B
:10158000ED071FD00D68ED1A052D14D81568ED076D
:1015900018D00D68ED1A052D0DD81568ED0711D07E
:1015A0000D68ED1A052D06D81568ED070AD00D68EF
:1015B000ED1A052DE3D903232024032161E0012046
:1015C000BDE8F081116848F23F03CFF21003D0E983
:1015D000015401EA030C00F10C0898E8C20145EA45
:1015E0000C0525432943D0E9073E314339431943CC
:1015F000456A41EA0E01042D41EA08031CD1016B42
:10160000D0E90A5E41EA0E01194311605169BEF149
:10161000000F21F0030141EA050141F0040C11D053
:10162000B8F5005F33D0B8F1000F40D1022D41D0A2
:10163000012D36D035B93DE01360516921F0070125
:1016400041EA050C02F0F8014AF6AB231039CAF65C
:10165000AA23A1FB03373B091AA7FB5C40F2FF3723
:101660005F294FF03F01C2F814C022EA070201FAD5
:1016700003F188BF0432C0E91623916000240123DE
:101680000021446580F835300846BDE8F081032D1F
:10169000D8D8012340240121DFE805F0020C020321
:1016A000EFE7AEF1C071B1FA81F1490904E0032D11
:1016B00004D3C7D1CEF300610029C3D00123402455
:1016C0000121DEE7000610160006101670B540F284
:1016D0008C660446EFF30580C2F20006C0B930689C
:1016E00020F00105A5B1C00703D1284612F0E2FBA6
:1016F0000EE048F2E011C2F20001A86809688842D1
:1017000003D0284612F0D6FB10B1E8680130E8603B
:1017100048F2BC00C2F2000005689DB12968AA0722
:1017200001600FD045F2CB4045F6BA3145F67D2336
:10173000C0F60100C0F60101C0F6010340F2191223
:1017400013F0FAF8EFF30580A8B9316821F0010031
:1017500088B1C90703D1002112F040F80BE048F22C
:10176000E012C2F2000281681268914203D1C1689E
:101770000139C160EFD095B105F12000206049F238
:101780007D40C0F60000286120680021C5E90010F6
:1017900040F24120C0F20100A960E86070BD40F253
:1017A0008810C2F20000012101700020206070BD8D
:1017B000B0B5002800F0968040F2F431C2F200018A
:1017C000D1F88420102A18BFB0BDD1F800E048F24B
:1017D0000F13DEF80020CFF620731A40037C90F838
:1017E00011C0002B836808BF02F500021A4341694B
:1017F000C37FBCF1000F08BF42F480021143827F17
:1018000041EA03418369002A027F08BF41F4005185
:101810001943037941EA023190F8202041EA8321FB
:10182000002A426AC37B08BF41F40071114390F85B
:10183000282041EAC31141EA021141F2FC62CEF8CC
:101840000010C2F20102DEF800C013681168C91A64
:1018500001290BD81168C91A012907D81168C91ABA
:10186000012903D81168C91A0229EFD3CEF800C0A4
:10187000DEF818104FF6417301EA030C836C90F800
:101880004C101B04002908BF8033016D90F85540AF
:1018900041EA0C0190F85650194390F85400012C7D
:1018A00008BF41F00801012D08BF41F004010128E3
:1018B00008BF41F00201CEF81810DEF818001368D6
:1018C0001168C91A01290BD81168C91A012907D84A
:1018D0001168C91A012903D81168C91A0229EFD35E
:1018E000CEF81800B0BD00002DE9F04383B040F2FF
:1018F000F438C2F20008D8F88400102840F01F81A4
:101900002320C8F884000120C8F85800D8F8000047
:10191000D8F86850C16B08EB850241F40271C163CD
:10192000D0F80C1141F4003141F06001C0F80C1105
:10193000D0F8101141F40311C0F810110420C8F8B8
:101940006C00966C0021306A019110B14FF48C400C
:1019500011E001A8FFF7BAFE019800287AD03062A2
:10196000B060D8F858104FF48C40002904BF44F2FE
:101970000060C8F200007060BFF35F8F306840F015
:10198000004030606E1C032E88BFEE1E08EB860000
:10199000876C386A38B901A8FFF798FE01980028CB
:1019A0005AD03862B860751CD8F85800032D88BF2B
:1019B000F51E00284FF48C4004BF44F20060C8F2CA
:1019C00000007860BFF35F8F386808EB850140F056
:1019D000004038608C6C4FF48C47206A30B901A805
:1019E000FFF774FE0198C8B32062A0606E1CD8F89F
:1019F000580044F20069032EC8F2000988BFEE1EA9
:101A0000002808BF4F466760BFF35F8F206808EB70
:101A1000860140F0004020608C6C206A30B901A83B
:101A2000FFF754FE0198D8B12062A060D8F85800A2
:101A3000751C002818BF4FF48C49C4F80490BFF3FC
:101A40005F8F2068002140F000402060032D88BF98
:101A5000F51E07E0042105E0032102E0022101E078
:101A600001213546D8F80020D8F86C0041F208036F
:101A7000884202EB03001EBF00230360C8E91A512D
:101A8000116841F00801116041F2FC61C2F20101EC
:101A900013680F680E68F61B012E0BD80E68F61B34
:101AA000012E07D80E68F61B012E03D80E68F61B10
:101AB000022EEFD31360136843F00403136013681E
:101AC0000F6800BF0E68F61B012E0BD80E68F61BC0
:101AD000012E07D80E68F61B012E03D80E68F61BE0
:101AE000022EEFD3136000220292026942F48012A8
:101AF0000261026902920A680B689B1A012B0BD8DB
:101B00000B689B1A012B07D80B689B1A012B03D873
:101B10000B689B1A022BEFD302990161016941F412
:101B200000510161016941F002010161416941F423
:101B3000D03141F0C10141612320C8F8840003B0D5
:101B4000BDE8F0832DE9F04F82B000F13E4242F251
:101B5000004502F1FF77C4F202050A2243F6004E67
:101B60004FEAB726A84208BF0922C4F2010E092E87
:101B700038BF4FEAB7220125002600274FF00008A2
:101B8000009208E008F101080437B8F1100F06F1DF
:101B9000020600F0A6800C6805FA08F914EA090F9D
:101BA000F0D0D1F804B003220BF0030CACF1010427
:101BB000B240012C6FEA020A10D88268CC6802EAAF
:101BC0000A02B440224382604268CBF3001422EA46
:101BD000090204FA08F42243426005E0BCF1030F55
:101BE00002D14FF0030C20E0C2688C6802EA0A02BE
:101BF000B4402243BCF1020FC26016D16FF0030261
:101C000002EA58020244D2F820C007F01C050F2354
:101C10000C69AB402CEA030304FA05F52B4313626D
:101C2000D1F804B001250BF0030C02680CFA06F39E
:101C300002EA0A021A431BF4403F0260A2D00022CB
:101C400043F644030192C4F202031A684FF6084CAB
:101C500042F480421A601A68CFF6FF7C02F4804298
:101C60000192019A28F00302724452F80C3007F0F6
:101C70000C050F24AC40A343009C04FA05F52B434C
:101C800042F80C30DEF808204B6842EA090543F6BA
:101C90000C4CDC0258BF22EA0905CEF80850C4F209
:101CA000010CDCF800209C0242EA090558BF22EA38
:101CB0000905CCF80050DEF804209C0342EA09052F
:101CC00058BF22EA0905CEF80450DEF80020DB03F5
:101CD00042EA090558BF22EA0905CEF8005001255D
:101CE00050E702B0BDE8F08F70B582B0002143F636
:101CF00008020191C4F20202D36B45F2303643F080
:101D00000103D363D36BC0F6010603F00103019313
:101D1000019B1368136813681368D2F8F83340F214
:101D20000803C2F200031B6812680446C2F3423281
:101D3000B25C4FF0FF3023FA02F24DF6836352009B
:101D4000C4F21B33A2FB032340F2F845002600EB4C
:101D50009340C2F20005C4F2010640F2E732C5E941
:101D600000602846C5E902122961A96100F080F8E7
:101D700008B102B070BD95F83D000128F9D10220EC
:101D800085F83D00286841F2FF72C168C4F2000284
:101D9000904241F00101C1600DDC40F2FF71C4F2DC
:101DA0000001884216DCB0F1804F2AD040F2004199
:101DB000C4F2000123E040F2FF31C4F20101884285
:101DC00013DC41F60001C4F20001884219D0B04290
:101DD00017D01BE040F60001C4F20001884210D089
:101DE00040F60041C4F2000109E044F20001C4F2EF
:101DF0000101884205D040F20041C4F2010188424D
:101E000004D1816801F00701062903D0016841F07F
:101E1000010101604EF20010CEF200004FF000719F
:101E20000F2C0160A5D84EF60C50CEF200000068D1
:101E30004FF0FF32C0F3022080F00701042928BFD1
:101E40000421033802FA01F138BF0020C94301FA26
:101E500000F04EF219410001CEF20001087041F28B
:101E60000070C2F201000121017002B070BD0000DB
:101E7000002804BF0120704710B582B090F83D10D3
:101E8000002957D0022180F83D10016840F6FF3E3E
:101E90000B68C4F2000E40F2004C7145C4F2010C14
:101EA0000FDCB1F1804F19D040F20042C4F20002C1
:101EB000914213D040F60002C4F2000291420DD0CC
:101EC00010E040F60042C4F20002914206D06145A3
:101ED00004D00022C4F20102914203D1826823F0AF
:101EE0007003134341F6FF72C4F2000291420DDC0D
:101EF00071453CDCB1F1804F5ED040F20042C4F24B
:101F00000002914258D040F600023EE043F6FF72D4
:101F1000C4F2010291423DDC42F20002C4F200022E
:101F2000914249D00022C4F20102914244D061455D
:101F300042D045E0026840F20043C4F200030021B1
:101F40009A4280F83C1065D0B2F1804F9AD10021BE
:101F5000019143F64001C4F202010A6842F0010215
:101F60000A60096801F00101019101998AE740F6D0
:101F70000042C4F2000291421ED041F60002C4F2B7
:101F80000002914218D041F60042C4F20002914290
:101F900012D015E044F20002C4F2010291420BD0CB
:101FA00044F60002C4F20102914205D044F200421C
:101FB000C4F20102914203D1026923F44073134336
:101FC00023F080028369D0F804E0C4681A430A60F1
:101FD000CC6241F48062C1F828E0624504BF4269E6
:101FE0000A6301224A6180F8462080F83E2080F88A
:101FF0003F2080F8402080F8412080F8422080F87F
:10200000432080F8442080F8452080F83D200020BF
:1020100002B010BD43F640020091C4F20202136800
:1020200043F002031360126802F002020092009A69
:102030004EF60C52CEF200021268C2F3022282F077
:102040000703042B28BF0423033A38BF0A464FF086
:10205000FF319940052323EA010191404EF21D42D0
:102060000901CEF2000211704EF20011CEF2000111
:102070004FF000520A6005E780B590F83C20012A35
:102080004FF0020200F0BF8080F83D20D0F800C081
:102090004FF67772DCF8083023EA0202CCF8082009
:1020A0000B684F2B28DC1F2B43DD202B44D0302B1B
:1020B00042D0402B40F0A980D1F804E0C968DCF898
:1020C0002030DCF8202022F00102CCF82020DCF8BF
:1020D000182022F0F00242EA011123F00A0242EA3B
:1020E0000E02CCF81810CCF82020DCF8081041F0D3
:1020F000470121F030017DE06F2B25DDB3F5005F56
:1021000046D0B3F5805F77D0702B7ED1D1E901E363
:10211000C968DCF8082043EA0E0322F47F4243EA50
:1021200001211143CCF80810DCF8081041F07701C8
:1021300060E00BB1102B68D1DCF8081021F07001C1
:10214000194341F0070155E0502B34D0602B5CD18E
:10215000D1F804E0C968DCF8203023F01003CCF893
:102160002030DCF81830DCF8202023F4704322F013
:10217000A00243EA013142EA0E12CCF81810CCF862
:102180002020DCF8081041F0670121F0100131E057
:10219000D1E901E3C968DCF8082043EA0E0322F420
:1021A0007F4243EA01211143CCF80810DCF8081003
:1021B00041F480411EE0D1F804E0C968DCF8203029
:1021C000DCF8202022F00102CCF82020DCF81820D6
:1021D00022F0F00242EA011123F00A0242EA0E0262
:1021E000CCF81810CCF82020DCF8081041F057018A
:1021F00021F02001CCF808100022012180F83D10C8
:10220000002180F83C10104680BD0122F5E7000057
:1022100001680A69920744BFCA685FEA827237D4CC
:102220000A69520744BFCA685FEA427237D40A6932
:10223000120744BFCA685FEA027237D40A69D2063D
:1022400044BFCA685FEAC26237D40869C0071CBFCE
:10225000C8685FEAC07037D10869000641BFC86826
:102260005FEA00606FF0800008610869400641BFC6
:10227000C8685FEA40606FF0400008610869800646
:1022800041BFC8685FEA80606FF020000861704756
:102290006FF002020A618A6900220277C0E76FF0DC
:1022A00004020A618A6900220277C0E76FF008021F
:1022B0000A61CA6900220277C0E76FF010020A6162
:1022C000CA6900220277C0E70022C4F201026FF05F
:1022D000010091420861BFD141F2FC60C2F20100ED
:1022E000026801320260B7E72DE9F04F87B000289D
:1022F0006ED0044690F83D0043F6300641F20008E7
:10230000C4F202060028C4F2010800F096802420DE
:1023100084F83D002568D4E90212E069EB6823F4F3
:102320000053EB602B6923F440531A432A61D4E92C
:1023300004231143EA68194349F20C639A43114399
:102340000143E9606969A26921F44071114369613F
:1023500025F48061414540F20801C2F200014FF0CE
:102360000A02096856F8283C08BF0D2223FA02F237
:1023700045F2303302F00702C0F601039A5C4FF6D3
:102380009C76D14019226368C0F6FF76B0F5004F05
:10239000A1FB020120D15A00DB0FFEF739F948F208
:1023A0001F51C5F2EB11A0FB01235A0906F180531E
:1023B00002FB0300322303EBC000A0FB01014FF43A
:1023C000F87000EA111000EB0210C1F342111CE09A
:1023D000012007B0BDE8F08F9A009B0FFEF718F9B7
:1023E00048F21F51C5F2EB11A0FB01235A0902FB71
:1023F0000600322303EB0010A0FB0101F02000EAED
:10240000511000EB0210C1F343110844A860286981
:10241000202120F490402861686920F02A0068613A
:10242000E86840F40050E8600020206484F83D1023
:1024300084F83E1007B0BDE8F08F206841F20041FB
:10244000C4F201010027884284F83C70CDE9057789
:10245000CDE9037702972BD044F60001C4F20001C6
:1024600088427FF454AF00200190316941F480210B
:102470003161316901F48021019101990190316844
:1024800041F008013160316801F0080101910199C2
:102490004FF4407102910221CDE903100320059011
:1024A0000720069008F57C4002A9FFF74BFB2EE7BA
:1024B0000197706946F2284940F020007061706908
:1024C00002A900F020000190019801973068C4F241
:1024D000020940F004003060306800F00400019010
:1024E0000198C02002900220CDE903070320059047
:1024F0000820069008F57840FFF724FB40F23435B9
:10250000C2F200054FF0206B4FF4806A2846C5E9FF
:10251000009BC5E90277C5E904A7C5E90677C5E9C7
:102520000877FFF719F820B1EFF3108072B600BFFB
:10253000FEE7A563AC6340F2943509F17800C2F27E
:1025400000054021C5E9000B05F10800002780E8DF
:1025500082042846C5E90577C5E907776F62FEF76B
:10256000FBFF20B1EFF3108072B600BFFEE74EF61E
:102570000C506563AC63CEF200000068C0F302202B
:1025800080F00701042928BF0421033828BF07462B
:102590004FF0FF308840052121EA0000B8404EF29C
:1025A00047410001CEF2000108704EF20810CEF251
:1025B000000080210160AAE6FEE7000010B582B0AD
:1025C00040F27C14C2F2000400212068019101AAAB
:1025D0000121FEF7E1FD00282CD4206801AA012189
:1025E000FEF7DAFD002825D49DF80400400702D448
:1025F000012002B010BD206801AA0021FEF7CCFD29
:10260000002817D40199C80407D401F40450B0F588
:10261000045F13D1022002B010BD206801AA1F215F
:10262000FEF7BAFD002805D40198C10410D4062095
:1026300002B010BD6FF0040002B010BDC8054FF02D
:10264000040058BF0520890448BF032002B010BD14
:1026500000F01C001828DDD0142805D0082814BF6D
:102660000520032002B010BD042002B010BD000000
:10267000F0B587B045F2004040F2A444C4F2000037
:1026800041F68021C2F2000400254FF48042C0F2DE
:10269000060184E82300C4E90352C4E90555C4E9EE
:1026A000075594F83D2043F63006C4F2020632BBCB
:1026B00084F83C500295316800F5D83041F00201B1
:1026C0003160316801F00201029102994FF44071CA
:1026D00002911221CDE903150321059104210691F0
:1026E00002A9FFF72FFA0195306940F4001030611C
:1026F000306900F4001001900198D4E9000124220F
:1027000084F83D20026848F2A16C22F001020260C8
:102710000268C0F2010C42F400420260026822F436
:102720000042026040F20802C2F20002126856F84B
:10273000283C45F23036C3F38223C0F60106F35C31
:10274000002622FA03F348F28042C0F21E029342AE
:1027500040F60012C0F23D0238BF0126934238BF56
:102760000125614538BF35461DB1EFF3108072B6C3
:10277000FEE74DF68366C4F21B36A3FB066546688A
:102780004FEA954E26F03F0646EA954646604FF4DE
:10279000967244F6D356076A0EFB02F2C1F2620645
:1027A000A2FB062627F03F02B709614538BFAF0CF0
:1027B00001373A430262C26948F2A0664CF6FF77DD
:1027C000C0F20106B14222EA07020AD8013B4900E1
:1027D000B3FBF1F101316FF31F31042998BF0421DC
:1027E00019E0A768013B57B119277943B3FBF1F111
:1027F00001316FF31F3169B101F5804107E001EB51
:102800004101B3FBF1F101316FF31F3111B101F55A
:10281000004100E001211143C1610168D4E90723AF
:1028200021F0C001114319430160816848F2FF3271
:1028300004F10C0791438CCF19431143A6698160C1
:10284000C168002221F0FF0139433143C1600168B2
:1028500041F0010101602021226484F83D102263CF
:1028600084F83E2094F83D20202A2AD1242284F89E
:102870003D20036823F001030360436A23F0100343
:102880004362436A4362036843F00103036084F8D0
:102890003D1094F83D10202917D184F83D2001689F
:1028A0004FF6F07221F001010160416A114041626E
:1028B000016841F001010160202084F83D0007B06B
:1028C000F0BDEFF3108072B6FEE7EFF3108072B642
:1028D000FEE70000FEE70000FEE700000000000049
:1028E000EFF30980BFF36F8F154B1A681EF0100FBE
:1028F00008BF20ED108A20E9F04F10602DE9090093
:102900004FF0500080F31188BFF34F8FBFF36F8FEC
:1029100010F08CFE4FF0000080F31188BDE8090034
:1029200019680868B0E8F04F1EF0100F08BFB0EC4F
:10293000108A80F30988BFF36F8F704700BF00BF14
:10294000E081002000000000000000000000000006
:10295000074B19680868B0E8F04F80F30988BFF3A7
:102960006F8F4FF0000080F31188704700BF00BFE9
:10297000E0810020AAB005F055FD40F28C61C2F262
:102980000001086048F26860C2F20000033048F2BB
:10299000606120F00300C2F2000148F26463086045
:1029A0004FF4205100F52052C2F2000301601A607A
:1029B00042F60402012383544FF02822425040F291
:1029C00084610024C2F200010471086005F02AFD50
:1029D00040F29061C2F20001086068B945F2CB4054
:1029E00045F65913C0F601000FF28C51C0F60103F1
:1029F00040F21F2211F0A0FF48F21F00C2F20000B7
:102A0000033020F0030000F12001024642F8401F8D
:102A100048F2D8010460006240F8602FC2F2000161
:102A2000086047F60D40C2F20000033020F00300BA
:102A300000F19C01C0F8381100F59C71C0F8D41168
:102A400000F5EA71C0F8701248F2CC010460C0F8D9
:102A50009C0000F51C70C2F20001086047F62A30A5
:102A6000C2F20000033020F0030000F11C01024616
:102A700042F8381F014641F8542F024642F8701FB1
:102A8000014641F88C2F024642F8A81F48F2D001B7
:102A90000460C06140F8C42FC2F20001086047F62C
:102AA0001C70C2F20000033020F0030000F110019E
:102AB000024642F8201F014641F8302F024642F8F4
:102AC000401F014641F8502F024642F8601F014660
:102AD00041F8702F024642F8801F014641F8902FBE
:102AE000024642F8A01F014641F8B02F024642F8C4
:102AF000C01F014641F8D02F024642F8E01F48F2BD
:102B0000D4010460006140F8F02FC2F200010860B7
:102B100042F6CB70C2F20000033020F0030000F157
:102B20002001024642F8401F014641F8602F046030
:102B3000006240F8801F48F2B801C2F2000108604C
:102B400040F29460C2F20000033020F0030000F174
:102B50001801024642F8301F014641F8482F02464C
:102B600042F8601F014641F8782F024642F8901F54
:102B7000014641F8A82F024642F8C01F014641F81D
:102B8000D82F024642F8F01F00F58471C0F82011DA
:102B900000F59071C0F8381100F59C71C0F8501123
:102BA00048F2A40104608061C0F8082100F5A87013
:102BB000C2F20001086040F2FF70C2F20000033070
:102BC00020F0030048F2A801046000611030C2F256
:102BD0000001086040F62200C2F20000033020F03D
:102BE000030000F12801024642F8501F48F2AC01F0
:102BF0000460806240F8782FC2F20001086047F656
:102C00002420C2F20000033020F0030000F1100184
:102C1000024642F8201F014641F8302F024642F892
:102C2000401F014641F8502F024642F8601F48F20B
:102C3000C4010460006140F8702FC2F20001086016
:102C400047F6A720C2F20000033020F0030000F195
:102C50001001024642F8201F014641F8302F02467B
:102C600042F8401F014641F8502F024642F8601FCB
:102C700048F2C8010460006140F8702FC2F2000100
:102C8000086047F6F110C2F20000033020F00300A4
:102C900000F110010460006140F8201F48F2C001FB
:102CA000C2F20001086042F6C860C2F200000330C0
:102CB00020F0030000F11001024642F8201F0146F7
:102CC00041F8302F024642F8401F014641F8502F8C
:102CD000024642F8601F014641F8702F024642F852
:102CE000801F014641F8902F024642F8A01F01467E
:102CF00041F8B02F024642F8C01F014641F8D02FDC
:102D0000024642F8E01F48F2B0010460006140F85A
:102D1000F02FC2F20001086040F6C500C2F20000C8
:102D2000033020F0030000F51871C0F8C01400F55E
:102D30009861C0F8201700F5E461C0F8801900F52B
:102D40001861C0F8E01B00F53E61C0F8401E00F5B8
:102D500064614FF48552815000F585514FF49852CB
:102D6000815000F598514FF4AB52815000F5AB51B2
:102D70004FF4BE52815000F5BE514FF4D1528150F4
:102D800000F5D1514FF4E452815000F5E4514FF475
:102D9000F752815000F5F7514FF40552815000F57C
:102DA000055142F2A032815048F2B4010460C0F8EB
:102DB00060021044C2F200010860FDF721FA40F2FF
:102DC0002C0140F44040C2F200010880FDF718FADF
:102DD00045F26834C0F6010404F1080008F0EAF88E
:102DE00004F1100008F0E6F8EFF30580A0B14AF610
:102DF000C060C2F200000021016045F2CB4045F600
:102E00001823C0F601000FF6AC41C0F6010340F2F2
:102E1000612211F091FD44E006200421002210F00F
:102E200069FC0028E3D041F65861C2F201010A684A
:102E3000002A4FF000021DD00B4653F8087FE7B17F
:102E40000B4653F8107FD7B10B4653F8187FC7B124
:102E50000B4653F8207FB7B10B4653F8287FA7B134
:102E60000B4653F8307F97B10B4653F8387F9FB924
:102E700007270DE000270B460AE0012708E002279C
:102E800006E0032704E0042702E0052700E0062708
:102E900001EBC7011A6048604AF6C061C2F2000146
:102EA000086005F0BFFA40F28861C2F200010860D4
:102EB00068B945F2CB4045F61823C0F601000FF67D
:102EC0001841C0F6010340F2652211F035FD0FF6FE
:102ED0002C4007904FF4806000260C901820CDE91C
:102EE0000D0641F281104AF6C005C0F6010007AA9E
:102EF0000021CCF60105CDE90866CDE90A660F96FA
:102F000005F0CAFB48F2E401C2F2000140F2F829E0
:102F10000978C2F2000989F8301040F65D7148F274
:102F20003510C0F60101C0F60000C9E903614AF698
:102F3000C001C9F814006FF07F40C0F20111C9E967
:102F40000166C9E9020120A807A9A9F8246089F847
:102F50002D60C9F81C60C9F82060079520960AF01A
:102F6000CFFC2098B8B30799A9B341F2F061C2F23F
:102F7000010109680FE000BF6661696C6564207437
:102F80006F20637265617465206D656D5F6D75742A
:102F900065780000C968F1B10A68824202D10798D9
:102FA00008602098C968B1B10A68824202D10798C6
:102FB00008602098C96871B10A68824202D10798F6
:102FC00008602098C96831B10A688242E2D1079846
:102FD00008602098DEE799F82D00C9F8045000F049
:102FE0000D000D2814D145F2623109F10400C0F63C
:102FF0000101CDE9000109F1260145F25C3201270A
:103000000290C0F6010248460B46039702F09CF975
:1030100047F27340A9F82E0044F6094046F6ED71D8
:10302000C0F60000C0F6000148F2000843F6300781
:10303000C9E9050107A86421C4F20208C4F2020725
:10304000FDF7B3FF40F2F43448F20000C2F200048E
:10305000C0F2E1000DF11601CDF8160000254FF485
:10306000000040F2D80240F23803C4E9008104F1C4
:103070000801ADF81A50C2F20002C2F200034FF488
:10308000C0664DC1D4F8841009B142469DE02320AA
:10309000C4F884002095386840F2000B40F00070BE
:1030A00038603868C4F2020B00F00070209020985D
:1030B0002095386820AE40F08060386038684FF066
:1030C000030800F0806020902098209538684FF029
:1030D0000B0A40F0006038603868314600F000604C
:1030E000209020982095386840F0040038603868B7
:1030F00000F00400209020982095386840F00100EE
:103100003860386800F001002090209820953868D9
:1031100040F002003860386800F0020020902098EB
:10312000322020900220CDE921050BF50060CDF87A
:103130008C80CDF890A0FEF705FD8620209002201F
:10314000219022A880E82005584631460224FEF747
:10315000F9FC4FF4605020A981E8310148F20008E1
:1031600040F2F4340BF580603146C4F20208CDF829
:1031700090A0C2F20004FEF7E5FC4EF60C50CEF231
:10318000000000684FF0FF32C0F3022080F007011A
:10319000042928BF0421033802FA01F14FF0050287
:1031A00038BF284622EA010101FA00F04EF23D4103
:1031B0000001CEF2000108704EF20410CEF20000C1
:1031C0004FF0005101602268A0682095796941F4B0
:1031D00080417961796901F480412091209943F619
:1031E0000401C4F201010B6823F400030B600B68B7
:1031F0001843086008684FF48050115841F00101ED
:10320000115041F2FC61C2F201010B6802F58050DD
:103210000768FF0721D00F68FF1AB7F5FA7F17D8A4
:103220000768FF0719D00F68FF1AB7F5FA7F0FD8A4
:103230000768FF0711D00F68FF1AB7F5FA7F07D8A4
:103240000768FF0709D00F68FF1AB7F5FA7FDFD9C3
:10325000E02004214FF0000806E1136848F20F1740
:10326000CFF620773B4003F59C43136013680F684B
:103270000E68F61B012E0BD80E68F61B012E07D820
:103280000E68F61B012E03D80E68F61B022EEFD334
:10329000136093694FF641773B40803393619369A4
:1032A0000F6800BF0E68F61B012E0BD80E68F61BC8
:1032B000012E07D80E68F61B012E03D80E68F61BE8
:1032C000022EEFD39361826943F62373CFF6DE03B8
:1032D0001A4042F0087242F00402826182690B686F
:1032E0000F68FF1A012F0BD80F68FF1A012F07D89C
:1032F0000F68FF1A012F03D80F68FF1A022FEFD3B0
:10330000826142F28002C0F2C122026002680B6850
:103310000F68FF1A012F0BD80F68FF1A012F07D86B
:103320000F68FF1A012F03D80F68FF1A022FEFD37F
:103330000260E2680021116051609160D160A26179
:10334000136843F48013136002F12803D3601768F5
:1033500047F4400717609162D16211635163E361E2
:10336000936A43F48013936202F150035363976AA4
:1033700047F440079762116551659165D1652362F5
:10338000136D43F48013136502F17803D365176D51
:1033900047F4400717659167D167C2F88010C2F8FB
:1033A00084106362936F4FF48C4743F480139367E8
:1033B000C2F88420936F43F440039367A1620261D3
:1033C00022694FF00043116051609160D160C2E901
:1033D000081113605760566826F00046566002F1E7
:1033E0002806A264D6609162D16211635163C2E97A
:1033F00012119362D762D56A25F00045D562E66462
:1034000002F150065663116551659165D165C2E9B7
:103410001C1113655765556D25F0004555652665EA
:1034200002F17806D6659167D167C2F88010C2F8BC
:103430008410C2E926119367D767D36F23F0004346
:10344000D3676665C2F884202166C4E91A11C4E90D
:103450001611C26060688288C8F840200068C8F809
:10346000440010204FF0010840F29015C2F2000510
:10347000C4F88810C4F88400281D3421FDF795FD98
:10348000212028604FF44000686143F26E00C2F2D0
:103490000000033020F0030101F5C462C1F8402CA4
:1034A00001F544624FF49353CA5001F593524FF41F
:1034B000C457CA5101F5C4524FF4F557CA5101F52A
:1034C000F5524FF41357CA5101F5135242F6E02753
:1034D000CA51CA194FF44457CA5101F5445243F234
:1034E0002077CA51CA194FF47557002048F2BC031F
:1034F000CA5101F5755244F260370860C1F82016D0
:10350000C2F20003CA51394419600621626889F881
:103510002C10117889F82610517889F827109178A5
:1035200089F82810D17889F82910117989F82A109A
:10353000517999F82D2089F82B1040F2DC51A9F827
:10354000241042F00A0189F82D10EFF305810029BB
:1035500040D101200021032210F0CCF830B341F615
:103560005861C2F201010A68002A4FF000021FD020
:103570000B4653F8087FF7B10B4653F8107FE7B1BD
:103580000B4653F8187FD7B10B4653F8207FC7B1CD
:103590000B4653F8287FB7B10B4653F8307FA7B1DD
:1035A0000B4653F8387FAFB907270FE0002011E032
:1035B00000270B460AE0012708E0022706E0032760
:1035C00004E0042702E0052700E0062701EBC7011D
:1035D0001A60486040F28C11C2F200010860EFF3FB
:1035E0000580002500284FF0000040D10120002177
:1035F000032210F07FF830B341F65861C2F20101A6
:103600000A68002A4FF000021FD00B4653F8087FCB
:10361000F7B10B4653F8107FE7B10B4653F8187F0C
:10362000D7B10B4653F8207FC7B10B4653F8287F1C
:10363000B7B10B4653F8307FA7B10B4653F8387F2C
:10364000AFB907270FE0002011E000270B460AE082
:10365000012708E0022706E0032704E0042702E030
:10366000052700E0062701EBC7011A60486040F219
:10367000C811C2F2000108600FF2904020904FF490
:10368000AF70CDE927552590302040F2F82B2690D9
:1036900045F6F130C2F2000BC0F6000020AA5946F0
:1036A000CDE92155CDE9235504F0F6FF40F2801A0B
:1036B000C2F2000A9AF8002040F2841041F205118B
:1036C000C2F20000C0F60001016029954AB3FDF77F
:1036D00013FD0546FDF710FD401BB0F5FA6FF9D953
:1036E00001208AF80000B8F1000F3ED0FEF766FF17
:1036F00001286BDC9BF82D0041070BD5DBF81C1073
:1037000000F0FB008BF82D0021B140F2F820C2F24E
:103710000000884740F2F820C2F2000004F00EFDDD
:1037200000E1FDF7EFFC40F27C17C2F20007202019
:103730004FF0000929AE0025386004E06FF004095D
:103740000135202D15D0284612213246FDF724FDE3
:103750000028F3D4299800F01F008542F0D14FF0E3
:1037600000093D601F2D07D9BDE7EFF3108072B649
:10377000FEE73D681F2DB6D8B9F1000FB3D128463A
:1037800000214FF40042FDF751FD0028ABD438680A
:1037900029AA0021FDF700FD0028A4D4FDF7ACFC08
:1037A000054629AE9DF8A50000067FF590AFFDF710
:1037B000A3FC401BB0F5FA7F3FF695AF38680021B7
:1037C0003246FDF7E9FC0028ECD58CE703380228E7
:1037D00006D8D0A1D2A251F8201052F8200003E060
:1037E0004FF480404FF40061226801271368C3F34F
:1037F00000138DF84430136803F0600310931368CE
:1038000027EA53238DF83C301368C3F300438DF847
:103810003B30136827EA53338DF83A301368C3F30B
:1038200000338DF8383013681368136827EA935310
:103830008DF82D30136827EAD3538DF82C30136898
:10384000DBB2DB098DF82B30136803F46023099396
:103850001368C3F380238DF820309369C3F34003CA
:103860008DF870309369DB43DBB2DB098DF868308B
:10387000936903F030031B9393691B0C19939369AD
:10388000C3F380038DF872309269CDE90C01C2F365
:10389000C00207A88DF87120FDF78AFFFEF724F813
:1038A0009BF82D00C1070FD140F0010000F0050189
:1038B00005298BF82D0007D1DBF80410002918BF6B
:1038C00010F0080140F0DA8041072BD440F00400EA
:1038D00000F0050105298BF82D001BD1DBF8041041
:1038E000002918BF10F0080014D045F262310BF126
:1038F0000400C0F60101CDE900010BF1260145F2FB
:103900005C3201270290C0F6010258460B4603972D
:1039100001F01AFDDBF81C1021B140F2F820C2F2D0
:10392000000088479BF8300048F2E00A45F2CB459A
:1039300045F6863845F6BF0745F2F469C2F2000A3B
:10394000C0F60105C0F60108C0F60107C0F601097E
:10395000C1B2FF2904BF00208BF83000DAF8004024
:10396000002C00F0898000265C4513D0FF2E06D382
:103970002846494640F28D123B4610F0DDFF94F890
:1039800030109BF8300081420ED024680136002CA4
:10399000EAD10DE02846414640F28B123B4610F03A
:1039A000CBFFFF2EE4D2EAE7481C8BF83000CFE7CC
:1039B000DAF80010C2B2FE3A18BF421C48F2E40026
:1039C000C2F2000002709BF82D00CBF8001048F204
:1039D000DC01C2F20001C207CAF800B0C1F800B0B1
:1039E00023D140F0010000F0050105298BF82D00DE
:1039F0001BD1DBF80410002918BF10F0080014D008
:103A000045F262310BF10400C0F60101CDE900017D
:103A10000BF1260145F25C3201270290C0F601024B
:103A200058460B46039701F08FFC45F29570C0F69F
:103A3000000040F2C022CBF81C00C2F200020020BD
:103A4000C2E90100C2E90300C2E9070037A0106023
:103A50004FF4806050611020906145F29970C0F67B
:103A60000000594604F018FEEFF305800028FBD152
:103A700001200FF07DF9F7E700219BE745F2623165
:103A80000BF10400C0F60101CDE900010BF12601A4
:103A900045F25C3201270290C0F6010258460B46FF
:103AA000039701F051FC9BF82D0041077FF50EAF05
:103AB00038E700BF6661696C656420746F206372CB
:103AC000656174652074637069705F7468726561A4
:103AD00064206D626F7800006661696C65642074B3
:103AE0006F20637265617465206C6F636B5F7463D4
:103AF0007069705F636F72650000000074637069C5
:103B0000705F746872656164000000004574684904
:103B10006600000000000000000800000000000037
:103B20000040000000000000000000004574684CE8
:103B3000696E6B0080B54EF21000CEF20000006896
:103B400041F69860C2F201000068002808BF80BDFD
:103B500041F20C70C2F2010000684FF0500080F397
:103B60001188BFF36F8FBFF34F8F10F08DFB30B113
:103B70004EF60450CEF200004FF08051016000205C
:103B800080F3118880BD00004EF68850CEF2000010
:103B9000016841F4700101607047000040F2F84094
:103BA000C2F20000FEF734BB40F28850C2F20000BF
:103BB000FEF72EBB806B0021C185C18470470000D9
:103BC000806B01684A6990F83D30212B2DD112F0AD
:103BD00080022AD00021C184016851E8031F0268D5
:103BE00021F0C00142E80313DBB1016851E8031F73
:103BF000026821F0C00142E8031393B1016851E863
:103C0000031F026821F0C00142E803134BB10168B1
:103C100051E8031F026821F0C00142E80313002BA2
:103C2000DAD1202180F83D100168496990F83E20E2
:103C3000222A40F07D8011F0400179D00021C18519
:103C4000016851E8031F026821F4907142E80313F0
:103C5000BBB3016851E8031F026821F4907142E888
:103C6000031373B3016851E8031F026821F49071D4
:103C700042E803132BB3016851E8031F026821F4E3
:103C8000907142E80313002BDAD11AE0016851E881
:103C9000051F026821F0010142E80513DBB101684C
:103CA00051E8051F026821F0010142E8051393B1B4
:103CB000016851E8051F026821F0010142E805137F
:103CC0004BB1016851E8051F026821F0010142E88B
:103CD0000513002BDAD1016B012924D1016851E8C9
:103CE000031F026821F0100142E80313DBB10168F1
:103CF00051E8031F026821F0100142E8031393B159
:103D0000016851E8031F026821F0100142E8031323
:103D10004BB1016851E8031F026821F0100142E82D
:103D20000313002BDAD1202180F83E10002101631B
:103D3000016C41F010010164704700000168806B64
:103D40000968C9054FD40021C18400BF016851E84A
:103D5000051F026821F0800142E8051383B3016862
:103D600051E8051F026821F0800142E805133BB3CA
:103D7000016851E8051F026821F0800142E805133F
:103D8000F3B1016851E8051F026821F0800142E8A3
:103D90000513002BDAD113E0016851E8031F026814
:103DA00041F0400142E80313002B08BF704701684F
:103DB00051E8031F026841F0400142E8031393B148
:103DC000016851E8031F026841F0400142E8031313
:103DD0004BB1016851E8031F026841F0400142E81D
:103DE0000313002BD8D170477047000081B040F218
:103DF0001460C2F2000090F83E10222921D182689E
:103E0000B2F5805F09D10269816A52B902685268CD
:103E10006FF35F2221F8022B0DE00369816A1A43D8
:103E200002D10268526803E00268526802F07F0221
:103E30000A70816A01318162C18D01390A04C1852C
:103E400001D001B070470168CA6822F02002CA6040
:103E5000CA6822F48072CA604A6922F001024A618B
:103E6000202180F83E10016B0129EAD10021016375
:103E7000016851E8031F026821F0100142E80313B2
:103E8000DBB1016851E8031F026821F0100142E82C
:103E9000031393B1016851E8031F026821F0100178
:103EA00042E803134BB1016851E8031F026821F097
:103EB000100142E80313002BDAD100680168C9063B
:103EC000BFD50021009101680091406800900098E2
:103ED00001B07047B0B582B040F21465C2F200057F
:103EE00028680168C368446901F02F02202A03F0A2
:103EF000200205D122B102B0BDE8B040FFF776BF85
:103F00005FEA017C1EBF04F0010E03F4907414EB11
:103F10000E0440F0C2802A6B012A05D111F0100274
:103F200018BF13F0100229D10A0618D513F0800229
:103F300015D095F83D10212940F0A982AA68296A78
:103F4000B2F5805F40F09A822A69002A40F096829A
:103F500031F8022B6FF35F224260296292E2490638
:103F600040F1958213F0400100F09182C16821F088
:103F70004001C160202085F83D0088E200210191C8
:103F8000016801914168019101994069400600F181
:103F90008E80A88DE98DEA8D002A18BF884200F036
:103FA0007682286850E8030F296820F4907041E871
:103FB0000302BAB3286850E8030F296820F4907010
:103FC00041E8030272B3286850E8030F296820F41F
:103FD000907041E803022AB3286850E8030F29686B
:103FE00020F4907041E80302002ADAD11AE0286830
:103FF00050E8050F296820F0010041E80502DAB118
:10400000286850E8050F296820F0010041E8050202
:1040100092B1286850E8050F296820F0010041E8B6
:1040200005024AB1286850E8050F296820F0010010
:1040300041E80502002ADAD1202085F83E00002060
:104040002863286850E8030F296820F0100041E831
:104050000302002A00F01B82286850E8030F296839
:1040600020F0100041E80302002A00F010822868C6
:1040700050E8030F296820F0100041E80302002AED
:1040800000F00582286850E8030F296820F010002E
:1040900041E80302002AD4D1F9E1CC0718BF13F498
:1040A000807340F0F8804B0700F1FB8000E1A86BC3
:1040B000016849688AB2002A00F0E981AB8D9A4212
:1040C00080F0E581E985C069B0F5807F00F001826C
:1040D000286850E8030F296820F4807041E8030243
:1040E000DAB1286850E8030F296820F4807041E8AD
:1040F000030292B1286850E8030F296820F4807009
:1041000041E803024AB1286850E8030F296820F407
:10411000807041E80302002ADAD1286850E8050FD0
:10412000296820F0010041E80502BAB3286850E888
:10413000050F296820F0010041E8050272B32868E4
:1041400050E8050F296820F0010041E805022AB374
:10415000286850E8050F296820F0010041E80502B1
:10416000002ADAD11AE0286850E8050F296820F003
:10417000400041E80502DAB1286850E8050F2968D7
:1041800020F0400041E8050292B1286850E8050F90
:10419000296820F0400041E805024AB1286850E84B
:1041A000050F296820F0400041E80502002ADAD115
:1041B000202085F83E0000202863286850E8030F7F
:1041C000296820F0100041E80302DAB1286850E8BD
:1041D000030F296820F0100041E8030292B128681B
:1041E00050E8030F296820F0100041E803024AB1AB
:1041F000286850E8030F296820F0100041E8030206
:10420000002ADAD1A86B41F2FC62C2F20102D0F8B6
:1042100058C0136890F83510022940F044810168B5
:10422000D0F840E00C68BEF1000F24F016040C60DA
:104230004C6924F080044C6101D1846C1CB10C6881
:1042400024F008040C600C6824F001040C600C6875
:10425000E40700F032811468E41A052C17D80C68C2
:10426000E40700F02A811468E41A052C0FD80C68C2
:10427000E40700F022811468E41A052C07D80C68C2
:10428000E40700F01A811468E41A062CDFD3202119
:104290004165032118E12B6C43F001032B644B07AC
:1042A00006D5BEF1000F03D02B6C43F002032B6444
:1042B0008B0706D5BEF1000F03D02B6C43F004032F
:1042C0002B64BCF1000F09D542EA0E03B3FA83F365
:1042D0005B0903D12B6C43F008032B642B6C002B80
:1042E00000F0D58011F0200118BF002A02D0FFF79E
:1042F0007DFD28684069296C00F0400001F008014C
:10430000401800F0B78000BF286850E8030F296804
:1043100020F4907041E80302BAB3286850E8030F14
:10432000296820F4907041E8030272B3286850E8CD
:10433000030F296820F4907041E803022AB328682B
:1043400050E8030F296820F4907041E80302002A26
:10435000DAD11AE0286850E8050F296820F001003A
:1043600041E80502DAB1286850E8050F296820F015
:10437000010041E8050292B1286850E8050F29685C
:1043800020F0010041E805024AB1286850E8050F15
:10439000296820F0010041E80502002ADAD1286BE3
:1043A000012824D1286850E8030F296820F0100064
:1043B00041E80302DAB1286850E8030F296820F0C9
:1043C000100041E8030292B1286850E8030F296801
:1043D00020F0100041E803024AB1286850E8030FBA
:1043E000296820F0100041E80302002ADAD12020D9
:1043F00085F83E000020286328684069400646D5BD
:10440000286850E8050F296820F0400041E80502BF
:10441000DAB1286850E8050F296820F0400041E82B
:10442000050292B1286850E8050F296820F0400085
:1044300041E805024AB1286850E8050F296820F0D4
:10444000400041E80502002ADAD1A86BF8B143F632
:10445000B531C0F60001016590F83510022925D16B
:10446000052180F835100068016821F00101016024
:1044700002B0B0BD0020286402B0B0BD4A1C2A6260
:1044800009784160E98C01390A04E98401D002B05D
:10449000B0BDC16821F08001C160C16841F0400138
:1044A000C16002B0B0BD802141650FE0802141654F
:1044B00002B0BDE8B040FFF77DBBC16D3F2202FAFC
:1044C00001F1CCF80810012180F83510002180F8A6
:1044D0003410E88D02B0B0BDFEE700002DE9F04FCA
:1044E00085B00028CDE90112049000F08B804FF0D8
:1044F0000A0B002A00F0AF8040F2D01C00230122FA
:10450000C2F2000C00204FF0000E4FF0000A4FF0F6
:104510000A084FF00A090A21039106E09046303359
:10452000F02B02F1020200F0CD820CEB0304257D9A
:104530001FFA88F10A29A2F1010608BF002D19D03F
:1045400065B3049967680968B94204D1A168029FFC
:10455000B94200F03283012D0ED15CF80310658A58
:1045600091B11FFA8AFA554528BFB34688BFAA46BB
:1045700014E000BFB04611E0618A80B2814228BFDA
:10458000B14688BF084609E01FFA8EFE03997545BB
:1045900028BF3146039188BFAE4600BF94F82C5027
:1045A0001FFA88F10A2908BF002DB7D0002DB6D018
:1045B0000499E6690968B14204D1216A029EB142B8
:1045C00000F0FB80012D0BD1A169648D81B11FFA30
:1045D0008AFA544528BF934688BFA2469FE700BF8A
:1045E000618D80B2814228BF914688BF084696E718
:1045F0001FFA8EFE0399744528BF1146039188BFA8
:10460000A6468CE740F2D016C2F20006337D012B9D
:1046100000F09B80002B40F0AE8096F82C404FF0CD
:1046200000080A20002C00F0CC8003904FF00A090B
:1046300000204FF00A0B00234FF0000C4FF0000E4B
:10464000012C00F0AC80748D744528BF4FF0010937
:1046500088BFA646CCE040F2D01C00220120C2F266
:10466000000C00274FF0000E00244FF00A084FF016
:104670000A090A21039106E080463032F02A00F14F
:10468000020000F01F820CEB02031D7D1FFA88F66A
:104690000A2EA0F1010608BF002D15D045B30499DC
:1046A000D1F800A059688A4500F08782012D0DD10C
:1046B0005CF802105D8A89B1A4B2A54228BFB34656
:1046C00088BF2C4614E000BFB04611E0598ABFB243
:1046D000B94228BFB14688BF0F4609E01FFA8EFED7
:1046E0000399754528BF3146039188BFAE4600BF88
:1046F00093F82C501FFA88F10A2908BF002DBBD06F
:10470000002DBAD00499DE690968B14257D0012D55
:1047100009D199695B8D71B1A4B2A34228BF8346C8
:1047200088BF1C46A9E7598DBFB2B94228BF814650
:1047300088BF0F46A1E71FFA8EFE0399734528BF75
:104740000146039188BF9E4697E73368B6F812C0CA
:10475000002B18464FF0000E4FF0000B4FF00A09E7
:1047600018BF0A20039008BF4FF00A0B002B1CBF94
:104770006346F4460AE0B6F812E00A204FF000095A
:1047800003904FF00A0B00234FF0000C96F82C40DA
:1047900001207CB14FF00A08012C7FF454AFB569B9
:1047A000748DE5B19BB29C4228BF4FF0010B88BFCE
:1047B00023461DE04FF001080DE01646FDE10646D8
:1047C000FBE103904FF00A094FF00A0B00234FF072
:1047D000000C4FF0000E96F84440BCB911E01FFAEF
:1047E0008CFC039A644528BF0122039288BFA4462B
:1047F00096F84440B4FA84F56D09284205D04FF08C
:10480000020896F85C0048BB41E0FCB1012C0BD1DA
:10481000346BB6F8420084B19BB2984228BF4FF087
:10482000020B88BF034611E0B6F84200704528BF6E
:104830004FF0020988BF864608E01FFA8CFC039AF5
:10484000604528BF0222039288BF844696F85C0028
:10485000B8F10A0F08BF002817D028B301280BD1E0
:10486000B46CB6F85A00B4B19BB2984228BF4FF06E
:10487000030B88BF034617E0B6F85A00704528BFFF
:104880004FF0030988BF86460EE04FF0030896F804
:10489000740088B929E01FFA8CFC039A604528BF90
:1048A0000322039288BF844696F87400B8F10A0F79
:1048B00008BF002817D028B301280BD1346EB6F8F2
:1048C0007200B4B19BB2984228BF4FF0040B88BF6E
:1048D000034617E0B6F87200704528BF4FF0040990
:1048E00088BF86460EE04FF0040896F88C0088B921
:1048F00029E01FFA8CFC039A604528BF042203922A
:1049000088BF844696F88C00B8F10A0F08BF0028CB
:1049100017D028B301280BD1B46FB6F88A00B4B110
:104920009BB2984228BF4FF0050B88BF034617E0A3
:10493000B6F88A00704528BF4FF0050988BF864643
:104940000EE04FF0050896F8A40088B92AE01FFA97
:104950008CFC039A604528BF0522039288BF8446D9
:1049600096F8A400B8F10A0F08BF002818D030B399
:1049700001280CD1D6F89040B6F8A200B4B19BB291
:10498000984228BF4FF0060B88BF034617E0B6F8E1
:10499000A200704528BF4FF0060988BF86460EE08A
:1049A0004FF0060896F8BC0088B92AE01FFA8CFC84
:1049B000039A604528BF0622039288BF844696F872
:1049C000BC00B8F10A0F08BF002818D030B3012886
:1049D0000CD1D6F8A840B6F8BA00B4B19BB2984250
:1049E00028BF4FF0070B88BF034617E0B6F8BA00A0
:1049F000704528BF4FF0070988BF86460EE04FF08C
:104A0000070896F8D40088B92AE01FFA8CFC039AAC
:104A1000604528BF0722039288BF844696F8D400D9
:104A2000B8F10A0F08BF002818D028B301280CD10C
:104A3000D6F8C040B6F8D200ACB19BB2984228BFBD
:104A40004FF0080B88BF034616E0B6F8D200704559
:104A500028BF4FF0080988BF86460DE04FF00808D0
:104A600096F8EC000FE01FFA8CFC039A604528BF13
:104A70000822039288BF844696F8EC00B8F10A0F2A
:104A800008BF002814D0E8B101280AD1D6F8D870A0
:104A9000B6F8EA007FB19AB2904228BF4FF0090BF6
:104AA00010E0B6F8EA00704528BF4FF0090909E0A8
:104AB0004FF0090806E01FFA8CF29042039828BFD5
:104AC0000920039001994FF6FF76880775D4C8072F
:104AD00003D11FFA88F00A286FD00FFA88F40A2C45
:104AE00018DA40F2D01104EB4400C2F2000101EBED
:104AF000C000007D002847D045F2CB4045F6AD23ED
:104B0000C0F6010035A1C0F6010340F285120FF096
:104B100013FF39E00FFA89F0092817DC40F2D011B1
:104B200000EB4000C2F2000151F8300060B145F2E4
:104B3000CB4045F6AD23C0F6010022A1C0F601032B
:104B400040F26D120FF0F8FEC8460AE0DDF80C8066
:104B50000FFA88F00A2804DB0FFA8BF00928D846F0
:104B60002BDC0FFA88F440F2D01204EB4401C2F2BD
:104B7000000252F8310002EBC10518B104F08EF9C1
:104B800000202860002028750498029B48B140F25C
:104B9000D012006804EB4401C2F2000202EBC10132
:104BA000486040F2D01104EB4400C2F2000101EB76
:104BB000C000002146464182836030B205B0BDE8A6
:104BC000F08F00BF6172705F7461626C655B695DDC
:104BD0002E71203D3D204E554C4C00006172705F9F
:104BE0007461626C655B695D2E7374617465203DF0
:104BF0003D204554484152505F53544154455F4510
:104C00004D5054590000000070B582B0164605465C
:104C100000280C464DD0002C5DD0002E6AD03068A4
:104C2000411C02290CD245F25C30C0F6010074B37D
:104C300023894FF6F1718B4240F29380FE20BDE054
:104C400095F82D1089070BD56A68824208D0A968AB
:104C50004240114204D1CA4320EA01019142E2D00C
:104C600000F0F001E02953D1010E020C0123C0F342
:104C70000620ADF800305E238DF8030068468DF8FD
:104C800002308DF804208DF80510002CD0D145F2AB
:104C9000CB4045F2677145F6F003C0F60100C0F65F
:104CA0000101C0F6010340F2DF120FF045FEFE20C5
:104CB00084E045F2CB4045F2597145F6AD23C0F68C
:104CC0000100C0F60101C0F6010340F21E320FF0F0
:104CD00033FE002CA1D145F2CB4045F6AD23C0F602
:104CE000010090A1C0F6010340F21F320FF024FE34
:104CF000002E94D145F2CB4045F6AD23C0F601001D
:104D00008BA1C0F601034FF448720FF015FE86E741
:104D1000D5E901124140114209D081B24FF6A96292
:104D2000914204D02E4656F80C0F002845D040F290
:104D3000F42CC2F2000C9CF8002040F2D01E02EBD2
:104D40004203C2F2000E0EEBC303197D02290FD3FA
:104D50009968A9420CD15968884209D12846214650
:104D6000D2E094F90C10B1F1FF3F0FDDFE2025E0F9
:104D70009EF81410022912D3DEF80810A9420ED1B1
:104D8000DEF8041088420AD10022B9E0616804F11B
:104D90001006A1F10E02B24213D2FE200EE09EF8E0
:104DA0002C1002293DD3DEF82010A94239D1DEF8BB
:104DB0001C10884235D10122A2E0FC2040B202B092
:104DC00070BD668962600E366681082621F8026C25
:104DD00086880E3323819680006805F126031060D3
:104DE000988821F8040C186841F8080C95F82C00F4
:104DF00006280FD045F2CB4045F25E5145F61833F8
:104E0000C0F60100C0F60101C0F6010340F2331202
:104E10000FF092FDAA692846214602B0BDE8704015
:104E200010479EF84410022909D3DEF83810A94231
:104E300005D1DEF83410884201D1022260E09EF8EC
:104E40005C10022909D3DEF85010A94205D1DEF822
:104E50004C10884201D1032252E09EF874100229BE
:104E600009D3DEF86810A94205D1DEF86410884243
:104E700001D1042244E09EF88C10022909D3DEF807
:104E80008010A94205D1DEF87C10884201D10522AC
:104E900036E09EF8A410022909D3DEF89810A94242
:104EA00005D1DEF89410884201D1062228E09EF850
:104EB000BC10022909D3DEF8B010A94205D1DEF8F2
:104EC000AC10884201D107221AE09EF8D4100229C2
:104ED00009D3DEF8C810A94205D1DEF8C410884213
:104EE00001D108220CE09EF8EC10022911D3DEF863
:104EF000E010A9420DD1DEF8DC10884209D1092268
:104F0000284621468CF8002002B0BDE8704000F031
:104F100017B828463146224602B0BDE8704000F07E
:104F2000D3B800BF7120213D204E554C4C000000ED
:104F300069706164647220213D204E554C4C000024
:104F4000F0B585B040F2D01302EB4202C2F200038A
:104F500003EBC206374617F8142F0C46012A054604
:104F60000DD845F2CB4045F6AD23C0F601004AA16D
:104F7000C0F6010340F2EF220FF0DEFC3A78022A7D
:104F800031D1708AB0F58E7F11D945F262332A1D76
:104F9000C0F60103301DCDE9002345F25C3205F176
:104FA00026014FF0010C0290C0F6010211E0B0F5AD
:104FB000877F18D345F2623E301D06F10C0205F1E1
:104FC00026012B1D4FF0010CC0F6010ECDE9003E6D
:104FD000029028460B46CDF80CC000F0B5F9002829
:104FE00004BF03203870002C42D022894FF6F170A4
:104FF00082424DD894F90C00B0F1FF3F48DC606864
:1050000004F11003A0F10E01994241D367890E32D9
:105010000E372281082206F10C036160678120F8B7
:10502000022C9A888A801A6805F126030A609988FA
:1050300020F8041C196840F8081C95F82C00062874
:105040000FD045F2CB4045F25E5145F61833C0F61D
:105050000100C0F60101C0F6010340F233120FF067
:105060006BFCAA692846214605B0BDE8F040104710
:1050700045F2CB4045F2677145F6F003C0F60100FA
:10508000C0F60101C0F6010340F2DF120FF054FC3C
:105090006FF0010005B0F0BD6172705F7461626C09
:1050A000655B6172705F6964785D2E7374617465AD
:1050B000203E3D204554484152505F535441544591
:1050C0005F535441424C45002DE9F04F85B00F46E7
:1050D000096893464A1C022A04D2F02040B205B067
:1050E000BDE8F08F054690F82D0080070DD56A6861
:1050F0008A420AD0A8684A40104206D1C24321EA37
:105100000000904201D1F020E8E700294FF0F000C4
:10511000E4D001F0F001E029E0D0384601212A4630
:10512000FFF7DCF90646B0F1FF3F33DD7F2E05F1D6
:1051300026080CD345F2CB4045F6AD23C0F601005E
:1051400076A1C0F6010340F2C1320FF0F5FB5FFA21
:1051500086FA4FEA4A0040F2D01450FA86F0C2F2C2
:10516000000404EBC002914619F8141FA1B1BBF171
:10517000000F60D0FF20022937D3BBF8082040F28F
:10518000F4204FF6F171C2F200008A42067067D92E
:10519000FE20A3E73046A1E70AEB4A0004EBC0007B
:1051A00045F2623104924FF0010C8560281DC0F673
:1051B000010145F25C3289F800C08DE88300C0F639
:1051C0000102284641464346CDF80CC000F0BCF829
:1051D000BBF1000F3FF482AF99F80010049A40F23F
:1051E000D014C2F200040229C7D201297FF476AF9D
:1051F00045F2CB4545F6AD279046C0F601054BA6D6
:10520000C0F601075C4600BF60892189884208D149
:10521000206830B12846314640F2F1323B460FF06B
:105220008BFB207B400622D42468002CECD158460E
:1052300004F0C8FB1FE045F26231281DC0F60101F1
:1052400045F25C3201268DE88300C0F60102284653
:1052500041464346039600F077F805B0BDE8F08F6D
:105260009BF90C00B0F1FF3F12DDFE2036E75846F7
:1052700003F010FD8346BBF1000F13D0D8F80000F7
:10528000002818BF03F00AFE0020C8F800B025E788
:10529000DBF804000BF11003A0F10E01994203D2D8
:1052A000FE201BE7FF2019E7BBF80A700AEB4A0350
:1052B0000E3204EBC3030E37ABF8082008220C3380
:1052C000CBF80410ABF80A7020F8022C9A888A8078
:1052D0001A680A60B8F8041020F8041CD8F8001006
:1052E00040F8081C95F82C0006280FD045F2CB405A
:1052F00045F25E5145F61833C0F60100C0F60101D3
:10530000C0F6010340F233120FF016FBAA692846DB
:10531000594605B0BDE8F04F104700BF747970657D
:10532000206F766572666C6F770000006E6F20707C
:1053300061636B65742071756575657320616C6C54
:105340006F776564210000002DE9F04F83B01E46A1
:10535000144682460F4678B945F2CB4045F2597162
:1053600045F6AD23C0F60100C0F60101C0F6010309
:1053700040F257420FF0E0FA0E201C2103F026FA0B
:10538000002800F08E8005464089DDF83CB01B28DF
:10539000CDE901470CD845F2CB4045F6AD23C0F628
:1053A000010042A1C0F6010340F263420FF0C4FACB
:1053B0009AF82C000E9CDDE90C896F6806289BFA90
:1053C0009BF0F8800FD045F2CB4045F2F34145F613
:1053D000AD23C0F60100C0F60101C0F6010340F2A2
:1053E0006A420FF0A9FAB088B8813068B860D9F87D
:1053F0000000C7F81200B9F80400F882D8F80000DD
:10540000C7F80E002068B86140F20010C0F2080032
:10541000386040F20640B8802A894FF6F170824227
:105420003AD895F90C00B0F1FF3F35DC686805F11A
:105430001003A0F10E0199422ED36B890E320E3368
:105440006B812A814FF4C162019B696020F8022CB4
:105450009A888A801A680A60029A918820F8041C47
:10546000116840F8081C9AF82C0006280FD045F265
:10547000CB4045F25E5145F61833C0F60100C0F648
:105480000101C0F6010340F233120FF055FADAF8C9
:105490001820504629469047284603F0FFFC00207C
:1054A00000E0FF2040B203B0BDE8F08F63686563A1
:1054B0006B20746861742066697273742070627501
:1054C000662063616E20686F6C642073747275630C
:1054D00074206574686172705F6864720000000017
:1054E0002DE9F04F85B040F2D01645F2623945F211
:1054F0005C340025C2F200064FF00108C0F6010935
:10550000C0F601044FF0020B002704E08AF81450A3
:105510001837F02F37D006EB070A9AF81400002846
:10552000F6D0BAF812104A1C91B28B084A2BAAF88E
:10553000122003D8012808D1052906D3F0590028E4
:10554000E4D003F0ABFCF551E0E7012807D00428D4
:1055500016D0032804BF04208AF81400D8E7DAF82C
:1055600008000AF1040200F12601031DCDE900390B
:10557000029222460B46CDF80C80FFF7E5FEC7E706
:105580008AF814B0C4E705B0BDE8F08F2DE9F04FFC
:1055900085B0478904460F2F3DD3E07B8B4618B971
:1055A0009BF830000130E07366683078B589C10738
:1055B00015D0012806D1707888B9B0785E280ED150
:1055C000102009E045F25C31C0F6010130460622A8
:1055D000FAF72FFE18B90820617B08436073B5F510
:1055E000C16F14D0082D16D19BF82D00000712D5DD
:1055F00006F10E0021896060A7F10E006081A1F123
:105600000E0020812046594600F09AFD06E09BF8E6
:105610002D00000706D4204603F040FC002005B012
:10562000BDE8F08F06F10E006060A7F10E0060810A
:105630002089F1890E38B1F5807F208119D1B07CA5
:10564000062816D1F07C042813D1308A082810D1FE
:105650005D4655F8040FF769049770B1D6F8261027
:1056600006F1160981420AD14FF0010A4FF00108F4
:1056700009E0204603F012FCD0E706F116094FF0CE
:1056800002084FF0000A9BF82C0006280CD045F2C7
:10569000CB4045F6AD23C0F6010035A1C0F60103AD
:1056A00040F2A9120FF048F9781C022819D2B08AEA
:1056B0008AF00101B0F5807018BF012008430CD1B9
:1056C0000BF1260104A80227029058464A460B46D1
:1056D000CDE900590397FFF737FE204603F0DEFBC4
:1056E0009CE79BF82D0080070CD52968B94209D0AA
:1056F000DBF808007940084204D1C14327EA0000E2
:105700008842D4D007F0F000E028D0D004A8414669
:105710005A46FEF7E3FE0028C9D481B2490040F2A0
:10572000D01211FA80F1C2F2000202EBC100022392
:105730000375C0F808B0D9F8003052F83180C36062
:10574000B9F804300021B8F1000F03824182AED0D5
:1057500001600BF126024FF40067584641464B4664
:10576000009700F0E7F9404603F098FB9FE700BF81
:105770006E657469662D3E6877616464725F6C65FE
:105780006E203D3D204554485F4857414444525F98
:105790004C454E0070470000A2B0044608A86421A2
:1057A000FBF703FC201D069004F1260040F2F438BC
:1057B00041F2FC660590C2F2000841F2180BC2F2F9
:1057C000010601254FF0000A00204FF00009079064
:1057D00007E000BF4FF0010AEFF30580002800F05A
:1057E000B380FCF7EBFE94F82D1011F0040100F0EB
:1057F0009B80012800F39880D8F88400232840F08B
:10580000A7802320C8F88400D8F8000045F63E732E
:1058100000EB0B014A68CFF6FE731A404A6050F85D
:105820000B2022F4005240F80B2050F80B2022F0FD
:10583000020240F80B20026822F0040202600268B3
:10584000336800BF3768FF1A012F0BD83768FF1A7B
:10585000012F07D83768FF1A012F03D83768FF1ABE
:10586000022FEFD30027026021970A6842F48012CA
:105870000A600A682192326833689B1A012B0BD8A0
:1058800033689B1A012B07D833689B1A012B03D866
:1058900033689B1A022BEFD3219A0A60016821F02A
:1058A000080101600168326833689B1A012B0BD82C
:1058B00033689B1A012B07D833689B1A012B03D836
:1058C00033689B1A022BEFD30160D8F84800416877
:1058D00041F000414160D8F84C00416841F000417E
:1058E0004160D8F85000416841F000414160D8F86B
:1058F0005400416841F0004141601020C8F85870E0
:10590000C8F88400204602F019FC24BB45F2CB40C5
:1059100045F6BF03C0F601007DA140F20642C0F685
:1059200001030FF009F857E700297FF455AF02286B
:10593000FFF652AF023804281DD26DA151F8202085
:105940006FA151F820301CE064200DF011FA48E7F7
:10595000204602F0F3FB94F82D0041077FF53CAFA1
:10596000E16900F0FB00002984F82D003FF434AF1A
:105970002046884730E7BAF1000F00F09E80079B71
:105980004A46D8F8000091460168C1F300118DF82D
:105990004810016801F060011191016825EA512168
:1059A0008DF840100168C1F300418DF83F10016887
:1059B00025EA51318DF83E100168C1F300318DF8B0
:1059C0003C1001680168016825EA91518DF8311099
:1059D000016825EAD1518DF830100168C9B2C909B2
:1059E0008DF82F10016801F460210A910168C1F35C
:1059F00080218DF824108169C1F340018DF8741065
:105A00008169C943C9B2C9098DF86C10816901F077
:105A100030011C918169090C1A918169C1F38001DF
:105A20008DF8761080690793C0F3C0008DF875007B
:105A300008A8CDE90D32FBF7BBFEFBF755FF94F844
:105A40002D00C1070ED140F0010000F0050105292D
:105A500084F82D0006D106990968002918BF10F0B6
:105A600008012DD141073FF5B5AE40F0040000F02C
:105A70000501052984F82D0018D106990968002927
:105A800018BF10F0080011D0069845F26231C0F638
:105A90000101CDE90110059945F25C3200902046E4
:105AA000C0F601020B460395FFF74EFCE1690029A1
:105AB0003FF490AE204688478CE64FF0000A8BE614
:105AC000069845F26231C0F60101CDE90110059951
:105AD00045F25C3200902046C0F601020B46039569
